{
  "transactions": [
    {
      "hash": "0xce23f975520f9e715c928b598bb25c38544def38bf698f572fc70ae542453b8c",
      "transactionType": "CREATE",
      "contractName": "BatchMinter",
      "contractAddress": "0x4a6078ec708af26b64fa4418d3b37e41b05bcc1c",
      "function": null,
      "arguments": null,
      "transaction": {
        "from": "0xea78d8595ab0127c283297af373a8f5ce7288bb0",
        "gas": "0x48db6",
        "value": "0x0",
        "input": "0x60808060405234601557610330908161001a8239f35b5f80fdfe60806040526004361015610011575f80fd5b5f3560e01c8063685731071461009f5763f62d89ac1461002f575f80fd5b3461009b57602036600319011261009b5760043567ffffffffffffffff811161009b576100609036906004016100fe565b5f9182915b80841061007757602083604051908152f35b909161009160019161008a86858761012f565b3590610167565b9301929190610065565b5f80fd5b3461009b57604036600319011261009b5760043567ffffffffffffffff811161009b576100d09036906004016100fe565b6024359167ffffffffffffffff831161009b576100f46100fc9336906004016100fe565b929091610188565b005b9181601f8401121561009b5782359167ffffffffffffffff831161009b576020808501948460051b01011161009b57565b919081101561013f5760051b0190565b634e487b7160e01b5f52603260045260245ffd5b356001600160a01b038116810361009b5790565b9190820180921161017457565b634e487b7160e01b5f52601160045260245ffd5b929190928284036102eb5783156102e55791905f925f925b8584106101de575050505060405191825260208201527f611f26bf2585849cbf69943da0d36aa65af0e05243c378f900b524f05e6c84b260403392a2565b9293919290916001600160a01b036101ff6101fa87898761012f565b610153565b16156102d65761021085838661012f565b35156102c7576102259061008a86848761012f565b936001600160a01b0361023c6101fa83898761012f565b169061024981848761012f565b35823b1561009b575f926044849260405195869384926340c10f1960e01b845233600485015260248401525af180156102bc5761028e575b60019150019291906101a0565b67ffffffffffffffff82116102a857600191604052610281565b634e487b7160e01b5f52604160045260245ffd5b6040513d5f823e3d90fd5b631f2a200560e01b5f5260045ffd5b63d92e233d60e01b5f5260045ffd5b50505050565b63512509d360e11b5f5260045ffdfea26469706673582212209b6120cdf9a12e8785307a99ea630fbebfb928ee7b53e16359c702d50c4c653964736f6c63430008210033",
        "nonce": "0xac",
        "chainId": "0x1"
      },
      "additionalContracts": [],
      "isFixedGasLimit": false
    },
    {
      "hash": "0xfa1c9c14374e2c22725bdb763ecbe87801605707a0f81c6bc29cdcca2ef4e5ed",
      "transactionType": "CALL",
      "contractName": null,
      "contractAddress": "0xc02aaa39b223fe8d0a0e5c4f27ead9083c756cc2",
      "function": "approve(address,uint256)",
      "arguments": [
        "0xC9071DFF211985709Be04Ba7FB0ABCBA82E609DC",
        "280000000000000000"
      ],
      "transaction": {
        "from": "0xea78d8595ab0127c283297af373a8f5ce7288bb0",
        "to": "0xc02aaa39b223fe8d0a0e5c4f27ead9083c756cc2",
        "gas": "0x9c35",
        "value": "0x0",
        "input": "0x095ea7b3000000000000000000000000c9071dff211985709be04ba7fb0abcba82e609dc00000000000000000000000000000000000000000000000003e2c284391c0000",
        "nonce": "0xad",
        "chainId": "0x1"
      },
      "additionalContracts": [],
      "isFixedGasLimit": false
    },
    {
      "hash": "0x63a3d0fb92c0dbd297a19a6cf5884aba4d5d61ee650830d44de4b7723040a659",
      "transactionType": "CALL",
      "contractName": null,
      "contractAddress": "0xc9071dff211985709be04ba7fb0abcba82e609dc",
      "function": "approve(address,uint256)",
      "arguments": [
        "0xC02aaA39b223FE8D0A0e5C4F27eAD9083C756Cc2",
        "280000000000000000"
      ],
      "transaction": {
        "from": "0xea78d8595ab0127c283297af373a8f5ce7288bb0",
        "to": "0xc9071dff211985709be04ba7fb0abcba82e609dc",
        "gas": "0xabb1",
        "value": "0x0",
        "input": "0x095ea7b3000000000000000000000000c02aaa39b223fe8d0a0e5c4f27ead9083c756cc200000000000000000000000000000000000000000000000003e2c284391c0000",
        "nonce": "0xae",
        "chainId": "0x1"
      },
      "additionalContracts": [],
      "isFixedGasLimit": false
    },
    {
      "hash": null,
      "transactionType": "CALL",
      "contractName": "BatchMinter",
      "contractAddress": "0x4a6078ec708af26b64fa4418d3b37e41b05bcc1c",
      "function": "batchMint(address[],uint256[])",
      "arguments": [
        "[0x93a8f0E3b2103F2DeeA8EcefD86701b41b7810eA, 0xE32d43a933Ed31965BacDC7Ba447175f299C7629, 0x21893402F39eD825777cD90dc69E1eaa592E08d2, 0xF1Ac5401A7e3bfa43bB7C7fd35d2E5C5b2ef26e3, 0x9fCfE70EF948B624b56Ff0258a7983A6BD32deE4, 0x4930fF225799eE51238B3dF04F3514087BC0DA02, 0xAb04Bdab9B5Dc0aD04d4809D500C19C822272b84, 0xD6eCA8F0Bb5ca0Aff56cB972D34bACF589eec834, 0x369A058B4a7343ce67BEbe2bfeb5eaB61FA50DE8, 0x12736710E5FB0367239caF88CdaDF8026221b959, 0xe65F48d43e3DDD43d3e3CbD59AF9cA2Bacbb84e1, 0x8b2e67d17CE9aEc4d51bb690c632dcBF4DE6C68a, 0xCA1685e45198c37ea5B29579320DaF34d528EbbE, 0x90b1916F693727129cbEEd3c511c5fB3359D8614, 0x14aC1795916b1242DDb8bD9b09859f7B4af678b4, 0x6FF8Aed4F0d88Bf3Ac968E02C0A2041c6652b9Bb, 0xa127f6D2233DAE96066EE8eCC8a09b0a2C782FDF, 0xB9D2a9C29BC2259A1dab70a8D56A3053b95A4904, 0xAFef03aaBc2727226a5C78f8ef34078f857C5eC0, 0x16Df5093A1393336C2Ef81A48aE37c76bB69Ce37, 0xADa77b932375a2db6e084DbeedEcD6008fC11b01, 0x65377F1f4F067A468D9A99cfe5A2D2078097Fb8E, 0x3213D3a004A7721b694266A93C8033F461139099, 0x2b7e70bC81566B23F9Ab5d7fB85EB723eA793ad6, 0xDFfD4F0747E4CC055973e07CCF34610eE9f507a5, 0xd127Fbe6415e406a14eBB2A2Ed431d5EaCc8ba2f, 0x47a79d2395AF93D4f0b43167b0E22E2AfaDC3F73, 0xa1Cb11B8eCA1Ce978a8F4E68ed205E1179cc0606]",
        "[10000000000000000, 10000000000000000, 10000000000000000, 10000000000000000, 10000000000000000, 10000000000000000, 10000000000000000, 10000000000000000, 10000000000000000, 10000000000000000, 10000000000000000, 10000000000000000, 10000000000000000, 10000000000000000, 10000000000000000, 10000000000000000, 10000000000000000, 10000000000000000, 10000000000000000, 10000000000000000, 10000000000000000, 10000000000000000, 10000000000000000, 10000000000000000, 10000000000000000, 10000000000000000, 10000000000000000, 10000000000000000]"
      ],
      "transaction": {
        "from": "0xea78d8595ab0127c283297af373a8f5ce7288bb0",
        "to": "0x4a6078ec708af26b64fa4418d3b37e41b05bcc1c",
        "gas": "0x65cc13",
        "value": "0x0",
        "input": "0x68573107000000000000000000000000000000000000000000000000000000000000004000000000000000000000000000000000000000000000000000000000000003e0000000000000000000000000000000000000000000000000000000000000001c00000000000000000000000093a8f0e3b2103f2deea8ecefd86701b41b7810ea000000000000000000000000e32d43a933ed31965bacdc7ba447175f299c762900000000000000000000000021893402f39ed825777cd90dc69e1eaa592e08d2000000000000000000000000f1ac5401a7e3bfa43bb7c7fd35d2e5c5b2ef26e30000000000000000000000009fcfe70ef948b624b56ff0258a7983a6bd32dee40000000000000000000000004930ff225799ee51238b3df04f3514087bc0da02000000000000000000000000ab04bdab9b5dc0ad04d4809d500c19c822272b84000000000000000000000000d6eca8f0bb5ca0aff56cb972d34bacf589eec834000000000000000000000000369a058b4a7343ce67bebe2bfeb5eab61fa50de800000000000000000000000012736710e5fb0367239caf88cdadf8026221b959000000000000000000000000e65f48d43e3ddd43d3e3cbd59af9ca2bacbb84e10000000000000000000000008b2e67d17ce9aec4d51bb690c632dcbf4de6c68a000000000000000000000000ca1685e45198c37ea5b29579320daf34d528ebbe00000000000000000000000090b1916f693727129cbeed3c511c5fb3359d861400000000000000000000000014ac1795916b1242ddb8bd9b09859f7b4af678b40000000000000000000000006ff8aed4f0d88bf3ac968e02c0a2041c6652b9bb000000000000000000000000a127f6d2233dae96066ee8ecc8a09b0a2c782fdf000000000000000000000000b9d2a9c29bc2259a1dab70a8d56a3053b95a4904000000000000000000000000afef03aabc2727226a5c78f8ef34078f857c5ec000000000000000000000000016df5093a1393336c2ef81a48ae37c76bb69ce37000000000000000000000000ada77b932375a2db6e084dbeedecd6008fc11b0100000000000000000000000065377f1f4f067a468d9a99cfe5a2d2078097fb8e0000000000000000000000003213d3a004a7721b694266a93c8033f4611390990000000000000000000000002b7e70bc81566b23f9ab5d7fb85eb723ea793ad6000000000000000000000000dffd4f0747e4cc055973e07ccf34610ee9f507a5000000000000000000000000d127fbe6415e406a14ebb2a2ed431d5eacc8ba2f00000000000000000000000047a79d2395af93d4f0b43167b0e22e2afadc3f73000000000000000000000000a1cb11b8eca1ce978a8f4e68ed205e1179cc0606000000000000000000000000000000000000000000000000000000000000001c000000000000000000000000000000000000000000000000002386f26fc10000000000000000000000000000000000000000000000000000002386f26fc10000000000000000000000000000000000000000000000000000002386f26fc10000000000000000000000000000000000000000000000000000002386f26fc10000000000000000000000000000000000000000000000000000002386f26fc10000000000000000000000000000000000000000000000000000002386f26fc10000000000000000000000000000000000000000000000000000002386f26fc10000000000000000000000000000000000000000000000000000002386f26fc10000000000000000000000000000000000000000000000000000002386f26fc10000000000000000000000000000000000000000000000000000002386f26fc10000000000000000000000000000000000000000000000000000002386f26fc10000000000000000000000000000000000000000000000000000002386f26fc10000000000000000000000000000000000000000000000000000002386f26fc10000000000000000000000000000000000000000000000000000002386f26fc10000000000000000000000000000000000000000000000000000002386f26fc10000000000000000000000000000000000000000000000000000002386f26fc10000000000000000000000000000000000000000000000000000002386f26fc10000000000000000000000000000000000000000000000000000002386f26fc10000000000000000000000000000000000000000000000000000002386f26fc10000000000000000000000000000000000000000000000000000002386f26fc10000000000000000000000000000000000000000000000000000002386f26fc10000000000000000000000000000000000000000000000000000002386f26fc10000000000000000000000000000000000000000000000000000002386f26fc10000000000000000000000000000000000000000000000000000002386f26fc10000000000000000000000000000000000000000000000000000002386f26fc10000000000000000000000000000000000000000000000000000002386f26fc10000000000000000000000000000000000000000000000000000002386f26fc10000000000000000000000000000000000000000000000000000002386f26fc10000",
        "nonce": "0xaf",
        "chainId": "0x1"
      },
      "additionalContracts": [],
      "isFixedGasLimit": false
    }
  ],
  "receipts": [],
  "libraries": [],
  "pending": [
    "0xce23f975520f9e715c928b598bb25c38544def38bf698f572fc70ae542453b8c",
    "0xfa1c9c14374e2c22725bdb763ecbe87801605707a0f81c6bc29cdcca2ef4e5ed",
    "0x63a3d0fb92c0dbd297a19a6cf5884aba4d5d61ee650830d44de4b7723040a659"
  ],
  "returns": {},
  "timestamp": 1769798268940,
  "chain": 1,
  "commit": null
}