{
  "transactions": [
    {
      "hash": "0x61b16d7ac69f9220c285902ad995f31cab7508da7ac4861ee9b9949c5f1e23d6",
      "transactionType": "CREATE",
      "contractName": "BatchMinter",
      "contractAddress": "0x4ae3f9116adccbba2024e8c7f1b00b0ad9dc81e0",
      "function": null,
      "arguments": null,
      "transaction": {
        "from": "0xea78d8595ab0127c283297af373a8f5ce7288bb0",
        "gas": "0x48db6",
        "value": "0x0",
        "input": "0x60808060405234601557610330908161001a8239f35b5f80fdfe60806040526004361015610011575f80fd5b5f3560e01c8063685731071461009f5763f62d89ac1461002f575f80fd5b3461009b57602036600319011261009b5760043567ffffffffffffffff811161009b576100609036906004016100fe565b5f9182915b80841061007757602083604051908152f35b909161009160019161008a86858761012f565b3590610167565b9301929190610065565b5f80fd5b3461009b57604036600319011261009b5760043567ffffffffffffffff811161009b576100d09036906004016100fe565b6024359167ffffffffffffffff831161009b576100f46100fc9336906004016100fe565b929091610188565b005b9181601f8401121561009b5782359167ffffffffffffffff831161009b576020808501948460051b01011161009b57565b919081101561013f5760051b0190565b634e487b7160e01b5f52603260045260245ffd5b356001600160a01b038116810361009b5790565b9190820180921161017457565b634e487b7160e01b5f52601160045260245ffd5b929190928284036102eb5783156102e55791905f925f925b8584106101de575050505060405191825260208201527f611f26bf2585849cbf69943da0d36aa65af0e05243c378f900b524f05e6c84b260403392a2565b9293919290916001600160a01b036101ff6101fa87898761012f565b610153565b16156102d65761021085838661012f565b35156102c7576102259061008a86848761012f565b936001600160a01b0361023c6101fa83898761012f565b169061024981848761012f565b35823b1561009b575f926044849260405195869384926340c10f1960e01b845233600485015260248401525af180156102bc5761028e575b60019150019291906101a0565b67ffffffffffffffff82116102a857600191604052610281565b634e487b7160e01b5f52604160045260245ffd5b6040513d5f823e3d90fd5b631f2a200560e01b5f5260045ffd5b63d92e233d60e01b5f5260045ffd5b50505050565b63512509d360e11b5f5260045ffdfea26469706673582212209b6120cdf9a12e8785307a99ea630fbebfb928ee7b53e16359c702d50c4c653964736f6c63430008210033",
        "nonce": "0xb8",
        "chainId": "0x1"
      },
      "additionalContracts": [],
      "isFixedGasLimit": false
    },
    {
      "hash": "0x4978be989b46b2b4c1a2de8efe1d51abbc57af7f6654924ef2e077b084668f3b",
      "transactionType": "CALL",
      "contractName": null,
      "contractAddress": "0xa0b86991c6218b36c1d19d4a2e9eb0ce3606eb48",
      "function": "approve(address,uint256)",
      "arguments": [
        "0xC9071DFF211985709Be04Ba7FB0ABCBA82E609DC",
        "2700000"
      ],
      "transaction": {
        "from": "0xea78d8595ab0127c283297af373a8f5ce7288bb0",
        "to": "0xa0b86991c6218b36c1d19d4a2e9eb0ce3606eb48",
        "gas": "0xdbb4",
        "value": "0x0",
        "input": "0x095ea7b3000000000000000000000000c9071dff211985709be04ba7fb0abcba82e609dc00000000000000000000000000000000000000000000000000000000002932e0",
        "nonce": "0xb9",
        "chainId": "0x1"
      },
      "additionalContracts": [],
      "isFixedGasLimit": false
    },
    {
      "hash": "0xf3b9801c91c1c3fd9d40803b7d04532673ef26000f5a764fe6e2a333d65d39ad",
      "transactionType": "CALL",
      "contractName": null,
      "contractAddress": "0xc9071dff211985709be04ba7fb0abcba82e609dc",
      "function": "approve(address,uint256)",
      "arguments": [
        "0xA0b86991c6218b36c1d19D4a2e9Eb0cE3606eB48",
        "2700000"
      ],
      "transaction": {
        "from": "0xea78d8595ab0127c283297af373a8f5ce7288bb0",
        "to": "0xc9071dff211985709be04ba7fb0abcba82e609dc",
        "gas": "0xb596",
        "value": "0x0",
        "input": "0x095ea7b3000000000000000000000000a0b86991c6218b36c1d19d4a2e9eb0ce3606eb4800000000000000000000000000000000000000000000000000000000002932e0",
        "nonce": "0xba",
        "chainId": "0x1"
      },
      "additionalContracts": [],
      "isFixedGasLimit": false
    },
    {
      "hash": "0xd7fd8bd3f04dfbe9a66e40aff153926fc39be0e463fb1d9c62c3f8228885a659",
      "transactionType": "CALL",
      "contractName": "BatchMinter",
      "contractAddress": "0x4ae3f9116adccbba2024e8c7f1b00b0ad9dc81e0",
      "function": "batchMint(address[],uint256[])",
      "arguments": [
        "[0xa59feE2E6e08bBC8c88CE993947B025C76c62322, 0x1284055731C6c4e1C9938247beF2EeB0e2243B03, 0xAb68adD4fB153b34eFe05c589d20AcDdE746a1d7, 0xEd4D155D5279dE57F4ef8Af7Ed3252B3a4332e0C, 0x0E89952c517D9b50785104E1ea6F41e8c6eDf3bB, 0x32493Abed345930ad3dd412F37053173526Fb6a2, 0x7113E90B610B627B5610FA51298b3C6A71710052, 0xF9e9D60e0C21241bd92a2Ea337Ba52B0253b6E15, 0xA960E2e51c9eA5EF14947d453434c1f0aF69B428, 0x71e206538669aAaee34470b396fE4a8aed0eD827, 0x535a7d3Fa2E6Ba047328de6bFbfa9994fbA5FBB8, 0xb4e12A5E63eD2E2102DEA83a362255F4541797C4, 0xd3a6147DcaD93a59863d5e0f5C68A731d263e62c, 0xDCeA8Bc8D1b962EaeAc194D8Ea7d349B10B52F7C, 0xA3bbe582c23b9F33a00ddbF80F4fcAE34A79d822, 0x55f14B4Ddd6463CF1B616CCC4E032b4F4CeE590C, 0xC1aFbB0C0d099f670B966DBc411bd154f76874a3, 0xa91c51B760Ef567AACbf62C68a2ABD7F516302Bd, 0xF1e57e10416dE5a88EF8F9c5Ca3c2aFdb324aEf9, 0x3C2A3212fE0C0D5DDdC1d874EB944C30153e0a20, 0xeE56D9576D50A3699975d105b006c201BA4a84Cd, 0x34A9fCD095413Fd0fe8b36b4432Fc40D5B6cc7A4, 0x91Fd0C60459e263D1faccbE0019106A795F3ffa5, 0x38880B43b387CB509BA892423B0862ebD793D38C, 0xeDE9e917280e5BCf5270D9ae85578Dd7b10AEE05, 0xe106ED8aCF41C8007fe86633a642c25e3789D058, 0x5D191Ff8c608702Afcc18E57e37D5115b8396770]",
        "[100000, 100000, 100000, 100000, 100000, 100000, 100000, 100000, 100000, 100000, 100000, 100000, 100000, 100000, 100000, 100000, 100000, 100000, 100000, 100000, 100000, 100000, 100000, 100000, 100000, 100000, 100000]"
      ],
      "transaction": {
        "from": "0xea78d8595ab0127c283297af373a8f5ce7288bb0",
        "to": "0x4ae3f9116adccbba2024e8c7f1b00b0ad9dc81e0",
        "gas": "0x657cd4",
        "value": "0x0",
        "input": "0x68573107000000000000000000000000000000000000000000000000000000000000004000000000000000000000000000000000000000000000000000000000000003c0000000000000000000000000000000000000000000000000000000000000001b000000000000000000000000a59fee2e6e08bbc8c88ce993947b025c76c623220000000000000000000000001284055731c6c4e1c9938247bef2eeb0e2243b03000000000000000000000000ab68add4fb153b34efe05c589d20acdde746a1d7000000000000000000000000ed4d155d5279de57f4ef8af7ed3252b3a4332e0c0000000000000000000000000e89952c517d9b50785104e1ea6f41e8c6edf3bb00000000000000000000000032493abed345930ad3dd412f37053173526fb6a20000000000000000000000007113e90b610b627b5610fa51298b3c6a71710052000000000000000000000000f9e9d60e0c21241bd92a2ea337ba52b0253b6e15000000000000000000000000a960e2e51c9ea5ef14947d453434c1f0af69b42800000000000000000000000071e206538669aaaee34470b396fe4a8aed0ed827000000000000000000000000535a7d3fa2e6ba047328de6bfbfa9994fba5fbb8000000000000000000000000b4e12a5e63ed2e2102dea83a362255f4541797c4000000000000000000000000d3a6147dcad93a59863d5e0f5c68a731d263e62c000000000000000000000000dcea8bc8d1b962eaeac194d8ea7d349b10b52f7c000000000000000000000000a3bbe582c23b9f33a00ddbf80f4fcae34a79d82200000000000000000000000055f14b4ddd6463cf1b616ccc4e032b4f4cee590c000000000000000000000000c1afbb0c0d099f670b966dbc411bd154f76874a3000000000000000000000000a91c51b760ef567aacbf62c68a2abd7f516302bd000000000000000000000000f1e57e10416de5a88ef8f9c5ca3c2afdb324aef90000000000000000000000003c2a3212fe0c0d5dddc1d874eb944c30153e0a20000000000000000000000000ee56d9576d50a3699975d105b006c201ba4a84cd00000000000000000000000034a9fcd095413fd0fe8b36b4432fc40d5b6cc7a400000000000000000000000091fd0c60459e263d1faccbe0019106a795f3ffa500000000000000000000000038880b43b387cb509ba892423b0862ebd793d38c000000000000000000000000ede9e917280e5bcf5270d9ae85578dd7b10aee05000000000000000000000000e106ed8acf41c8007fe86633a642c25e3789d0580000000000000000000000005d191ff8c608702afcc18e57e37d5115b8396770000000000000000000000000000000000000000000000000000000000000001b00000000000000000000000000000000000000000000000000000000000186a000000000000000000000000000000000000000000000000000000000000186a000000000000000000000000000000000000000000000000000000000000186a000000000000000000000000000000000000000000000000000000000000186a000000000000000000000000000000000000000000000000000000000000186a000000000000000000000000000000000000000000000000000000000000186a000000000000000000000000000000000000000000000000000000000000186a000000000000000000000000000000000000000000000000000000000000186a000000000000000000000000000000000000000000000000000000000000186a000000000000000000000000000000000000000000000000000000000000186a000000000000000000000000000000000000000000000000000000000000186a000000000000000000000000000000000000000000000000000000000000186a000000000000000000000000000000000000000000000000000000000000186a000000000000000000000000000000000000000000000000000000000000186a000000000000000000000000000000000000000000000000000000000000186a000000000000000000000000000000000000000000000000000000000000186a000000000000000000000000000000000000000000000000000000000000186a000000000000000000000000000000000000000000000000000000000000186a000000000000000000000000000000000000000000000000000000000000186a000000000000000000000000000000000000000000000000000000000000186a000000000000000000000000000000000000000000000000000000000000186a000000000000000000000000000000000000000000000000000000000000186a000000000000000000000000000000000000000000000000000000000000186a000000000000000000000000000000000000000000000000000000000000186a000000000000000000000000000000000000000000000000000000000000186a000000000000000000000000000000000000000000000000000000000000186a000000000000000000000000000000000000000000000000000000000000186a0",
        "nonce": "0xbb",
        "chainId": "0x1"
      },
      "additionalContracts": [],
      "isFixedGasLimit": false
    }
  ],
  "receipts": [
    {
      "status": "0x1",
      "cumulativeGasUsed": "0xfb814a",
      "logs": [],
      "logsBloom": "0x00000000000000000000000000000000000000000000000000000000000000000000000000000000000000000000000000000000000000000000000000000000000000000000000000000000000000000000000000000000000000000000000000000000000000000000000000000000000000000000000000000000000000000000000000000000000000000000000000000000000000000000000000000000000000000000000000000000000000000000000000000000000000000000000000000000000000000000000000000000000000000000000000000000000000000000000000000000000000000000000000000000000000000000000000000000",
      "type": "0x2",
      "transactionHash": "0xd7fd8bd3f04dfbe9a66e40aff153926fc39be0e463fb1d9c62c3f8228885a659",
      "transactionIndex": "0x7f",
      "blockHash": "0x421f7e6d3e8352533115e9c9069c828f0fc3eb9509b16139d8a003565c6d5aba",
      "blockNumber": "0x1738e48",
      "gasUsed": "0x380b4",
      "effectiveGasPrice": "0x57da945e",
      "from": "0xea78d8595ab0127c283297af373a8f5ce7288bb0",
      "to": null,
      "contractAddress": "0x4ae3f9116adccbba2024e8c7f1b00b0ad9dc81e0"
    },
    {
      "status": "0x1",
      "cumulativeGasUsed": "0x1089b4f",
      "logs": [
        {
          "address": "0xa0b86991c6218b36c1d19d4a2e9eb0ce3606eb48",
          "topics": [
            "0x8c5be1e5ebec7d5bd14f71427d1e84f3dd0314c0f7b2291e5b200ac8c7c3b925",
            "0x000000000000000000000000ea78d8595ab0127c283297af373a8f5ce7288bb0",
            "0x000000000000000000000000c9071dff211985709be04ba7fb0abcba82e609dc"
          ],
          "data": "0x00000000000000000000000000000000000000000000000000000000002932e0",
          "blockHash": "0x421f7e6d3e8352533115e9c9069c828f0fc3eb9509b16139d8a003565c6d5aba",
          "blockNumber": "0x1738e48",
          "blockTimestamp": "0x697d1e27",
          "transactionHash": "0x61b16d7ac69f9220c285902ad995f31cab7508da7ac4861ee9b9949c5f1e23d6",
          "transactionIndex": "0x89",
          "logIndex": "0x17c",
          "removed": false
        }
      ],
      "logsBloom": "0x00000000000000000000000000000000000000000000000000000000000000000000000000000000010000000000000000000000000000000000000000200000000000000000000008000000000000000000000000000000000000000000000000000400000000000000000000000000000000000000000000000000000000000000000000004000000000000000000000000000010000000000000000000000020000000000200000000000004000000000000000000800000000000000000000000000000000000000000000000400000000000000000000000000000000000010000000000000000000000000000000000000000000000000000000000000",
      "type": "0x2",
      "transactionHash": "0x61b16d7ac69f9220c285902ad995f31cab7508da7ac4861ee9b9949c5f1e23d6",
      "transactionIndex": "0x89",
      "blockHash": "0x421f7e6d3e8352533115e9c9069c828f0fc3eb9509b16139d8a003565c6d5aba",
      "blockNumber": "0x1738e48",
      "gasUsed": "0x963a",
      "effectiveGasPrice": "0x57da945e",
      "from": "0xea78d8595ab0127c283297af373a8f5ce7288bb0",
      "to": "0xa0b86991c6218b36c1d19d4a2e9eb0ce3606eb48",
      "contractAddress": null
    },
    {
      "status": "0x1",
      "cumulativeGasUsed": "0x142ed9c",
      "logs": [],
      "logsBloom": "0x00000000000000000000000000000000000000000000000000000000000000000000000000000000000000000000000000000000000000000000000000000000000000000000000000000000000000000000000000000000000000000000000000000000000000000000000000000000000000000000000000000000000000000000000000000000000000000000000000000000000000000000000000000000000000000000000000000000000000000000000000000000000000000000000000000000000000000000000000000000000000000000000000000000000000000000000000000000000000000000000000000000000000000000000000000000",
      "type": "0x2",
      "transactionHash": "0xf3b9801c91c1c3fd9d40803b7d04532673ef26000f5a764fe6e2a333d65d39ad",
      "transactionIndex": "0xfa",
      "blockHash": "0x056a2594925bbed2f5e7796d4f58ac3fa65b3af567a5608056ef13c1f5622c6c",
      "blockNumber": "0x1738e49",
      "gasUsed": "0x7c2a",
      "effectiveGasPrice": "0x592bebcd",
      "from": "0xea78d8595ab0127c283297af373a8f5ce7288bb0",
      "to": "0xc9071dff211985709be04ba7fb0abcba82e609dc",
      "contractAddress": null
    },
    {
      "status": "0x1",
      "cumulativeGasUsed": "0xbf898d",
      "logs": [
        {
          "address": "0xa0b86991c6218b36c1d19d4a2e9eb0ce3606eb48",
          "topics": [
            "0xddf252ad1be2c89b69c2b068fc378daa952ba7f163c4a11628f55a4df523b3ef",
            "0x000000000000000000000000ea78d8595ab0127c283297af373a8f5ce7288bb0",
            "0x000000000000000000000000c816fd6884caa7a28849da4a9bbaebeb14be2cb2"
          ],
          "data": "0x00000000000000000000000000000000000000000000000000000000000186a0",
          "blockHash": "0x99fafbbdbf666178b1d5860a6bda81b9e834af79d4de56e8bbb21559a1d4af83",
          "blockNumber": "0x1738e4a",
          "blockTimestamp": "0x697d1e3f",
          "transactionHash": "0x4978be989b46b2b4c1a2de8efe1d51abbc57af7f6654924ef2e077b084668f3b",
          "transactionIndex": "0x23",
          "logIndex": "0xa7",
          "removed": false
        },
        {
          "address": "0xc816fd6884caa7a28849da4a9bbaebeb14be2cb2",
          "topics": [
            "0xddf252ad1be2c89b69c2b068fc378daa952ba7f163c4a11628f55a4df523b3ef",
            "0x0000000000000000000000000000000000000000000000000000000000000000",
            "0x000000000000000000000000ea78d8595ab0127c283297af373a8f5ce7288bb0"
          ],
          "data": "0x0000000000000000000000000000000000000000000000000000000000018696",
          "blockHash": "0x99fafbbdbf666178b1d5860a6bda81b9e834af79d4de56e8bbb21559a1d4af83",
          "blockNumber": "0x1738e4a",
          "blockTimestamp": "0x697d1e3f",
          "transactionHash": "0x4978be989b46b2b4c1a2de8efe1d51abbc57af7f6654924ef2e077b084668f3b",
          "transactionIndex": "0x23",
          "logIndex": "0xa8",
          "removed": false
        },
        {
          "address": "0xa59fee2e6e08bbc8c88ce993947b025c76c62322",
          "topics": [
            "0xddf252ad1be2c89b69c2b068fc378daa952ba7f163c4a11628f55a4df523b3ef",
            "0x0000000000000000000000000000000000000000000000000000000000000000",
            "0x000000000000000000000000ea78d8595ab0127c283297af373a8f5ce7288bb0"
          ],
          "data": "0x0000000000000000000000000000000000000000000000000000000000018696",
          "blockHash": "0x99fafbbdbf666178b1d5860a6bda81b9e834af79d4de56e8bbb21559a1d4af83",
          "blockNumber": "0x1738e4a",
          "blockTimestamp": "0x697d1e3f",
          "transactionHash": "0x4978be989b46b2b4c1a2de8efe1d51abbc57af7f6654924ef2e077b084668f3b",
          "transactionIndex": "0x23",
          "logIndex": "0xa9",
          "removed": false
        },
        {
          "address": "0xa59fee2e6e08bbc8c88ce993947b025c76c62322",
          "topics": [
            "0xab8530f87dc9b59234c4623bf917212bb2536d647574c8e7e5da92c2ede0c9f8"
          ],
          "data": "0x000000000000000000000000a59fee2e6e08bbc8c88ce993947b025c76c62322000000000000000000000000ea78d8595ab0127c283297af373a8f5ce7288bb00000000000000000000000000000000000000000000000000000000000018696",
          "blockHash": "0x99fafbbdbf666178b1d5860a6bda81b9e834af79d4de56e8bbb21559a1d4af83",
          "blockNumber": "0x1738e4a",
          "blockTimestamp": "0x697d1e3f",
          "transactionHash": "0x4978be989b46b2b4c1a2de8efe1d51abbc57af7f6654924ef2e077b084668f3b",
          "transactionIndex": "0x23",
          "logIndex": "0xaa",
          "removed": false
        },
        {
          "address": "0xa0b86991c6218b36c1d19d4a2e9eb0ce3606eb48",
          "topics": [
            "0xddf252ad1be2c89b69c2b068fc378daa952ba7f163c4a11628f55a4df523b3ef",
            "0x000000000000000000000000ea78d8595ab0127c283297af373a8f5ce7288bb0",
            "0x000000000000000000000000f050ee063d37bdedfdb836ac0b35ccd2950fd811"
          ],
          "data": "0x00000000000000000000000000000000000000000000000000000000000186a0",
          "blockHash": "0x99fafbbdbf666178b1d5860a6bda81b9e834af79d4de56e8bbb21559a1d4af83",
          "blockNumber": "0x1738e4a",
          "blockTimestamp": "0x697d1e3f",
          "transactionHash": "0x4978be989b46b2b4c1a2de8efe1d51abbc57af7f6654924ef2e077b084668f3b",
          "transactionIndex": "0x23",
          "logIndex": "0xab",
          "removed": false
        },
        {
          "address": "0xf050ee063d37bdedfdb836ac0b35ccd2950fd811",
          "topics": [
            "0xddf252ad1be2c89b69c2b068fc378daa952ba7f163c4a11628f55a4df523b3ef",
            "0x0000000000000000000000000000000000000000000000000000000000000000",
            "0x000000000000000000000000ea78d8595ab0127c283297af373a8f5ce7288bb0"
          ],
          "data": "0x0000000000000000000000000000000000000000000000000000000000018696",
          "blockHash": "0x99fafbbdbf666178b1d5860a6bda81b9e834af79d4de56e8bbb21559a1d4af83",
          "blockNumber": "0x1738e4a",
          "blockTimestamp": "0x697d1e3f",
          "transactionHash": "0x4978be989b46b2b4c1a2de8efe1d51abbc57af7f6654924ef2e077b084668f3b",
          "transactionIndex": "0x23",
          "logIndex": "0xac",
          "removed": false
        },
        {
          "address": "0x1284055731c6c4e1c9938247bef2eeb0e2243b03",
          "topics": [
            "0xddf252ad1be2c89b69c2b068fc378daa952ba7f163c4a11628f55a4df523b3ef",
            "0x0000000000000000000000000000000000000000000000000000000000000000",
            "0x000000000000000000000000ea78d8595ab0127c283297af373a8f5ce7288bb0"
          ],
          "data": "0x0000000000000000000000000000000000000000000000000000000000018696",
          "blockHash": "0x99fafbbdbf666178b1d5860a6bda81b9e834af79d4de56e8bbb21559a1d4af83",
          "blockNumber": "0x1738e4a",
          "blockTimestamp": "0x697d1e3f",
          "transactionHash": "0x4978be989b46b2b4c1a2de8efe1d51abbc57af7f6654924ef2e077b084668f3b",
          "transactionIndex": "0x23",
          "logIndex": "0xad",
          "removed": false
        },
        {
          "address": "0x1284055731c6c4e1c9938247bef2eeb0e2243b03",
          "topics": [
            "0xab8530f87dc9b59234c4623bf917212bb2536d647574c8e7e5da92c2ede0c9f8"
          ],
          "data": "0x0000000000000000000000001284055731c6c4e1c9938247bef2eeb0e2243b03000000000000000000000000ea78d8595ab0127c283297af373a8f5ce7288bb00000000000000000000000000000000000000000000000000000000000018696",
          "blockHash": "0x99fafbbdbf666178b1d5860a6bda81b9e834af79d4de56e8bbb21559a1d4af83",
          "blockNumber": "0x1738e4a",
          "blockTimestamp": "0x697d1e3f",
          "transactionHash": "0x4978be989b46b2b4c1a2de8efe1d51abbc57af7f6654924ef2e077b084668f3b",
          "transactionIndex": "0x23",
          "logIndex": "0xae",
          "removed": false
        },
        {
          "address": "0xa0b86991c6218b36c1d19d4a2e9eb0ce3606eb48",
          "topics": [
            "0xddf252ad1be2c89b69c2b068fc378daa952ba7f163c4a11628f55a4df523b3ef",
            "0x000000000000000000000000ea78d8595ab0127c283297af373a8f5ce7288bb0",
            "0x000000000000000000000000477606ad8267023d82dcca388250399e0e11f5b2"
          ],
          "data": "0x00000000000000000000000000000000000000000000000000000000000186a0",
          "blockHash": "0x99fafbbdbf666178b1d5860a6bda81b9e834af79d4de56e8bbb21559a1d4af83",
          "blockNumber": "0x1738e4a",
          "blockTimestamp": "0x697d1e3f",
          "transactionHash": "0x4978be989b46b2b4c1a2de8efe1d51abbc57af7f6654924ef2e077b084668f3b",
          "transactionIndex": "0x23",
          "logIndex": "0xaf",
          "removed": false
        },
        {
          "address": "0x477606ad8267023d82dcca388250399e0e11f5b2",
          "topics": [
            "0xddf252ad1be2c89b69c2b068fc378daa952ba7f163c4a11628f55a4df523b3ef",
            "0x0000000000000000000000000000000000000000000000000000000000000000",
            "0x000000000000000000000000ea78d8595ab0127c283297af373a8f5ce7288bb0"
          ],
          "data": "0x0000000000000000000000000000000000000000000000000000000000018696",
          "blockHash": "0x99fafbbdbf666178b1d5860a6bda81b9e834af79d4de56e8bbb21559a1d4af83",
          "blockNumber": "0x1738e4a",
          "blockTimestamp": "0x697d1e3f",
          "transactionHash": "0x4978be989b46b2b4c1a2de8efe1d51abbc57af7f6654924ef2e077b084668f3b",
          "transactionIndex": "0x23",
          "logIndex": "0xb0",
          "removed": false
        },
        {
          "address": "0xab68add4fb153b34efe05c589d20acdde746a1d7",
          "topics": [
            "0xddf252ad1be2c89b69c2b068fc378daa952ba7f163c4a11628f55a4df523b3ef",
            "0x0000000000000000000000000000000000000000000000000000000000000000",
            "0x000000000000000000000000ea78d8595ab0127c283297af373a8f5ce7288bb0"
          ],
          "data": "0x0000000000000000000000000000000000000000000000000000000000018696",
          "blockHash": "0x99fafbbdbf666178b1d5860a6bda81b9e834af79d4de56e8bbb21559a1d4af83",
          "blockNumber": "0x1738e4a",
          "blockTimestamp": "0x697d1e3f",
          "transactionHash": "0x4978be989b46b2b4c1a2de8efe1d51abbc57af7f6654924ef2e077b084668f3b",
          "transactionIndex": "0x23",
          "logIndex": "0xb1",
          "removed": false
        },
        {
          "address": "0xab68add4fb153b34efe05c589d20acdde746a1d7",
          "topics": [
            "0xab8530f87dc9b59234c4623bf917212bb2536d647574c8e7e5da92c2ede0c9f8"
          ],
          "data": "0x000000000000000000000000ab68add4fb153b34efe05c589d20acdde746a1d7000000000000000000000000ea78d8595ab0127c283297af373a8f5ce7288bb00000000000000000000000000000000000000000000000000000000000018696",
          "blockHash": "0x99fafbbdbf666178b1d5860a6bda81b9e834af79d4de56e8bbb21559a1d4af83",
          "blockNumber": "0x1738e4a",
          "blockTimestamp": "0x697d1e3f",
          "transactionHash": "0x4978be989b46b2b4c1a2de8efe1d51abbc57af7f6654924ef2e077b084668f3b",
          "transactionIndex": "0x23",
          "logIndex": "0xb2",
          "removed": false
        },
        {
          "address": "0xa0b86991c6218b36c1d19d4a2e9eb0ce3606eb48",
          "topics": [
            "0xddf252ad1be2c89b69c2b068fc378daa952ba7f163c4a11628f55a4df523b3ef",
            "0x000000000000000000000000ea78d8595ab0127c283297af373a8f5ce7288bb0",
            "0x0000000000000000000000001905da3b0f717b3a707893eb9d31638ac63c806b"
          ],
          "data": "0x00000000000000000000000000000000000000000000000000000000000186a0",
          "blockHash": "0x99fafbbdbf666178b1d5860a6bda81b9e834af79d4de56e8bbb21559a1d4af83",
          "blockNumber": "0x1738e4a",
          "blockTimestamp": "0x697d1e3f",
          "transactionHash": "0x4978be989b46b2b4c1a2de8efe1d51abbc57af7f6654924ef2e077b084668f3b",
          "transactionIndex": "0x23",
          "logIndex": "0xb3",
          "removed": false
        },
        {
          "address": "0x1905da3b0f717b3a707893eb9d31638ac63c806b",
          "topics": [
            "0xddf252ad1be2c89b69c2b068fc378daa952ba7f163c4a11628f55a4df523b3ef",
            "0x0000000000000000000000000000000000000000000000000000000000000000",
            "0x000000000000000000000000ea78d8595ab0127c283297af373a8f5ce7288bb0"
          ],
          "data": "0x0000000000000000000000000000000000000000000000000000000000018696",
          "blockHash": "0x99fafbbdbf666178b1d5860a6bda81b9e834af79d4de56e8bbb21559a1d4af83",
          "blockNumber": "0x1738e4a",
          "blockTimestamp": "0x697d1e3f",
          "transactionHash": "0x4978be989b46b2b4c1a2de8efe1d51abbc57af7f6654924ef2e077b084668f3b",
          "transactionIndex": "0x23",
          "logIndex": "0xb4",
          "removed": false
        },
        {
          "address": "0xed4d155d5279de57f4ef8af7ed3252b3a4332e0c",
          "topics": [
            "0xddf252ad1be2c89b69c2b068fc378daa952ba7f163c4a11628f55a4df523b3ef",
            "0x0000000000000000000000000000000000000000000000000000000000000000",
            "0x000000000000000000000000ea78d8595ab0127c283297af373a8f5ce7288bb0"
          ],
          "data": "0x0000000000000000000000000000000000000000000000000000000000018696",
          "blockHash": "0x99fafbbdbf666178b1d5860a6bda81b9e834af79d4de56e8bbb21559a1d4af83",
          "blockNumber": "0x1738e4a",
          "blockTimestamp": "0x697d1e3f",
          "transactionHash": "0x4978be989b46b2b4c1a2de8efe1d51abbc57af7f6654924ef2e077b084668f3b",
          "transactionIndex": "0x23",
          "logIndex": "0xb5",
          "removed": false
        },
        {
          "address": "0xed4d155d5279de57f4ef8af7ed3252b3a4332e0c",
          "topics": [
            "0xab8530f87dc9b59234c4623bf917212bb2536d647574c8e7e5da92c2ede0c9f8"
          ],
          "data": "0x000000000000000000000000ed4d155d5279de57f4ef8af7ed3252b3a4332e0c000000000000000000000000ea78d8595ab0127c283297af373a8f5ce7288bb00000000000000000000000000000000000000000000000000000000000018696",
          "blockHash": "0x99fafbbdbf666178b1d5860a6bda81b9e834af79d4de56e8bbb21559a1d4af83",
          "blockNumber": "0x1738e4a",
          "blockTimestamp": "0x697d1e3f",
          "transactionHash": "0x4978be989b46b2b4c1a2de8efe1d51abbc57af7f6654924ef2e077b084668f3b",
          "transactionIndex": "0x23",
          "logIndex": "0xb6",
          "removed": false
        },
        {
          "address": "0xa0b86991c6218b36c1d19d4a2e9eb0ce3606eb48",
          "topics": [
            "0xddf252ad1be2c89b69c2b068fc378daa952ba7f163c4a11628f55a4df523b3ef",
            "0x000000000000000000000000ea78d8595ab0127c283297af373a8f5ce7288bb0",
            "0x000000000000000000000000e9027da3be2eed6f01ac455e4292be8be14f8d0a"
          ],
          "data": "0x00000000000000000000000000000000000000000000000000000000000186a0",
          "blockHash": "0x99fafbbdbf666178b1d5860a6bda81b9e834af79d4de56e8bbb21559a1d4af83",
          "blockNumber": "0x1738e4a",
          "blockTimestamp": "0x697d1e3f",
          "transactionHash": "0x4978be989b46b2b4c1a2de8efe1d51abbc57af7f6654924ef2e077b084668f3b",
          "transactionIndex": "0x23",
          "logIndex": "0xb7",
          "removed": false
        },
        {
          "address": "0xe9027da3be2eed6f01ac455e4292be8be14f8d0a",
          "topics": [
            "0xddf252ad1be2c89b69c2b068fc378daa952ba7f163c4a11628f55a4df523b3ef",
            "0x0000000000000000000000000000000000000000000000000000000000000000",
            "0x000000000000000000000000ea78d8595ab0127c283297af373a8f5ce7288bb0"
          ],
          "data": "0x0000000000000000000000000000000000000000000000000000000000018696",
          "blockHash": "0x99fafbbdbf666178b1d5860a6bda81b9e834af79d4de56e8bbb21559a1d4af83",
          "blockNumber": "0x1738e4a",
          "blockTimestamp": "0x697d1e3f",
          "transactionHash": "0x4978be989b46b2b4c1a2de8efe1d51abbc57af7f6654924ef2e077b084668f3b",
          "transactionIndex": "0x23",
          "logIndex": "0xb8",
          "removed": false
        },
        {
          "address": "0x0e89952c517d9b50785104e1ea6f41e8c6edf3bb",
          "topics": [
            "0xddf252ad1be2c89b69c2b068fc378daa952ba7f163c4a11628f55a4df523b3ef",
            "0x0000000000000000000000000000000000000000000000000000000000000000",
            "0x000000000000000000000000ea78d8595ab0127c283297af373a8f5ce7288bb0"
          ],
          "data": "0x0000000000000000000000000000000000000000000000000000000000018696",
          "blockHash": "0x99fafbbdbf666178b1d5860a6bda81b9e834af79d4de56e8bbb21559a1d4af83",
          "blockNumber": "0x1738e4a",
          "blockTimestamp": "0x697d1e3f",
          "transactionHash": "0x4978be989b46b2b4c1a2de8efe1d51abbc57af7f6654924ef2e077b084668f3b",
          "transactionIndex": "0x23",
          "logIndex": "0xb9",
          "removed": false
        },
        {
          "address": "0x0e89952c517d9b50785104e1ea6f41e8c6edf3bb",
          "topics": [
            "0xab8530f87dc9b59234c4623bf917212bb2536d647574c8e7e5da92c2ede0c9f8"
          ],
          "data": "0x0000000000000000000000000e89952c517d9b50785104e1ea6f41e8c6edf3bb000000000000000000000000ea78d8595ab0127c283297af373a8f5ce7288bb00000000000000000000000000000000000000000000000000000000000018696",
          "blockHash": "0x99fafbbdbf666178b1d5860a6bda81b9e834af79d4de56e8bbb21559a1d4af83",
          "blockNumber": "0x1738e4a",
          "blockTimestamp": "0x697d1e3f",
          "transactionHash": "0x4978be989b46b2b4c1a2de8efe1d51abbc57af7f6654924ef2e077b084668f3b",
          "transactionIndex": "0x23",
          "logIndex": "0xba",
          "removed": false
        },
        {
          "address": "0xa0b86991c6218b36c1d19d4a2e9eb0ce3606eb48",
          "topics": [
            "0xddf252ad1be2c89b69c2b068fc378daa952ba7f163c4a11628f55a4df523b3ef",
            "0x000000000000000000000000ea78d8595ab0127c283297af373a8f5ce7288bb0",
            "0x000000000000000000000000bf36c3eb0c61335da40dcac552ef812d7bed837a"
          ],
          "data": "0x00000000000000000000000000000000000000000000000000000000000186a0",
          "blockHash": "0x99fafbbdbf666178b1d5860a6bda81b9e834af79d4de56e8bbb21559a1d4af83",
          "blockNumber": "0x1738e4a",
          "blockTimestamp": "0x697d1e3f",
          "transactionHash": "0x4978be989b46b2b4c1a2de8efe1d51abbc57af7f6654924ef2e077b084668f3b",
          "transactionIndex": "0x23",
          "logIndex": "0xbb",
          "removed": false
        },
        {
          "address": "0xbf36c3eb0c61335da40dcac552ef812d7bed837a",
          "topics": [
            "0xddf252ad1be2c89b69c2b068fc378daa952ba7f163c4a11628f55a4df523b3ef",
            "0x0000000000000000000000000000000000000000000000000000000000000000",
            "0x000000000000000000000000ea78d8595ab0127c283297af373a8f5ce7288bb0"
          ],
          "data": "0x0000000000000000000000000000000000000000000000000000000000018696",
          "blockHash": "0x99fafbbdbf666178b1d5860a6bda81b9e834af79d4de56e8bbb21559a1d4af83",
          "blockNumber": "0x1738e4a",
          "blockTimestamp": "0x697d1e3f",
          "transactionHash": "0x4978be989b46b2b4c1a2de8efe1d51abbc57af7f6654924ef2e077b084668f3b",
          "transactionIndex": "0x23",
          "logIndex": "0xbc",
          "removed": false
        },
        {
          "address": "0x32493abed345930ad3dd412f37053173526fb6a2",
          "topics": [
            "0xddf252ad1be2c89b69c2b068fc378daa952ba7f163c4a11628f55a4df523b3ef",
            "0x0000000000000000000000000000000000000000000000000000000000000000",
            "0x000000000000000000000000ea78d8595ab0127c283297af373a8f5ce7288bb0"
          ],
          "data": "0x0000000000000000000000000000000000000000000000000000000000018696",
          "blockHash": "0x99fafbbdbf666178b1d5860a6bda81b9e834af79d4de56e8bbb21559a1d4af83",
          "blockNumber": "0x1738e4a",
          "blockTimestamp": "0x697d1e3f",
          "transactionHash": "0x4978be989b46b2b4c1a2de8efe1d51abbc57af7f6654924ef2e077b084668f3b",
          "transactionIndex": "0x23",
          "logIndex": "0xbd",
          "removed": false
        },
        {
          "address": "0x32493abed345930ad3dd412f37053173526fb6a2",
          "topics": [
            "0xab8530f87dc9b59234c4623bf917212bb2536d647574c8e7e5da92c2ede0c9f8"
          ],
          "data": "0x00000000000000000000000032493abed345930ad3dd412f37053173526fb6a2000000000000000000000000ea78d8595ab0127c283297af373a8f5ce7288bb00000000000000000000000000000000000000000000000000000000000018696",
          "blockHash": "0x99fafbbdbf666178b1d5860a6bda81b9e834af79d4de56e8bbb21559a1d4af83",
          "blockNumber": "0x1738e4a",
          "blockTimestamp": "0x697d1e3f",
          "transactionHash": "0x4978be989b46b2b4c1a2de8efe1d51abbc57af7f6654924ef2e077b084668f3b",
          "transactionIndex": "0x23",
          "logIndex": "0xbe",
          "removed": false
        },
        {
          "address": "0xa0b86991c6218b36c1d19d4a2e9eb0ce3606eb48",
          "topics": [
            "0xddf252ad1be2c89b69c2b068fc378daa952ba7f163c4a11628f55a4df523b3ef",
            "0x000000000000000000000000ea78d8595ab0127c283297af373a8f5ce7288bb0",
            "0x000000000000000000000000e6c977b11190ee879afcc2cbf06ff90f99cb99bf"
          ],
          "data": "0x00000000000000000000000000000000000000000000000000000000000186a0",
          "blockHash": "0x99fafbbdbf666178b1d5860a6bda81b9e834af79d4de56e8bbb21559a1d4af83",
          "blockNumber": "0x1738e4a",
          "blockTimestamp": "0x697d1e3f",
          "transactionHash": "0x4978be989b46b2b4c1a2de8efe1d51abbc57af7f6654924ef2e077b084668f3b",
          "transactionIndex": "0x23",
          "logIndex": "0xbf",
          "removed": false
        },
        {
          "address": "0xe6c977b11190ee879afcc2cbf06ff90f99cb99bf",
          "topics": [
            "0xddf252ad1be2c89b69c2b068fc378daa952ba7f163c4a11628f55a4df523b3ef",
            "0x0000000000000000000000000000000000000000000000000000000000000000",
            "0x000000000000000000000000ea78d8595ab0127c283297af373a8f5ce7288bb0"
          ],
          "data": "0x0000000000000000000000000000000000000000000000000000000000018696",
          "blockHash": "0x99fafbbdbf666178b1d5860a6bda81b9e834af79d4de56e8bbb21559a1d4af83",
          "blockNumber": "0x1738e4a",
          "blockTimestamp": "0x697d1e3f",
          "transactionHash": "0x4978be989b46b2b4c1a2de8efe1d51abbc57af7f6654924ef2e077b084668f3b",
          "transactionIndex": "0x23",
          "logIndex": "0xc0",
          "removed": false
        },
        {
          "address": "0x7113e90b610b627b5610fa51298b3c6a71710052",
          "topics": [
            "0xddf252ad1be2c89b69c2b068fc378daa952ba7f163c4a11628f55a4df523b3ef",
            "0x0000000000000000000000000000000000000000000000000000000000000000",
            "0x000000000000000000000000ea78d8595ab0127c283297af373a8f5ce7288bb0"
          ],
          "data": "0x0000000000000000000000000000000000000000000000000000000000018696",
          "blockHash": "0x99fafbbdbf666178b1d5860a6bda81b9e834af79d4de56e8bbb21559a1d4af83",
          "blockNumber": "0x1738e4a",
          "blockTimestamp": "0x697d1e3f",
          "transactionHash": "0x4978be989b46b2b4c1a2de8efe1d51abbc57af7f6654924ef2e077b084668f3b",
          "transactionIndex": "0x23",
          "logIndex": "0xc1",
          "removed": false
        },
        {
          "address": "0x7113e90b610b627b5610fa51298b3c6a71710052",
          "topics": [
            "0xab8530f87dc9b59234c4623bf917212bb2536d647574c8e7e5da92c2ede0c9f8"
          ],
          "data": "0x0000000000000000000000007113e90b610b627b5610fa51298b3c6a71710052000000000000000000000000ea78d8595ab0127c283297af373a8f5ce7288bb00000000000000000000000000000000000000000000000000000000000018696",
          "blockHash": "0x99fafbbdbf666178b1d5860a6bda81b9e834af79d4de56e8bbb21559a1d4af83",
          "blockNumber": "0x1738e4a",
          "blockTimestamp": "0x697d1e3f",
          "transactionHash": "0x4978be989b46b2b4c1a2de8efe1d51abbc57af7f6654924ef2e077b084668f3b",
          "transactionIndex": "0x23",
          "logIndex": "0xc2",
          "removed": false
        },
        {
          "address": "0xa0b86991c6218b36c1d19d4a2e9eb0ce3606eb48",
          "topics": [
            "0xddf252ad1be2c89b69c2b068fc378daa952ba7f163c4a11628f55a4df523b3ef",
            "0x000000000000000000000000ea78d8595ab0127c283297af373a8f5ce7288bb0",
            "0x0000000000000000000000005e10c6a0fd003c56cfb5ed06728a10673c872df8"
          ],
          "data": "0x00000000000000000000000000000000000000000000000000000000000186a0",
          "blockHash": "0x99fafbbdbf666178b1d5860a6bda81b9e834af79d4de56e8bbb21559a1d4af83",
          "blockNumber": "0x1738e4a",
          "blockTimestamp": "0x697d1e3f",
          "transactionHash": "0x4978be989b46b2b4c1a2de8efe1d51abbc57af7f6654924ef2e077b084668f3b",
          "transactionIndex": "0x23",
          "logIndex": "0xc3",
          "removed": false
        },
        {
          "address": "0x5e10c6a0fd003c56cfb5ed06728a10673c872df8",
          "topics": [
            "0xddf252ad1be2c89b69c2b068fc378daa952ba7f163c4a11628f55a4df523b3ef",
            "0x0000000000000000000000000000000000000000000000000000000000000000",
            "0x000000000000000000000000ea78d8595ab0127c283297af373a8f5ce7288bb0"
          ],
          "data": "0x0000000000000000000000000000000000000000000000000000000000018696",
          "blockHash": "0x99fafbbdbf666178b1d5860a6bda81b9e834af79d4de56e8bbb21559a1d4af83",
          "blockNumber": "0x1738e4a",
          "blockTimestamp": "0x697d1e3f",
          "transactionHash": "0x4978be989b46b2b4c1a2de8efe1d51abbc57af7f6654924ef2e077b084668f3b",
          "transactionIndex": "0x23",
          "logIndex": "0xc4",
          "removed": false
        },
        {
          "address": "0xf9e9d60e0c21241bd92a2ea337ba52b0253b6e15",
          "topics": [
            "0xddf252ad1be2c89b69c2b068fc378daa952ba7f163c4a11628f55a4df523b3ef",
            "0x0000000000000000000000000000000000000000000000000000000000000000",
            "0x000000000000000000000000ea78d8595ab0127c283297af373a8f5ce7288bb0"
          ],
          "data": "0x0000000000000000000000000000000000000000000000000000000000018696",
          "blockHash": "0x99fafbbdbf666178b1d5860a6bda81b9e834af79d4de56e8bbb21559a1d4af83",
          "blockNumber": "0x1738e4a",
          "blockTimestamp": "0x697d1e3f",
          "transactionHash": "0x4978be989b46b2b4c1a2de8efe1d51abbc57af7f6654924ef2e077b084668f3b",
          "transactionIndex": "0x23",
          "logIndex": "0xc5",
          "removed": false
        },
        {
          "address": "0xf9e9d60e0c21241bd92a2ea337ba52b0253b6e15",
          "topics": [
            "0xab8530f87dc9b59234c4623bf917212bb2536d647574c8e7e5da92c2ede0c9f8"
          ],
          "data": "0x000000000000000000000000f9e9d60e0c21241bd92a2ea337ba52b0253b6e15000000000000000000000000ea78d8595ab0127c283297af373a8f5ce7288bb00000000000000000000000000000000000000000000000000000000000018696",
          "blockHash": "0x99fafbbdbf666178b1d5860a6bda81b9e834af79d4de56e8bbb21559a1d4af83",
          "blockNumber": "0x1738e4a",
          "blockTimestamp": "0x697d1e3f",
          "transactionHash": "0x4978be989b46b2b4c1a2de8efe1d51abbc57af7f6654924ef2e077b084668f3b",
          "transactionIndex": "0x23",
          "logIndex": "0xc6",
          "removed": false
        },
        {
          "address": "0xa0b86991c6218b36c1d19d4a2e9eb0ce3606eb48",
          "topics": [
            "0xddf252ad1be2c89b69c2b068fc378daa952ba7f163c4a11628f55a4df523b3ef",
            "0x000000000000000000000000ea78d8595ab0127c283297af373a8f5ce7288bb0",
            "0x0000000000000000000000006084c0d53038e82ac6fcb356712c5404aefdfeb6"
          ],
          "data": "0x00000000000000000000000000000000000000000000000000000000000186a0",
          "blockHash": "0x99fafbbdbf666178b1d5860a6bda81b9e834af79d4de56e8bbb21559a1d4af83",
          "blockNumber": "0x1738e4a",
          "blockTimestamp": "0x697d1e3f",
          "transactionHash": "0x4978be989b46b2b4c1a2de8efe1d51abbc57af7f6654924ef2e077b084668f3b",
          "transactionIndex": "0x23",
          "logIndex": "0xc7",
          "removed": false
        },
        {
          "address": "0x6084c0d53038e82ac6fcb356712c5404aefdfeb6",
          "topics": [
            "0xddf252ad1be2c89b69c2b068fc378daa952ba7f163c4a11628f55a4df523b3ef",
            "0x0000000000000000000000000000000000000000000000000000000000000000",
            "0x000000000000000000000000ea78d8595ab0127c283297af373a8f5ce7288bb0"
          ],
          "data": "0x0000000000000000000000000000000000000000000000000000000000018696",
          "blockHash": "0x99fafbbdbf666178b1d5860a6bda81b9e834af79d4de56e8bbb21559a1d4af83",
          "blockNumber": "0x1738e4a",
          "blockTimestamp": "0x697d1e3f",
          "transactionHash": "0x4978be989b46b2b4c1a2de8efe1d51abbc57af7f6654924ef2e077b084668f3b",
          "transactionIndex": "0x23",
          "logIndex": "0xc8",
          "removed": false
        },
        {
          "address": "0xa960e2e51c9ea5ef14947d453434c1f0af69b428",
          "topics": [
            "0xddf252ad1be2c89b69c2b068fc378daa952ba7f163c4a11628f55a4df523b3ef",
            "0x0000000000000000000000000000000000000000000000000000000000000000",
            "0x000000000000000000000000ea78d8595ab0127c283297af373a8f5ce7288bb0"
          ],
          "data": "0x0000000000000000000000000000000000000000000000000000000000018696",
          "blockHash": "0x99fafbbdbf666178b1d5860a6bda81b9e834af79d4de56e8bbb21559a1d4af83",
          "blockNumber": "0x1738e4a",
          "blockTimestamp": "0x697d1e3f",
          "transactionHash": "0x4978be989b46b2b4c1a2de8efe1d51abbc57af7f6654924ef2e077b084668f3b",
          "transactionIndex": "0x23",
          "logIndex": "0xc9",
          "removed": false
        },
        {
          "address": "0xa960e2e51c9ea5ef14947d453434c1f0af69b428",
          "topics": [
            "0xab8530f87dc9b59234c4623bf917212bb2536d647574c8e7e5da92c2ede0c9f8"
          ],
          "data": "0x000000000000000000000000a960e2e51c9ea5ef14947d453434c1f0af69b428000000000000000000000000ea78d8595ab0127c283297af373a8f5ce7288bb00000000000000000000000000000000000000000000000000000000000018696",
          "blockHash": "0x99fafbbdbf666178b1d5860a6bda81b9e834af79d4de56e8bbb21559a1d4af83",
          "blockNumber": "0x1738e4a",
          "blockTimestamp": "0x697d1e3f",
          "transactionHash": "0x4978be989b46b2b4c1a2de8efe1d51abbc57af7f6654924ef2e077b084668f3b",
          "transactionIndex": "0x23",
          "logIndex": "0xca",
          "removed": false
        },
        {
          "address": "0xa0b86991c6218b36c1d19d4a2e9eb0ce3606eb48",
          "topics": [
            "0xddf252ad1be2c89b69c2b068fc378daa952ba7f163c4a11628f55a4df523b3ef",
            "0x000000000000000000000000ea78d8595ab0127c283297af373a8f5ce7288bb0",
            "0x0000000000000000000000002258c065e90dcdbae6788809bc7ddc8ef9e5de30"
          ],
          "data": "0x00000000000000000000000000000000000000000000000000000000000186a0",
          "blockHash": "0x99fafbbdbf666178b1d5860a6bda81b9e834af79d4de56e8bbb21559a1d4af83",
          "blockNumber": "0x1738e4a",
          "blockTimestamp": "0x697d1e3f",
          "transactionHash": "0x4978be989b46b2b4c1a2de8efe1d51abbc57af7f6654924ef2e077b084668f3b",
          "transactionIndex": "0x23",
          "logIndex": "0xcb",
          "removed": false
        },
        {
          "address": "0x2258c065e90dcdbae6788809bc7ddc8ef9e5de30",
          "topics": [
            "0xddf252ad1be2c89b69c2b068fc378daa952ba7f163c4a11628f55a4df523b3ef",
            "0x0000000000000000000000000000000000000000000000000000000000000000",
            "0x000000000000000000000000ea78d8595ab0127c283297af373a8f5ce7288bb0"
          ],
          "data": "0x0000000000000000000000000000000000000000000000000000000000018696",
          "blockHash": "0x99fafbbdbf666178b1d5860a6bda81b9e834af79d4de56e8bbb21559a1d4af83",
          "blockNumber": "0x1738e4a",
          "blockTimestamp": "0x697d1e3f",
          "transactionHash": "0x4978be989b46b2b4c1a2de8efe1d51abbc57af7f6654924ef2e077b084668f3b",
          "transactionIndex": "0x23",
          "logIndex": "0xcc",
          "removed": false
        },
        {
          "address": "0x71e206538669aaaee34470b396fe4a8aed0ed827",
          "topics": [
            "0xddf252ad1be2c89b69c2b068fc378daa952ba7f163c4a11628f55a4df523b3ef",
            "0x0000000000000000000000000000000000000000000000000000000000000000",
            "0x000000000000000000000000ea78d8595ab0127c283297af373a8f5ce7288bb0"
          ],
          "data": "0x0000000000000000000000000000000000000000000000000000000000018696",
          "blockHash": "0x99fafbbdbf666178b1d5860a6bda81b9e834af79d4de56e8bbb21559a1d4af83",
          "blockNumber": "0x1738e4a",
          "blockTimestamp": "0x697d1e3f",
          "transactionHash": "0x4978be989b46b2b4c1a2de8efe1d51abbc57af7f6654924ef2e077b084668f3b",
          "transactionIndex": "0x23",
          "logIndex": "0xcd",
          "removed": false
        },
        {
          "address": "0x71e206538669aaaee34470b396fe4a8aed0ed827",
          "topics": [
            "0xab8530f87dc9b59234c4623bf917212bb2536d647574c8e7e5da92c2ede0c9f8"
          ],
          "data": "0x00000000000000000000000071e206538669aaaee34470b396fe4a8aed0ed827000000000000000000000000ea78d8595ab0127c283297af373a8f5ce7288bb00000000000000000000000000000000000000000000000000000000000018696",
          "blockHash": "0x99fafbbdbf666178b1d5860a6bda81b9e834af79d4de56e8bbb21559a1d4af83",
          "blockNumber": "0x1738e4a",
          "blockTimestamp": "0x697d1e3f",
          "transactionHash": "0x4978be989b46b2b4c1a2de8efe1d51abbc57af7f6654924ef2e077b084668f3b",
          "transactionIndex": "0x23",
          "logIndex": "0xce",
          "removed": false
        },
        {
          "address": "0xa0b86991c6218b36c1d19d4a2e9eb0ce3606eb48",
          "topics": [
            "0xddf252ad1be2c89b69c2b068fc378daa952ba7f163c4a11628f55a4df523b3ef",
            "0x000000000000000000000000ea78d8595ab0127c283297af373a8f5ce7288bb0",
            "0x000000000000000000000000e30b2768af74d5c40e650a76a6699bb05285761f"
          ],
          "data": "0x00000000000000000000000000000000000000000000000000000000000186a0",
          "blockHash": "0x99fafbbdbf666178b1d5860a6bda81b9e834af79d4de56e8bbb21559a1d4af83",
          "blockNumber": "0x1738e4a",
          "blockTimestamp": "0x697d1e3f",
          "transactionHash": "0x4978be989b46b2b4c1a2de8efe1d51abbc57af7f6654924ef2e077b084668f3b",
          "transactionIndex": "0x23",
          "logIndex": "0xcf",
          "removed": false
        },
        {
          "address": "0xe30b2768af74d5c40e650a76a6699bb05285761f",
          "topics": [
            "0xddf252ad1be2c89b69c2b068fc378daa952ba7f163c4a11628f55a4df523b3ef",
            "0x0000000000000000000000000000000000000000000000000000000000000000",
            "0x000000000000000000000000ea78d8595ab0127c283297af373a8f5ce7288bb0"
          ],
          "data": "0x0000000000000000000000000000000000000000000000000000000000018696",
          "blockHash": "0x99fafbbdbf666178b1d5860a6bda81b9e834af79d4de56e8bbb21559a1d4af83",
          "blockNumber": "0x1738e4a",
          "blockTimestamp": "0x697d1e3f",
          "transactionHash": "0x4978be989b46b2b4c1a2de8efe1d51abbc57af7f6654924ef2e077b084668f3b",
          "transactionIndex": "0x23",
          "logIndex": "0xd0",
          "removed": false
        },
        {
          "address": "0x535a7d3fa2e6ba047328de6bfbfa9994fba5fbb8",
          "topics": [
            "0xddf252ad1be2c89b69c2b068fc378daa952ba7f163c4a11628f55a4df523b3ef",
            "0x0000000000000000000000000000000000000000000000000000000000000000",
            "0x000000000000000000000000ea78d8595ab0127c283297af373a8f5ce7288bb0"
          ],
          "data": "0x0000000000000000000000000000000000000000000000000000000000018696",
          "blockHash": "0x99fafbbdbf666178b1d5860a6bda81b9e834af79d4de56e8bbb21559a1d4af83",
          "blockNumber": "0x1738e4a",
          "blockTimestamp": "0x697d1e3f",
          "transactionHash": "0x4978be989b46b2b4c1a2de8efe1d51abbc57af7f6654924ef2e077b084668f3b",
          "transactionIndex": "0x23",
          "logIndex": "0xd1",
          "removed": false
        },
        {
          "address": "0x535a7d3fa2e6ba047328de6bfbfa9994fba5fbb8",
          "topics": [
            "0xab8530f87dc9b59234c4623bf917212bb2536d647574c8e7e5da92c2ede0c9f8"
          ],
          "data": "0x000000000000000000000000535a7d3fa2e6ba047328de6bfbfa9994fba5fbb8000000000000000000000000ea78d8595ab0127c283297af373a8f5ce7288bb00000000000000000000000000000000000000000000000000000000000018696",
          "blockHash": "0x99fafbbdbf666178b1d5860a6bda81b9e834af79d4de56e8bbb21559a1d4af83",
          "blockNumber": "0x1738e4a",
          "blockTimestamp": "0x697d1e3f",
          "transactionHash": "0x4978be989b46b2b4c1a2de8efe1d51abbc57af7f6654924ef2e077b084668f3b",
          "transactionIndex": "0x23",
          "logIndex": "0xd2",
          "removed": false
        },
        {
          "address": "0xa0b86991c6218b36c1d19d4a2e9eb0ce3606eb48",
          "topics": [
            "0xddf252ad1be2c89b69c2b068fc378daa952ba7f163c4a11628f55a4df523b3ef",
            "0x000000000000000000000000ea78d8595ab0127c283297af373a8f5ce7288bb0",
            "0x000000000000000000000000a9c139e75650e352b15d7bdf1ff8e844ff5c0694"
          ],
          "data": "0x00000000000000000000000000000000000000000000000000000000000186a0",
          "blockHash": "0x99fafbbdbf666178b1d5860a6bda81b9e834af79d4de56e8bbb21559a1d4af83",
          "blockNumber": "0x1738e4a",
          "blockTimestamp": "0x697d1e3f",
          "transactionHash": "0x4978be989b46b2b4c1a2de8efe1d51abbc57af7f6654924ef2e077b084668f3b",
          "transactionIndex": "0x23",
          "logIndex": "0xd3",
          "removed": false
        },
        {
          "address": "0xa9c139e75650e352b15d7bdf1ff8e844ff5c0694",
          "topics": [
            "0xddf252ad1be2c89b69c2b068fc378daa952ba7f163c4a11628f55a4df523b3ef",
            "0x0000000000000000000000000000000000000000000000000000000000000000",
            "0x000000000000000000000000ea78d8595ab0127c283297af373a8f5ce7288bb0"
          ],
          "data": "0x0000000000000000000000000000000000000000000000000000000000018696",
          "blockHash": "0x99fafbbdbf666178b1d5860a6bda81b9e834af79d4de56e8bbb21559a1d4af83",
          "blockNumber": "0x1738e4a",
          "blockTimestamp": "0x697d1e3f",
          "transactionHash": "0x4978be989b46b2b4c1a2de8efe1d51abbc57af7f6654924ef2e077b084668f3b",
          "transactionIndex": "0x23",
          "logIndex": "0xd4",
          "removed": false
        },
        {
          "address": "0xb4e12a5e63ed2e2102dea83a362255f4541797c4",
          "topics": [
            "0xddf252ad1be2c89b69c2b068fc378daa952ba7f163c4a11628f55a4df523b3ef",
            "0x0000000000000000000000000000000000000000000000000000000000000000",
            "0x000000000000000000000000ea78d8595ab0127c283297af373a8f5ce7288bb0"
          ],
          "data": "0x0000000000000000000000000000000000000000000000000000000000018696",
          "blockHash": "0x99fafbbdbf666178b1d5860a6bda81b9e834af79d4de56e8bbb21559a1d4af83",
          "blockNumber": "0x1738e4a",
          "blockTimestamp": "0x697d1e3f",
          "transactionHash": "0x4978be989b46b2b4c1a2de8efe1d51abbc57af7f6654924ef2e077b084668f3b",
          "transactionIndex": "0x23",
          "logIndex": "0xd5",
          "removed": false
        },
        {
          "address": "0xb4e12a5e63ed2e2102dea83a362255f4541797c4",
          "topics": [
            "0xab8530f87dc9b59234c4623bf917212bb2536d647574c8e7e5da92c2ede0c9f8"
          ],
          "data": "0x000000000000000000000000b4e12a5e63ed2e2102dea83a362255f4541797c4000000000000000000000000ea78d8595ab0127c283297af373a8f5ce7288bb00000000000000000000000000000000000000000000000000000000000018696",
          "blockHash": "0x99fafbbdbf666178b1d5860a6bda81b9e834af79d4de56e8bbb21559a1d4af83",
          "blockNumber": "0x1738e4a",
          "blockTimestamp": "0x697d1e3f",
          "transactionHash": "0x4978be989b46b2b4c1a2de8efe1d51abbc57af7f6654924ef2e077b084668f3b",
          "transactionIndex": "0x23",
          "logIndex": "0xd6",
          "removed": false
        },
        {
          "address": "0xa0b86991c6218b36c1d19d4a2e9eb0ce3606eb48",
          "topics": [
            "0xddf252ad1be2c89b69c2b068fc378daa952ba7f163c4a11628f55a4df523b3ef",
            "0x000000000000000000000000ea78d8595ab0127c283297af373a8f5ce7288bb0",
            "0x00000000000000000000000072698ab70ea63490dccf2a1af64a3431440de3a9"
          ],
          "data": "0x00000000000000000000000000000000000000000000000000000000000186a0",
          "blockHash": "0x99fafbbdbf666178b1d5860a6bda81b9e834af79d4de56e8bbb21559a1d4af83",
          "blockNumber": "0x1738e4a",
          "blockTimestamp": "0x697d1e3f",
          "transactionHash": "0x4978be989b46b2b4c1a2de8efe1d51abbc57af7f6654924ef2e077b084668f3b",
          "transactionIndex": "0x23",
          "logIndex": "0xd7",
          "removed": false
        },
        {
          "address": "0x72698ab70ea63490dccf2a1af64a3431440de3a9",
          "topics": [
            "0xddf252ad1be2c89b69c2b068fc378daa952ba7f163c4a11628f55a4df523b3ef",
            "0x0000000000000000000000000000000000000000000000000000000000000000",
            "0x000000000000000000000000ea78d8595ab0127c283297af373a8f5ce7288bb0"
          ],
          "data": "0x0000000000000000000000000000000000000000000000000000000000018696",
          "blockHash": "0x99fafbbdbf666178b1d5860a6bda81b9e834af79d4de56e8bbb21559a1d4af83",
          "blockNumber": "0x1738e4a",
          "blockTimestamp": "0x697d1e3f",
          "transactionHash": "0x4978be989b46b2b4c1a2de8efe1d51abbc57af7f6654924ef2e077b084668f3b",
          "transactionIndex": "0x23",
          "logIndex": "0xd8",
          "removed": false
        },
        {
          "address": "0xd3a6147dcad93a59863d5e0f5c68a731d263e62c",
          "topics": [
            "0xddf252ad1be2c89b69c2b068fc378daa952ba7f163c4a11628f55a4df523b3ef",
            "0x0000000000000000000000000000000000000000000000000000000000000000",
            "0x000000000000000000000000ea78d8595ab0127c283297af373a8f5ce7288bb0"
          ],
          "data": "0x0000000000000000000000000000000000000000000000000000000000018696",
          "blockHash": "0x99fafbbdbf666178b1d5860a6bda81b9e834af79d4de56e8bbb21559a1d4af83",
          "blockNumber": "0x1738e4a",
          "blockTimestamp": "0x697d1e3f",
          "transactionHash": "0x4978be989b46b2b4c1a2de8efe1d51abbc57af7f6654924ef2e077b084668f3b",
          "transactionIndex": "0x23",
          "logIndex": "0xd9",
          "removed": false
        },
        {
          "address": "0xd3a6147dcad93a59863d5e0f5c68a731d263e62c",
          "topics": [
            "0xab8530f87dc9b59234c4623bf917212bb2536d647574c8e7e5da92c2ede0c9f8"
          ],
          "data": "0x000000000000000000000000d3a6147dcad93a59863d5e0f5c68a731d263e62c000000000000000000000000ea78d8595ab0127c283297af373a8f5ce7288bb00000000000000000000000000000000000000000000000000000000000018696",
          "blockHash": "0x99fafbbdbf666178b1d5860a6bda81b9e834af79d4de56e8bbb21559a1d4af83",
          "blockNumber": "0x1738e4a",
          "blockTimestamp": "0x697d1e3f",
          "transactionHash": "0x4978be989b46b2b4c1a2de8efe1d51abbc57af7f6654924ef2e077b084668f3b",
          "transactionIndex": "0x23",
          "logIndex": "0xda",
          "removed": false
        },
        {
          "address": "0xa0b86991c6218b36c1d19d4a2e9eb0ce3606eb48",
          "topics": [
            "0xddf252ad1be2c89b69c2b068fc378daa952ba7f163c4a11628f55a4df523b3ef",
            "0x000000000000000000000000ea78d8595ab0127c283297af373a8f5ce7288bb0",
            "0x0000000000000000000000000be39cd534317a80846b9170a5ae3c032be1e3af"
          ],
          "data": "0x00000000000000000000000000000000000000000000000000000000000186a0",
          "blockHash": "0x99fafbbdbf666178b1d5860a6bda81b9e834af79d4de56e8bbb21559a1d4af83",
          "blockNumber": "0x1738e4a",
          "blockTimestamp": "0x697d1e3f",
          "transactionHash": "0x4978be989b46b2b4c1a2de8efe1d51abbc57af7f6654924ef2e077b084668f3b",
          "transactionIndex": "0x23",
          "logIndex": "0xdb",
          "removed": false
        },
        {
          "address": "0x0be39cd534317a80846b9170a5ae3c032be1e3af",
          "topics": [
            "0xddf252ad1be2c89b69c2b068fc378daa952ba7f163c4a11628f55a4df523b3ef",
            "0x0000000000000000000000000000000000000000000000000000000000000000",
            "0x000000000000000000000000ea78d8595ab0127c283297af373a8f5ce7288bb0"
          ],
          "data": "0x0000000000000000000000000000000000000000000000000000000000018696",
          "blockHash": "0x99fafbbdbf666178b1d5860a6bda81b9e834af79d4de56e8bbb21559a1d4af83",
          "blockNumber": "0x1738e4a",
          "blockTimestamp": "0x697d1e3f",
          "transactionHash": "0x4978be989b46b2b4c1a2de8efe1d51abbc57af7f6654924ef2e077b084668f3b",
          "transactionIndex": "0x23",
          "logIndex": "0xdc",
          "removed": false
        },
        {
          "address": "0xdcea8bc8d1b962eaeac194d8ea7d349b10b52f7c",
          "topics": [
            "0xddf252ad1be2c89b69c2b068fc378daa952ba7f163c4a11628f55a4df523b3ef",
            "0x0000000000000000000000000000000000000000000000000000000000000000",
            "0x000000000000000000000000ea78d8595ab0127c283297af373a8f5ce7288bb0"
          ],
          "data": "0x0000000000000000000000000000000000000000000000000000000000018696",
          "blockHash": "0x99fafbbdbf666178b1d5860a6bda81b9e834af79d4de56e8bbb21559a1d4af83",
          "blockNumber": "0x1738e4a",
          "blockTimestamp": "0x697d1e3f",
          "transactionHash": "0x4978be989b46b2b4c1a2de8efe1d51abbc57af7f6654924ef2e077b084668f3b",
          "transactionIndex": "0x23",
          "logIndex": "0xdd",
          "removed": false
        },
        {
          "address": "0xdcea8bc8d1b962eaeac194d8ea7d349b10b52f7c",
          "topics": [
            "0xab8530f87dc9b59234c4623bf917212bb2536d647574c8e7e5da92c2ede0c9f8"
          ],
          "data": "0x000000000000000000000000dcea8bc8d1b962eaeac194d8ea7d349b10b52f7c000000000000000000000000ea78d8595ab0127c283297af373a8f5ce7288bb00000000000000000000000000000000000000000000000000000000000018696",
          "blockHash": "0x99fafbbdbf666178b1d5860a6bda81b9e834af79d4de56e8bbb21559a1d4af83",
          "blockNumber": "0x1738e4a",
          "blockTimestamp": "0x697d1e3f",
          "transactionHash": "0x4978be989b46b2b4c1a2de8efe1d51abbc57af7f6654924ef2e077b084668f3b",
          "transactionIndex": "0x23",
          "logIndex": "0xde",
          "removed": false
        },
        {
          "address": "0xa0b86991c6218b36c1d19d4a2e9eb0ce3606eb48",
          "topics": [
            "0xddf252ad1be2c89b69c2b068fc378daa952ba7f163c4a11628f55a4df523b3ef",
            "0x000000000000000000000000ea78d8595ab0127c283297af373a8f5ce7288bb0",
            "0x000000000000000000000000b2b59430d11ab6d7b9001c50c2eb4e9bb3625db0"
          ],
          "data": "0x00000000000000000000000000000000000000000000000000000000000186a0",
          "blockHash": "0x99fafbbdbf666178b1d5860a6bda81b9e834af79d4de56e8bbb21559a1d4af83",
          "blockNumber": "0x1738e4a",
          "blockTimestamp": "0x697d1e3f",
          "transactionHash": "0x4978be989b46b2b4c1a2de8efe1d51abbc57af7f6654924ef2e077b084668f3b",
          "transactionIndex": "0x23",
          "logIndex": "0xdf",
          "removed": false
        },
        {
          "address": "0xb2b59430d11ab6d7b9001c50c2eb4e9bb3625db0",
          "topics": [
            "0xddf252ad1be2c89b69c2b068fc378daa952ba7f163c4a11628f55a4df523b3ef",
            "0x0000000000000000000000000000000000000000000000000000000000000000",
            "0x000000000000000000000000ea78d8595ab0127c283297af373a8f5ce7288bb0"
          ],
          "data": "0x0000000000000000000000000000000000000000000000000000000000018696",
          "blockHash": "0x99fafbbdbf666178b1d5860a6bda81b9e834af79d4de56e8bbb21559a1d4af83",
          "blockNumber": "0x1738e4a",
          "blockTimestamp": "0x697d1e3f",
          "transactionHash": "0x4978be989b46b2b4c1a2de8efe1d51abbc57af7f6654924ef2e077b084668f3b",
          "transactionIndex": "0x23",
          "logIndex": "0xe0",
          "removed": false
        },
        {
          "address": "0xa3bbe582c23b9f33a00ddbf80f4fcae34a79d822",
          "topics": [
            "0xddf252ad1be2c89b69c2b068fc378daa952ba7f163c4a11628f55a4df523b3ef",
            "0x0000000000000000000000000000000000000000000000000000000000000000",
            "0x000000000000000000000000ea78d8595ab0127c283297af373a8f5ce7288bb0"
          ],
          "data": "0x0000000000000000000000000000000000000000000000000000000000018696",
          "blockHash": "0x99fafbbdbf666178b1d5860a6bda81b9e834af79d4de56e8bbb21559a1d4af83",
          "blockNumber": "0x1738e4a",
          "blockTimestamp": "0x697d1e3f",
          "transactionHash": "0x4978be989b46b2b4c1a2de8efe1d51abbc57af7f6654924ef2e077b084668f3b",
          "transactionIndex": "0x23",
          "logIndex": "0xe1",
          "removed": false
        },
        {
          "address": "0xa3bbe582c23b9f33a00ddbf80f4fcae34a79d822",
          "topics": [
            "0xab8530f87dc9b59234c4623bf917212bb2536d647574c8e7e5da92c2ede0c9f8"
          ],
          "data": "0x000000000000000000000000a3bbe582c23b9f33a00ddbf80f4fcae34a79d822000000000000000000000000ea78d8595ab0127c283297af373a8f5ce7288bb00000000000000000000000000000000000000000000000000000000000018696",
          "blockHash": "0x99fafbbdbf666178b1d5860a6bda81b9e834af79d4de56e8bbb21559a1d4af83",
          "blockNumber": "0x1738e4a",
          "blockTimestamp": "0x697d1e3f",
          "transactionHash": "0x4978be989b46b2b4c1a2de8efe1d51abbc57af7f6654924ef2e077b084668f3b",
          "transactionIndex": "0x23",
          "logIndex": "0xe2",
          "removed": false
        },
        {
          "address": "0xa0b86991c6218b36c1d19d4a2e9eb0ce3606eb48",
          "topics": [
            "0xddf252ad1be2c89b69c2b068fc378daa952ba7f163c4a11628f55a4df523b3ef",
            "0x000000000000000000000000ea78d8595ab0127c283297af373a8f5ce7288bb0",
            "0x000000000000000000000000a4bfbd6ee1531392bad9b75ab8911010c9cc7483"
          ],
          "data": "0x00000000000000000000000000000000000000000000000000000000000186a0",
          "blockHash": "0x99fafbbdbf666178b1d5860a6bda81b9e834af79d4de56e8bbb21559a1d4af83",
          "blockNumber": "0x1738e4a",
          "blockTimestamp": "0x697d1e3f",
          "transactionHash": "0x4978be989b46b2b4c1a2de8efe1d51abbc57af7f6654924ef2e077b084668f3b",
          "transactionIndex": "0x23",
          "logIndex": "0xe3",
          "removed": false
        },
        {
          "address": "0xa4bfbd6ee1531392bad9b75ab8911010c9cc7483",
          "topics": [
            "0xddf252ad1be2c89b69c2b068fc378daa952ba7f163c4a11628f55a4df523b3ef",
            "0x0000000000000000000000000000000000000000000000000000000000000000",
            "0x000000000000000000000000ea78d8595ab0127c283297af373a8f5ce7288bb0"
          ],
          "data": "0x0000000000000000000000000000000000000000000000000000000000018696",
          "blockHash": "0x99fafbbdbf666178b1d5860a6bda81b9e834af79d4de56e8bbb21559a1d4af83",
          "blockNumber": "0x1738e4a",
          "blockTimestamp": "0x697d1e3f",
          "transactionHash": "0x4978be989b46b2b4c1a2de8efe1d51abbc57af7f6654924ef2e077b084668f3b",
          "transactionIndex": "0x23",
          "logIndex": "0xe4",
          "removed": false
        },
        {
          "address": "0x55f14b4ddd6463cf1b616ccc4e032b4f4cee590c",
          "topics": [
            "0xddf252ad1be2c89b69c2b068fc378daa952ba7f163c4a11628f55a4df523b3ef",
            "0x0000000000000000000000000000000000000000000000000000000000000000",
            "0x000000000000000000000000ea78d8595ab0127c283297af373a8f5ce7288bb0"
          ],
          "data": "0x0000000000000000000000000000000000000000000000000000000000018696",
          "blockHash": "0x99fafbbdbf666178b1d5860a6bda81b9e834af79d4de56e8bbb21559a1d4af83",
          "blockNumber": "0x1738e4a",
          "blockTimestamp": "0x697d1e3f",
          "transactionHash": "0x4978be989b46b2b4c1a2de8efe1d51abbc57af7f6654924ef2e077b084668f3b",
          "transactionIndex": "0x23",
          "logIndex": "0xe5",
          "removed": false
        },
        {
          "address": "0x55f14b4ddd6463cf1b616ccc4e032b4f4cee590c",
          "topics": [
            "0xab8530f87dc9b59234c4623bf917212bb2536d647574c8e7e5da92c2ede0c9f8"
          ],
          "data": "0x00000000000000000000000055f14b4ddd6463cf1b616ccc4e032b4f4cee590c000000000000000000000000ea78d8595ab0127c283297af373a8f5ce7288bb00000000000000000000000000000000000000000000000000000000000018696",
          "blockHash": "0x99fafbbdbf666178b1d5860a6bda81b9e834af79d4de56e8bbb21559a1d4af83",
          "blockNumber": "0x1738e4a",
          "blockTimestamp": "0x697d1e3f",
          "transactionHash": "0x4978be989b46b2b4c1a2de8efe1d51abbc57af7f6654924ef2e077b084668f3b",
          "transactionIndex": "0x23",
          "logIndex": "0xe6",
          "removed": false
        },
        {
          "address": "0xa0b86991c6218b36c1d19d4a2e9eb0ce3606eb48",
          "topics": [
            "0xddf252ad1be2c89b69c2b068fc378daa952ba7f163c4a11628f55a4df523b3ef",
            "0x000000000000000000000000ea78d8595ab0127c283297af373a8f5ce7288bb0",
            "0x0000000000000000000000008f6f2c1957826ad1d84f5f677e06fde90f70422c"
          ],
          "data": "0x00000000000000000000000000000000000000000000000000000000000186a0",
          "blockHash": "0x99fafbbdbf666178b1d5860a6bda81b9e834af79d4de56e8bbb21559a1d4af83",
          "blockNumber": "0x1738e4a",
          "blockTimestamp": "0x697d1e3f",
          "transactionHash": "0x4978be989b46b2b4c1a2de8efe1d51abbc57af7f6654924ef2e077b084668f3b",
          "transactionIndex": "0x23",
          "logIndex": "0xe7",
          "removed": false
        },
        {
          "address": "0x8f6f2c1957826ad1d84f5f677e06fde90f70422c",
          "topics": [
            "0xddf252ad1be2c89b69c2b068fc378daa952ba7f163c4a11628f55a4df523b3ef",
            "0x0000000000000000000000000000000000000000000000000000000000000000",
            "0x000000000000000000000000ea78d8595ab0127c283297af373a8f5ce7288bb0"
          ],
          "data": "0x0000000000000000000000000000000000000000000000000000000000018696",
          "blockHash": "0x99fafbbdbf666178b1d5860a6bda81b9e834af79d4de56e8bbb21559a1d4af83",
          "blockNumber": "0x1738e4a",
          "blockTimestamp": "0x697d1e3f",
          "transactionHash": "0x4978be989b46b2b4c1a2de8efe1d51abbc57af7f6654924ef2e077b084668f3b",
          "transactionIndex": "0x23",
          "logIndex": "0xe8",
          "removed": false
        },
        {
          "address": "0xc1afbb0c0d099f670b966dbc411bd154f76874a3",
          "topics": [
            "0xddf252ad1be2c89b69c2b068fc378daa952ba7f163c4a11628f55a4df523b3ef",
            "0x0000000000000000000000000000000000000000000000000000000000000000",
            "0x000000000000000000000000ea78d8595ab0127c283297af373a8f5ce7288bb0"
          ],
          "data": "0x0000000000000000000000000000000000000000000000000000000000018696",
          "blockHash": "0x99fafbbdbf666178b1d5860a6bda81b9e834af79d4de56e8bbb21559a1d4af83",
          "blockNumber": "0x1738e4a",
          "blockTimestamp": "0x697d1e3f",
          "transactionHash": "0x4978be989b46b2b4c1a2de8efe1d51abbc57af7f6654924ef2e077b084668f3b",
          "transactionIndex": "0x23",
          "logIndex": "0xe9",
          "removed": false
        },
        {
          "address": "0xc1afbb0c0d099f670b966dbc411bd154f76874a3",
          "topics": [
            "0xab8530f87dc9b59234c4623bf917212bb2536d647574c8e7e5da92c2ede0c9f8"
          ],
          "data": "0x000000000000000000000000c1afbb0c0d099f670b966dbc411bd154f76874a3000000000000000000000000ea78d8595ab0127c283297af373a8f5ce7288bb00000000000000000000000000000000000000000000000000000000000018696",
          "blockHash": "0x99fafbbdbf666178b1d5860a6bda81b9e834af79d4de56e8bbb21559a1d4af83",
          "blockNumber": "0x1738e4a",
          "blockTimestamp": "0x697d1e3f",
          "transactionHash": "0x4978be989b46b2b4c1a2de8efe1d51abbc57af7f6654924ef2e077b084668f3b",
          "transactionIndex": "0x23",
          "logIndex": "0xea",
          "removed": false
        },
        {
          "address": "0xa0b86991c6218b36c1d19d4a2e9eb0ce3606eb48",
          "topics": [
            "0xddf252ad1be2c89b69c2b068fc378daa952ba7f163c4a11628f55a4df523b3ef",
            "0x000000000000000000000000ea78d8595ab0127c283297af373a8f5ce7288bb0",
            "0x00000000000000000000000075d84b19bdafd15d7a6eb8621094b6b1ec3e9b46"
          ],
          "data": "0x00000000000000000000000000000000000000000000000000000000000186a0",
          "blockHash": "0x99fafbbdbf666178b1d5860a6bda81b9e834af79d4de56e8bbb21559a1d4af83",
          "blockNumber": "0x1738e4a",
          "blockTimestamp": "0x697d1e3f",
          "transactionHash": "0x4978be989b46b2b4c1a2de8efe1d51abbc57af7f6654924ef2e077b084668f3b",
          "transactionIndex": "0x23",
          "logIndex": "0xeb",
          "removed": false
        },
        {
          "address": "0x75d84b19bdafd15d7a6eb8621094b6b1ec3e9b46",
          "topics": [
            "0xddf252ad1be2c89b69c2b068fc378daa952ba7f163c4a11628f55a4df523b3ef",
            "0x0000000000000000000000000000000000000000000000000000000000000000",
            "0x000000000000000000000000ea78d8595ab0127c283297af373a8f5ce7288bb0"
          ],
          "data": "0x0000000000000000000000000000000000000000000000000000000000018696",
          "blockHash": "0x99fafbbdbf666178b1d5860a6bda81b9e834af79d4de56e8bbb21559a1d4af83",
          "blockNumber": "0x1738e4a",
          "blockTimestamp": "0x697d1e3f",
          "transactionHash": "0x4978be989b46b2b4c1a2de8efe1d51abbc57af7f6654924ef2e077b084668f3b",
          "transactionIndex": "0x23",
          "logIndex": "0xec",
          "removed": false
        },
        {
          "address": "0xa91c51b760ef567aacbf62c68a2abd7f516302bd",
          "topics": [
            "0xddf252ad1be2c89b69c2b068fc378daa952ba7f163c4a11628f55a4df523b3ef",
            "0x0000000000000000000000000000000000000000000000000000000000000000",
            "0x000000000000000000000000ea78d8595ab0127c283297af373a8f5ce7288bb0"
          ],
          "data": "0x0000000000000000000000000000000000000000000000000000000000018696",
          "blockHash": "0x99fafbbdbf666178b1d5860a6bda81b9e834af79d4de56e8bbb21559a1d4af83",
          "blockNumber": "0x1738e4a",
          "blockTimestamp": "0x697d1e3f",
          "transactionHash": "0x4978be989b46b2b4c1a2de8efe1d51abbc57af7f6654924ef2e077b084668f3b",
          "transactionIndex": "0x23",
          "logIndex": "0xed",
          "removed": false
        },
        {
          "address": "0xa91c51b760ef567aacbf62c68a2abd7f516302bd",
          "topics": [
            "0xab8530f87dc9b59234c4623bf917212bb2536d647574c8e7e5da92c2ede0c9f8"
          ],
          "data": "0x000000000000000000000000a91c51b760ef567aacbf62c68a2abd7f516302bd000000000000000000000000ea78d8595ab0127c283297af373a8f5ce7288bb00000000000000000000000000000000000000000000000000000000000018696",
          "blockHash": "0x99fafbbdbf666178b1d5860a6bda81b9e834af79d4de56e8bbb21559a1d4af83",
          "blockNumber": "0x1738e4a",
          "blockTimestamp": "0x697d1e3f",
          "transactionHash": "0x4978be989b46b2b4c1a2de8efe1d51abbc57af7f6654924ef2e077b084668f3b",
          "transactionIndex": "0x23",
          "logIndex": "0xee",
          "removed": false
        },
        {
          "address": "0xa0b86991c6218b36c1d19d4a2e9eb0ce3606eb48",
          "topics": [
            "0xddf252ad1be2c89b69c2b068fc378daa952ba7f163c4a11628f55a4df523b3ef",
            "0x000000000000000000000000ea78d8595ab0127c283297af373a8f5ce7288bb0",
            "0x000000000000000000000000b2f1bb3945274946ffd2c6ea0f582b74bec5f92a"
          ],
          "data": "0x00000000000000000000000000000000000000000000000000000000000186a0",
          "blockHash": "0x99fafbbdbf666178b1d5860a6bda81b9e834af79d4de56e8bbb21559a1d4af83",
          "blockNumber": "0x1738e4a",
          "blockTimestamp": "0x697d1e3f",
          "transactionHash": "0x4978be989b46b2b4c1a2de8efe1d51abbc57af7f6654924ef2e077b084668f3b",
          "transactionIndex": "0x23",
          "logIndex": "0xef",
          "removed": false
        },
        {
          "address": "0xb2f1bb3945274946ffd2c6ea0f582b74bec5f92a",
          "topics": [
            "0xddf252ad1be2c89b69c2b068fc378daa952ba7f163c4a11628f55a4df523b3ef",
            "0x0000000000000000000000000000000000000000000000000000000000000000",
            "0x000000000000000000000000ea78d8595ab0127c283297af373a8f5ce7288bb0"
          ],
          "data": "0x0000000000000000000000000000000000000000000000000000000000018696",
          "blockHash": "0x99fafbbdbf666178b1d5860a6bda81b9e834af79d4de56e8bbb21559a1d4af83",
          "blockNumber": "0x1738e4a",
          "blockTimestamp": "0x697d1e3f",
          "transactionHash": "0x4978be989b46b2b4c1a2de8efe1d51abbc57af7f6654924ef2e077b084668f3b",
          "transactionIndex": "0x23",
          "logIndex": "0xf0",
          "removed": false
        },
        {
          "address": "0xf1e57e10416de5a88ef8f9c5ca3c2afdb324aef9",
          "topics": [
            "0xddf252ad1be2c89b69c2b068fc378daa952ba7f163c4a11628f55a4df523b3ef",
            "0x0000000000000000000000000000000000000000000000000000000000000000",
            "0x000000000000000000000000ea78d8595ab0127c283297af373a8f5ce7288bb0"
          ],
          "data": "0x0000000000000000000000000000000000000000000000000000000000018696",
          "blockHash": "0x99fafbbdbf666178b1d5860a6bda81b9e834af79d4de56e8bbb21559a1d4af83",
          "blockNumber": "0x1738e4a",
          "blockTimestamp": "0x697d1e3f",
          "transactionHash": "0x4978be989b46b2b4c1a2de8efe1d51abbc57af7f6654924ef2e077b084668f3b",
          "transactionIndex": "0x23",
          "logIndex": "0xf1",
          "removed": false
        },
        {
          "address": "0xf1e57e10416de5a88ef8f9c5ca3c2afdb324aef9",
          "topics": [
            "0xab8530f87dc9b59234c4623bf917212bb2536d647574c8e7e5da92c2ede0c9f8"
          ],
          "data": "0x000000000000000000000000f1e57e10416de5a88ef8f9c5ca3c2afdb324aef9000000000000000000000000ea78d8595ab0127c283297af373a8f5ce7288bb00000000000000000000000000000000000000000000000000000000000018696",
          "blockHash": "0x99fafbbdbf666178b1d5860a6bda81b9e834af79d4de56e8bbb21559a1d4af83",
          "blockNumber": "0x1738e4a",
          "blockTimestamp": "0x697d1e3f",
          "transactionHash": "0x4978be989b46b2b4c1a2de8efe1d51abbc57af7f6654924ef2e077b084668f3b",
          "transactionIndex": "0x23",
          "logIndex": "0xf2",
          "removed": false
        },
        {
          "address": "0xa0b86991c6218b36c1d19d4a2e9eb0ce3606eb48",
          "topics": [
            "0xddf252ad1be2c89b69c2b068fc378daa952ba7f163c4a11628f55a4df523b3ef",
            "0x000000000000000000000000ea78d8595ab0127c283297af373a8f5ce7288bb0",
            "0x000000000000000000000000ae36b9c6a5f79ccf37a9cf5f524f01ee4e84a1ab"
          ],
          "data": "0x00000000000000000000000000000000000000000000000000000000000186a0",
          "blockHash": "0x99fafbbdbf666178b1d5860a6bda81b9e834af79d4de56e8bbb21559a1d4af83",
          "blockNumber": "0x1738e4a",
          "blockTimestamp": "0x697d1e3f",
          "transactionHash": "0x4978be989b46b2b4c1a2de8efe1d51abbc57af7f6654924ef2e077b084668f3b",
          "transactionIndex": "0x23",
          "logIndex": "0xf3",
          "removed": false
        },
        {
          "address": "0xae36b9c6a5f79ccf37a9cf5f524f01ee4e84a1ab",
          "topics": [
            "0xddf252ad1be2c89b69c2b068fc378daa952ba7f163c4a11628f55a4df523b3ef",
            "0x0000000000000000000000000000000000000000000000000000000000000000",
            "0x000000000000000000000000ea78d8595ab0127c283297af373a8f5ce7288bb0"
          ],
          "data": "0x0000000000000000000000000000000000000000000000000000000000018696",
          "blockHash": "0x99fafbbdbf666178b1d5860a6bda81b9e834af79d4de56e8bbb21559a1d4af83",
          "blockNumber": "0x1738e4a",
          "blockTimestamp": "0x697d1e3f",
          "transactionHash": "0x4978be989b46b2b4c1a2de8efe1d51abbc57af7f6654924ef2e077b084668f3b",
          "transactionIndex": "0x23",
          "logIndex": "0xf4",
          "removed": false
        },
        {
          "address": "0x3c2a3212fe0c0d5dddc1d874eb944c30153e0a20",
          "topics": [
            "0xddf252ad1be2c89b69c2b068fc378daa952ba7f163c4a11628f55a4df523b3ef",
            "0x0000000000000000000000000000000000000000000000000000000000000000",
            "0x000000000000000000000000ea78d8595ab0127c283297af373a8f5ce7288bb0"
          ],
          "data": "0x0000000000000000000000000000000000000000000000000000000000018696",
          "blockHash": "0x99fafbbdbf666178b1d5860a6bda81b9e834af79d4de56e8bbb21559a1d4af83",
          "blockNumber": "0x1738e4a",
          "blockTimestamp": "0x697d1e3f",
          "transactionHash": "0x4978be989b46b2b4c1a2de8efe1d51abbc57af7f6654924ef2e077b084668f3b",
          "transactionIndex": "0x23",
          "logIndex": "0xf5",
          "removed": false
        },
        {
          "address": "0x3c2a3212fe0c0d5dddc1d874eb944c30153e0a20",
          "topics": [
            "0xab8530f87dc9b59234c4623bf917212bb2536d647574c8e7e5da92c2ede0c9f8"
          ],
          "data": "0x0000000000000000000000003c2a3212fe0c0d5dddc1d874eb944c30153e0a20000000000000000000000000ea78d8595ab0127c283297af373a8f5ce7288bb00000000000000000000000000000000000000000000000000000000000018696",
          "blockHash": "0x99fafbbdbf666178b1d5860a6bda81b9e834af79d4de56e8bbb21559a1d4af83",
          "blockNumber": "0x1738e4a",
          "blockTimestamp": "0x697d1e3f",
          "transactionHash": "0x4978be989b46b2b4c1a2de8efe1d51abbc57af7f6654924ef2e077b084668f3b",
          "transactionIndex": "0x23",
          "logIndex": "0xf6",
          "removed": false
        },
        {
          "address": "0xa0b86991c6218b36c1d19d4a2e9eb0ce3606eb48",
          "topics": [
            "0xddf252ad1be2c89b69c2b068fc378daa952ba7f163c4a11628f55a4df523b3ef",
            "0x000000000000000000000000ea78d8595ab0127c283297af373a8f5ce7288bb0",
            "0x000000000000000000000000dca3bba9cce395bb451ba82929aec71eb3959ec8"
          ],
          "data": "0x00000000000000000000000000000000000000000000000000000000000186a0",
          "blockHash": "0x99fafbbdbf666178b1d5860a6bda81b9e834af79d4de56e8bbb21559a1d4af83",
          "blockNumber": "0x1738e4a",
          "blockTimestamp": "0x697d1e3f",
          "transactionHash": "0x4978be989b46b2b4c1a2de8efe1d51abbc57af7f6654924ef2e077b084668f3b",
          "transactionIndex": "0x23",
          "logIndex": "0xf7",
          "removed": false
        },
        {
          "address": "0xdca3bba9cce395bb451ba82929aec71eb3959ec8",
          "topics": [
            "0xddf252ad1be2c89b69c2b068fc378daa952ba7f163c4a11628f55a4df523b3ef",
            "0x0000000000000000000000000000000000000000000000000000000000000000",
            "0x000000000000000000000000ea78d8595ab0127c283297af373a8f5ce7288bb0"
          ],
          "data": "0x0000000000000000000000000000000000000000000000000000000000018696",
          "blockHash": "0x99fafbbdbf666178b1d5860a6bda81b9e834af79d4de56e8bbb21559a1d4af83",
          "blockNumber": "0x1738e4a",
          "blockTimestamp": "0x697d1e3f",
          "transactionHash": "0x4978be989b46b2b4c1a2de8efe1d51abbc57af7f6654924ef2e077b084668f3b",
          "transactionIndex": "0x23",
          "logIndex": "0xf8",
          "removed": false
        },
        {
          "address": "0xee56d9576d50a3699975d105b006c201ba4a84cd",
          "topics": [
            "0xddf252ad1be2c89b69c2b068fc378daa952ba7f163c4a11628f55a4df523b3ef",
            "0x0000000000000000000000000000000000000000000000000000000000000000",
            "0x000000000000000000000000ea78d8595ab0127c283297af373a8f5ce7288bb0"
          ],
          "data": "0x0000000000000000000000000000000000000000000000000000000000018696",
          "blockHash": "0x99fafbbdbf666178b1d5860a6bda81b9e834af79d4de56e8bbb21559a1d4af83",
          "blockNumber": "0x1738e4a",
          "blockTimestamp": "0x697d1e3f",
          "transactionHash": "0x4978be989b46b2b4c1a2de8efe1d51abbc57af7f6654924ef2e077b084668f3b",
          "transactionIndex": "0x23",
          "logIndex": "0xf9",
          "removed": false
        },
        {
          "address": "0xee56d9576d50a3699975d105b006c201ba4a84cd",
          "topics": [
            "0xab8530f87dc9b59234c4623bf917212bb2536d647574c8e7e5da92c2ede0c9f8"
          ],
          "data": "0x000000000000000000000000ee56d9576d50a3699975d105b006c201ba4a84cd000000000000000000000000ea78d8595ab0127c283297af373a8f5ce7288bb00000000000000000000000000000000000000000000000000000000000018696",
          "blockHash": "0x99fafbbdbf666178b1d5860a6bda81b9e834af79d4de56e8bbb21559a1d4af83",
          "blockNumber": "0x1738e4a",
          "blockTimestamp": "0x697d1e3f",
          "transactionHash": "0x4978be989b46b2b4c1a2de8efe1d51abbc57af7f6654924ef2e077b084668f3b",
          "transactionIndex": "0x23",
          "logIndex": "0xfa",
          "removed": false
        },
        {
          "address": "0xa0b86991c6218b36c1d19d4a2e9eb0ce3606eb48",
          "topics": [
            "0xddf252ad1be2c89b69c2b068fc378daa952ba7f163c4a11628f55a4df523b3ef",
            "0x000000000000000000000000ea78d8595ab0127c283297af373a8f5ce7288bb0",
            "0x000000000000000000000000bc90a94f0526691f9ff7168843245b3f9f2a0858"
          ],
          "data": "0x00000000000000000000000000000000000000000000000000000000000186a0",
          "blockHash": "0x99fafbbdbf666178b1d5860a6bda81b9e834af79d4de56e8bbb21559a1d4af83",
          "blockNumber": "0x1738e4a",
          "blockTimestamp": "0x697d1e3f",
          "transactionHash": "0x4978be989b46b2b4c1a2de8efe1d51abbc57af7f6654924ef2e077b084668f3b",
          "transactionIndex": "0x23",
          "logIndex": "0xfb",
          "removed": false
        },
        {
          "address": "0xbc90a94f0526691f9ff7168843245b3f9f2a0858",
          "topics": [
            "0xddf252ad1be2c89b69c2b068fc378daa952ba7f163c4a11628f55a4df523b3ef",
            "0x0000000000000000000000000000000000000000000000000000000000000000",
            "0x000000000000000000000000ea78d8595ab0127c283297af373a8f5ce7288bb0"
          ],
          "data": "0x0000000000000000000000000000000000000000000000000000000000018696",
          "blockHash": "0x99fafbbdbf666178b1d5860a6bda81b9e834af79d4de56e8bbb21559a1d4af83",
          "blockNumber": "0x1738e4a",
          "blockTimestamp": "0x697d1e3f",
          "transactionHash": "0x4978be989b46b2b4c1a2de8efe1d51abbc57af7f6654924ef2e077b084668f3b",
          "transactionIndex": "0x23",
          "logIndex": "0xfc",
          "removed": false
        },
        {
          "address": "0x34a9fcd095413fd0fe8b36b4432fc40d5b6cc7a4",
          "topics": [
            "0xddf252ad1be2c89b69c2b068fc378daa952ba7f163c4a11628f55a4df523b3ef",
            "0x0000000000000000000000000000000000000000000000000000000000000000",
            "0x000000000000000000000000ea78d8595ab0127c283297af373a8f5ce7288bb0"
          ],
          "data": "0x0000000000000000000000000000000000000000000000000000000000018696",
          "blockHash": "0x99fafbbdbf666178b1d5860a6bda81b9e834af79d4de56e8bbb21559a1d4af83",
          "blockNumber": "0x1738e4a",
          "blockTimestamp": "0x697d1e3f",
          "transactionHash": "0x4978be989b46b2b4c1a2de8efe1d51abbc57af7f6654924ef2e077b084668f3b",
          "transactionIndex": "0x23",
          "logIndex": "0xfd",
          "removed": false
        },
        {
          "address": "0x34a9fcd095413fd0fe8b36b4432fc40d5b6cc7a4",
          "topics": [
            "0xab8530f87dc9b59234c4623bf917212bb2536d647574c8e7e5da92c2ede0c9f8"
          ],
          "data": "0x00000000000000000000000034a9fcd095413fd0fe8b36b4432fc40d5b6cc7a4000000000000000000000000ea78d8595ab0127c283297af373a8f5ce7288bb00000000000000000000000000000000000000000000000000000000000018696",
          "blockHash": "0x99fafbbdbf666178b1d5860a6bda81b9e834af79d4de56e8bbb21559a1d4af83",
          "blockNumber": "0x1738e4a",
          "blockTimestamp": "0x697d1e3f",
          "transactionHash": "0x4978be989b46b2b4c1a2de8efe1d51abbc57af7f6654924ef2e077b084668f3b",
          "transactionIndex": "0x23",
          "logIndex": "0xfe",
          "removed": false
        },
        {
          "address": "0xa0b86991c6218b36c1d19d4a2e9eb0ce3606eb48",
          "topics": [
            "0xddf252ad1be2c89b69c2b068fc378daa952ba7f163c4a11628f55a4df523b3ef",
            "0x000000000000000000000000ea78d8595ab0127c283297af373a8f5ce7288bb0",
            "0x0000000000000000000000001ca50f98db734f4f1dd26bb462aa33612409f2d7"
          ],
          "data": "0x00000000000000000000000000000000000000000000000000000000000186a0",
          "blockHash": "0x99fafbbdbf666178b1d5860a6bda81b9e834af79d4de56e8bbb21559a1d4af83",
          "blockNumber": "0x1738e4a",
          "blockTimestamp": "0x697d1e3f",
          "transactionHash": "0x4978be989b46b2b4c1a2de8efe1d51abbc57af7f6654924ef2e077b084668f3b",
          "transactionIndex": "0x23",
          "logIndex": "0xff",
          "removed": false
        },
        {
          "address": "0x1ca50f98db734f4f1dd26bb462aa33612409f2d7",
          "topics": [
            "0xddf252ad1be2c89b69c2b068fc378daa952ba7f163c4a11628f55a4df523b3ef",
            "0x0000000000000000000000000000000000000000000000000000000000000000",
            "0x000000000000000000000000ea78d8595ab0127c283297af373a8f5ce7288bb0"
          ],
          "data": "0x0000000000000000000000000000000000000000000000000000000000018696",
          "blockHash": "0x99fafbbdbf666178b1d5860a6bda81b9e834af79d4de56e8bbb21559a1d4af83",
          "blockNumber": "0x1738e4a",
          "blockTimestamp": "0x697d1e3f",
          "transactionHash": "0x4978be989b46b2b4c1a2de8efe1d51abbc57af7f6654924ef2e077b084668f3b",
          "transactionIndex": "0x23",
          "logIndex": "0x100",
          "removed": false
        },
        {
          "address": "0x91fd0c60459e263d1faccbe0019106a795f3ffa5",
          "topics": [
            "0xddf252ad1be2c89b69c2b068fc378daa952ba7f163c4a11628f55a4df523b3ef",
            "0x0000000000000000000000000000000000000000000000000000000000000000",
            "0x000000000000000000000000ea78d8595ab0127c283297af373a8f5ce7288bb0"
          ],
          "data": "0x0000000000000000000000000000000000000000000000000000000000018696",
          "blockHash": "0x99fafbbdbf666178b1d5860a6bda81b9e834af79d4de56e8bbb21559a1d4af83",
          "blockNumber": "0x1738e4a",
          "blockTimestamp": "0x697d1e3f",
          "transactionHash": "0x4978be989b46b2b4c1a2de8efe1d51abbc57af7f6654924ef2e077b084668f3b",
          "transactionIndex": "0x23",
          "logIndex": "0x101",
          "removed": false
        },
        {
          "address": "0x91fd0c60459e263d1faccbe0019106a795f3ffa5",
          "topics": [
            "0xab8530f87dc9b59234c4623bf917212bb2536d647574c8e7e5da92c2ede0c9f8"
          ],
          "data": "0x00000000000000000000000091fd0c60459e263d1faccbe0019106a795f3ffa5000000000000000000000000ea78d8595ab0127c283297af373a8f5ce7288bb00000000000000000000000000000000000000000000000000000000000018696",
          "blockHash": "0x99fafbbdbf666178b1d5860a6bda81b9e834af79d4de56e8bbb21559a1d4af83",
          "blockNumber": "0x1738e4a",
          "blockTimestamp": "0x697d1e3f",
          "transactionHash": "0x4978be989b46b2b4c1a2de8efe1d51abbc57af7f6654924ef2e077b084668f3b",
          "transactionIndex": "0x23",
          "logIndex": "0x102",
          "removed": false
        },
        {
          "address": "0xa0b86991c6218b36c1d19d4a2e9eb0ce3606eb48",
          "topics": [
            "0xddf252ad1be2c89b69c2b068fc378daa952ba7f163c4a11628f55a4df523b3ef",
            "0x000000000000000000000000ea78d8595ab0127c283297af373a8f5ce7288bb0",
            "0x000000000000000000000000b4ebe97353643d6be366edccd289bfe4adf78eae"
          ],
          "data": "0x00000000000000000000000000000000000000000000000000000000000186a0",
          "blockHash": "0x99fafbbdbf666178b1d5860a6bda81b9e834af79d4de56e8bbb21559a1d4af83",
          "blockNumber": "0x1738e4a",
          "blockTimestamp": "0x697d1e3f",
          "transactionHash": "0x4978be989b46b2b4c1a2de8efe1d51abbc57af7f6654924ef2e077b084668f3b",
          "transactionIndex": "0x23",
          "logIndex": "0x103",
          "removed": false
        },
        {
          "address": "0xb4ebe97353643d6be366edccd289bfe4adf78eae",
          "topics": [
            "0xddf252ad1be2c89b69c2b068fc378daa952ba7f163c4a11628f55a4df523b3ef",
            "0x0000000000000000000000000000000000000000000000000000000000000000",
            "0x000000000000000000000000ea78d8595ab0127c283297af373a8f5ce7288bb0"
          ],
          "data": "0x0000000000000000000000000000000000000000000000000000000000018696",
          "blockHash": "0x99fafbbdbf666178b1d5860a6bda81b9e834af79d4de56e8bbb21559a1d4af83",
          "blockNumber": "0x1738e4a",
          "blockTimestamp": "0x697d1e3f",
          "transactionHash": "0x4978be989b46b2b4c1a2de8efe1d51abbc57af7f6654924ef2e077b084668f3b",
          "transactionIndex": "0x23",
          "logIndex": "0x104",
          "removed": false
        },
        {
          "address": "0x38880b43b387cb509ba892423b0862ebd793d38c",
          "topics": [
            "0xddf252ad1be2c89b69c2b068fc378daa952ba7f163c4a11628f55a4df523b3ef",
            "0x0000000000000000000000000000000000000000000000000000000000000000",
            "0x000000000000000000000000ea78d8595ab0127c283297af373a8f5ce7288bb0"
          ],
          "data": "0x0000000000000000000000000000000000000000000000000000000000018696",
          "blockHash": "0x99fafbbdbf666178b1d5860a6bda81b9e834af79d4de56e8bbb21559a1d4af83",
          "blockNumber": "0x1738e4a",
          "blockTimestamp": "0x697d1e3f",
          "transactionHash": "0x4978be989b46b2b4c1a2de8efe1d51abbc57af7f6654924ef2e077b084668f3b",
          "transactionIndex": "0x23",
          "logIndex": "0x105",
          "removed": false
        },
        {
          "address": "0x38880b43b387cb509ba892423b0862ebd793d38c",
          "topics": [
            "0xab8530f87dc9b59234c4623bf917212bb2536d647574c8e7e5da92c2ede0c9f8"
          ],
          "data": "0x00000000000000000000000038880b43b387cb509ba892423b0862ebd793d38c000000000000000000000000ea78d8595ab0127c283297af373a8f5ce7288bb00000000000000000000000000000000000000000000000000000000000018696",
          "blockHash": "0x99fafbbdbf666178b1d5860a6bda81b9e834af79d4de56e8bbb21559a1d4af83",
          "blockNumber": "0x1738e4a",
          "blockTimestamp": "0x697d1e3f",
          "transactionHash": "0x4978be989b46b2b4c1a2de8efe1d51abbc57af7f6654924ef2e077b084668f3b",
          "transactionIndex": "0x23",
          "logIndex": "0x106",
          "removed": false
        },
        {
          "address": "0xa0b86991c6218b36c1d19d4a2e9eb0ce3606eb48",
          "topics": [
            "0xddf252ad1be2c89b69c2b068fc378daa952ba7f163c4a11628f55a4df523b3ef",
            "0x000000000000000000000000ea78d8595ab0127c283297af373a8f5ce7288bb0",
            "0x0000000000000000000000009917bd40881c658743f2434302260b6e81781553"
          ],
          "data": "0x00000000000000000000000000000000000000000000000000000000000186a0",
          "blockHash": "0x99fafbbdbf666178b1d5860a6bda81b9e834af79d4de56e8bbb21559a1d4af83",
          "blockNumber": "0x1738e4a",
          "blockTimestamp": "0x697d1e3f",
          "transactionHash": "0x4978be989b46b2b4c1a2de8efe1d51abbc57af7f6654924ef2e077b084668f3b",
          "transactionIndex": "0x23",
          "logIndex": "0x107",
          "removed": false
        },
        {
          "address": "0x9917bd40881c658743f2434302260b6e81781553",
          "topics": [
            "0xddf252ad1be2c89b69c2b068fc378daa952ba7f163c4a11628f55a4df523b3ef",
            "0x0000000000000000000000000000000000000000000000000000000000000000",
            "0x000000000000000000000000ea78d8595ab0127c283297af373a8f5ce7288bb0"
          ],
          "data": "0x0000000000000000000000000000000000000000000000000000000000018696",
          "blockHash": "0x99fafbbdbf666178b1d5860a6bda81b9e834af79d4de56e8bbb21559a1d4af83",
          "blockNumber": "0x1738e4a",
          "blockTimestamp": "0x697d1e3f",
          "transactionHash": "0x4978be989b46b2b4c1a2de8efe1d51abbc57af7f6654924ef2e077b084668f3b",
          "transactionIndex": "0x23",
          "logIndex": "0x108",
          "removed": false
        },
        {
          "address": "0xede9e917280e5bcf5270d9ae85578dd7b10aee05",
          "topics": [
            "0xddf252ad1be2c89b69c2b068fc378daa952ba7f163c4a11628f55a4df523b3ef",
            "0x0000000000000000000000000000000000000000000000000000000000000000",
            "0x000000000000000000000000ea78d8595ab0127c283297af373a8f5ce7288bb0"
          ],
          "data": "0x0000000000000000000000000000000000000000000000000000000000018696",
          "blockHash": "0x99fafbbdbf666178b1d5860a6bda81b9e834af79d4de56e8bbb21559a1d4af83",
          "blockNumber": "0x1738e4a",
          "blockTimestamp": "0x697d1e3f",
          "transactionHash": "0x4978be989b46b2b4c1a2de8efe1d51abbc57af7f6654924ef2e077b084668f3b",
          "transactionIndex": "0x23",
          "logIndex": "0x109",
          "removed": false
        },
        {
          "address": "0xede9e917280e5bcf5270d9ae85578dd7b10aee05",
          "topics": [
            "0xab8530f87dc9b59234c4623bf917212bb2536d647574c8e7e5da92c2ede0c9f8"
          ],
          "data": "0x000000000000000000000000ede9e917280e5bcf5270d9ae85578dd7b10aee05000000000000000000000000ea78d8595ab0127c283297af373a8f5ce7288bb00000000000000000000000000000000000000000000000000000000000018696",
          "blockHash": "0x99fafbbdbf666178b1d5860a6bda81b9e834af79d4de56e8bbb21559a1d4af83",
          "blockNumber": "0x1738e4a",
          "blockTimestamp": "0x697d1e3f",
          "transactionHash": "0x4978be989b46b2b4c1a2de8efe1d51abbc57af7f6654924ef2e077b084668f3b",
          "transactionIndex": "0x23",
          "logIndex": "0x10a",
          "removed": false
        },
        {
          "address": "0xa0b86991c6218b36c1d19d4a2e9eb0ce3606eb48",
          "topics": [
            "0xddf252ad1be2c89b69c2b068fc378daa952ba7f163c4a11628f55a4df523b3ef",
            "0x000000000000000000000000ea78d8595ab0127c283297af373a8f5ce7288bb0",
            "0x00000000000000000000000050a3f505a206e90db7734aee351d308b294385b6"
          ],
          "data": "0x00000000000000000000000000000000000000000000000000000000000186a0",
          "blockHash": "0x99fafbbdbf666178b1d5860a6bda81b9e834af79d4de56e8bbb21559a1d4af83",
          "blockNumber": "0x1738e4a",
          "blockTimestamp": "0x697d1e3f",
          "transactionHash": "0x4978be989b46b2b4c1a2de8efe1d51abbc57af7f6654924ef2e077b084668f3b",
          "transactionIndex": "0x23",
          "logIndex": "0x10b",
          "removed": false
        },
        {
          "address": "0x50a3f505a206e90db7734aee351d308b294385b6",
          "topics": [
            "0xddf252ad1be2c89b69c2b068fc378daa952ba7f163c4a11628f55a4df523b3ef",
            "0x0000000000000000000000000000000000000000000000000000000000000000",
            "0x000000000000000000000000ea78d8595ab0127c283297af373a8f5ce7288bb0"
          ],
          "data": "0x0000000000000000000000000000000000000000000000000000000000018696",
          "blockHash": "0x99fafbbdbf666178b1d5860a6bda81b9e834af79d4de56e8bbb21559a1d4af83",
          "blockNumber": "0x1738e4a",
          "blockTimestamp": "0x697d1e3f",
          "transactionHash": "0x4978be989b46b2b4c1a2de8efe1d51abbc57af7f6654924ef2e077b084668f3b",
          "transactionIndex": "0x23",
          "logIndex": "0x10c",
          "removed": false
        },
        {
          "address": "0xe106ed8acf41c8007fe86633a642c25e3789d058",
          "topics": [
            "0xddf252ad1be2c89b69c2b068fc378daa952ba7f163c4a11628f55a4df523b3ef",
            "0x0000000000000000000000000000000000000000000000000000000000000000",
            "0x000000000000000000000000ea78d8595ab0127c283297af373a8f5ce7288bb0"
          ],
          "data": "0x0000000000000000000000000000000000000000000000000000000000018696",
          "blockHash": "0x99fafbbdbf666178b1d5860a6bda81b9e834af79d4de56e8bbb21559a1d4af83",
          "blockNumber": "0x1738e4a",
          "blockTimestamp": "0x697d1e3f",
          "transactionHash": "0x4978be989b46b2b4c1a2de8efe1d51abbc57af7f6654924ef2e077b084668f3b",
          "transactionIndex": "0x23",
          "logIndex": "0x10d",
          "removed": false
        },
        {
          "address": "0xe106ed8acf41c8007fe86633a642c25e3789d058",
          "topics": [
            "0xab8530f87dc9b59234c4623bf917212bb2536d647574c8e7e5da92c2ede0c9f8"
          ],
          "data": "0x000000000000000000000000e106ed8acf41c8007fe86633a642c25e3789d058000000000000000000000000ea78d8595ab0127c283297af373a8f5ce7288bb00000000000000000000000000000000000000000000000000000000000018696",
          "blockHash": "0x99fafbbdbf666178b1d5860a6bda81b9e834af79d4de56e8bbb21559a1d4af83",
          "blockNumber": "0x1738e4a",
          "blockTimestamp": "0x697d1e3f",
          "transactionHash": "0x4978be989b46b2b4c1a2de8efe1d51abbc57af7f6654924ef2e077b084668f3b",
          "transactionIndex": "0x23",
          "logIndex": "0x10e",
          "removed": false
        },
        {
          "address": "0xa0b86991c6218b36c1d19d4a2e9eb0ce3606eb48",
          "topics": [
            "0xddf252ad1be2c89b69c2b068fc378daa952ba7f163c4a11628f55a4df523b3ef",
            "0x000000000000000000000000ea78d8595ab0127c283297af373a8f5ce7288bb0",
            "0x000000000000000000000000dfbc5312889c0cb485c2354302ad04720b5b2d56"
          ],
          "data": "0x00000000000000000000000000000000000000000000000000000000000186a0",
          "blockHash": "0x99fafbbdbf666178b1d5860a6bda81b9e834af79d4de56e8bbb21559a1d4af83",
          "blockNumber": "0x1738e4a",
          "blockTimestamp": "0x697d1e3f",
          "transactionHash": "0x4978be989b46b2b4c1a2de8efe1d51abbc57af7f6654924ef2e077b084668f3b",
          "transactionIndex": "0x23",
          "logIndex": "0x10f",
          "removed": false
        },
        {
          "address": "0xdfbc5312889c0cb485c2354302ad04720b5b2d56",
          "topics": [
            "0xddf252ad1be2c89b69c2b068fc378daa952ba7f163c4a11628f55a4df523b3ef",
            "0x0000000000000000000000000000000000000000000000000000000000000000",
            "0x000000000000000000000000ea78d8595ab0127c283297af373a8f5ce7288bb0"
          ],
          "data": "0x0000000000000000000000000000000000000000000000000000000000018696",
          "blockHash": "0x99fafbbdbf666178b1d5860a6bda81b9e834af79d4de56e8bbb21559a1d4af83",
          "blockNumber": "0x1738e4a",
          "blockTimestamp": "0x697d1e3f",
          "transactionHash": "0x4978be989b46b2b4c1a2de8efe1d51abbc57af7f6654924ef2e077b084668f3b",
          "transactionIndex": "0x23",
          "logIndex": "0x110",
          "removed": false
        },
        {
          "address": "0x5d191ff8c608702afcc18e57e37d5115b8396770",
          "topics": [
            "0xddf252ad1be2c89b69c2b068fc378daa952ba7f163c4a11628f55a4df523b3ef",
            "0x0000000000000000000000000000000000000000000000000000000000000000",
            "0x000000000000000000000000ea78d8595ab0127c283297af373a8f5ce7288bb0"
          ],
          "data": "0x0000000000000000000000000000000000000000000000000000000000018696",
          "blockHash": "0x99fafbbdbf666178b1d5860a6bda81b9e834af79d4de56e8bbb21559a1d4af83",
          "blockNumber": "0x1738e4a",
          "blockTimestamp": "0x697d1e3f",
          "transactionHash": "0x4978be989b46b2b4c1a2de8efe1d51abbc57af7f6654924ef2e077b084668f3b",
          "transactionIndex": "0x23",
          "logIndex": "0x111",
          "removed": false
        },
        {
          "address": "0x5d191ff8c608702afcc18e57e37d5115b8396770",
          "topics": [
            "0xab8530f87dc9b59234c4623bf917212bb2536d647574c8e7e5da92c2ede0c9f8"
          ],
          "data": "0x0000000000000000000000005d191ff8c608702afcc18e57e37d5115b8396770000000000000000000000000ea78d8595ab0127c283297af373a8f5ce7288bb00000000000000000000000000000000000000000000000000000000000018696",
          "blockHash": "0x99fafbbdbf666178b1d5860a6bda81b9e834af79d4de56e8bbb21559a1d4af83",
          "blockNumber": "0x1738e4a",
          "blockTimestamp": "0x697d1e3f",
          "transactionHash": "0x4978be989b46b2b4c1a2de8efe1d51abbc57af7f6654924ef2e077b084668f3b",
          "transactionIndex": "0x23",
          "logIndex": "0x112",
          "removed": false
        },
        {
          "address": "0x4ae3f9116adccbba2024e8c7f1b00b0ad9dc81e0",
          "topics": [
            "0x611f26bf2585849cbf69943da0d36aa65af0e05243c378f900b524f05e6c84b2",
            "0x000000000000000000000000ea78d8595ab0127c283297af373a8f5ce7288bb0"
          ],
          "data": "0x000000000000000000000000000000000000000000000000000000000000001b00000000000000000000000000000000000000000000000000000000002932e0",
          "blockHash": "0x99fafbbdbf666178b1d5860a6bda81b9e834af79d4de56e8bbb21559a1d4af83",
          "blockNumber": "0x1738e4a",
          "blockTimestamp": "0x697d1e3f",
          "transactionHash": "0x4978be989b46b2b4c1a2de8efe1d51abbc57af7f6654924ef2e077b084668f3b",
          "transactionIndex": "0x23",
          "logIndex": "0x113",
          "removed": false
        }
      ],
      "logsBloom": "0x0480080040400010208000180200100002401090030640004081050000040000042000000040004080d80800832402000100828800080093c00120140000200a008000000000d1b80800444a800008112811011100801400850900000800000000020441020001801800000020008805009801100000810301004810001400002800000000204d080608002400000008002cc00c25500042a22801010000100201002000150026100000401100420800000000000080004882248c01480402041410500340020000a000240240002000830008100014140010000000000c202084408000001228100000080000002209400002008008000c08020021400088a0",
      "type": "0x2",
      "transactionHash": "0x4978be989b46b2b4c1a2de8efe1d51abbc57af7f6654924ef2e077b084668f3b",
      "transactionIndex": "0x23",
      "blockHash": "0x99fafbbdbf666178b1d5860a6bda81b9e834af79d4de56e8bbb21559a1d4af83",
      "blockNumber": "0x1738e4a",
      "gasUsed": "0x4979a7",
      "effectiveGasPrice": "0x574cb96b",
      "from": "0xea78d8595ab0127c283297af373a8f5ce7288bb0",
      "to": "0x4ae3f9116adccbba2024e8c7f1b00b0ad9dc81e0",
      "contractAddress": null
    }
  ],
  "libraries": [],
  "pending": [],
  "returns": {},
  "timestamp": 1769807426235,
  "chain": 1,
  "commit": null
}