{
  "transactions": [
    {
      "hash": "0xb9edc0fa936723bf343f7472e5c43c8616f72be85f783841050c12e03eae73c4",
      "transactionType": "CREATE",
      "contractName": "BatchMinter",
      "contractAddress": "0x984a5b8de953d39b3128c2b6570219d14a5f2759",
      "function": null,
      "arguments": null,
      "transaction": {
        "from": "0xea78d8595ab0127c283297af373a8f5ce7288bb0",
        "gas": "0x48db6",
        "value": "0x0",
        "input": "0x60808060405234601557610330908161001a8239f35b5f80fdfe60806040526004361015610011575f80fd5b5f3560e01c8063685731071461009f5763f62d89ac1461002f575f80fd5b3461009b57602036600319011261009b5760043567ffffffffffffffff811161009b576100609036906004016100fe565b5f9182915b80841061007757602083604051908152f35b909161009160019161008a86858761012f565b3590610167565b9301929190610065565b5f80fd5b3461009b57604036600319011261009b5760043567ffffffffffffffff811161009b576100d09036906004016100fe565b6024359167ffffffffffffffff831161009b576100f46100fc9336906004016100fe565b929091610188565b005b9181601f8401121561009b5782359167ffffffffffffffff831161009b576020808501948460051b01011161009b57565b919081101561013f5760051b0190565b634e487b7160e01b5f52603260045260245ffd5b356001600160a01b038116810361009b5790565b9190820180921161017457565b634e487b7160e01b5f52601160045260245ffd5b929190928284036102eb5783156102e55791905f925f925b8584106101de575050505060405191825260208201527f611f26bf2585849cbf69943da0d36aa65af0e05243c378f900b524f05e6c84b260403392a2565b9293919290916001600160a01b036101ff6101fa87898761012f565b610153565b16156102d65761021085838661012f565b35156102c7576102259061008a86848761012f565b936001600160a01b0361023c6101fa83898761012f565b169061024981848761012f565b35823b1561009b575f926044849260405195869384926340c10f1960e01b845233600485015260248401525af180156102bc5761028e575b60019150019291906101a0565b67ffffffffffffffff82116102a857600191604052610281565b634e487b7160e01b5f52604160045260245ffd5b6040513d5f823e3d90fd5b631f2a200560e01b5f5260045ffd5b63d92e233d60e01b5f5260045ffd5b50505050565b63512509d360e11b5f5260045ffdfea26469706673582212209b6120cdf9a12e8785307a99ea630fbebfb928ee7b53e16359c702d50c4c653964736f6c63430008210033",
        "nonce": "0xb4",
        "chainId": "0x1"
      },
      "additionalContracts": [],
      "isFixedGasLimit": false
    },
    {
      "hash": "0x6047bb18b6a53211e28fb976f6d52d610fee9bcb9d889f612597343470faa046",
      "transactionType": "CALL",
      "contractName": null,
      "contractAddress": "0xc02aaa39b223fe8d0a0e5c4f27ead9083c756cc2",
      "function": "approve(address,uint256)",
      "arguments": [
        "0xC9071DFF211985709Be04Ba7FB0ABCBA82E609DC",
        "2800000"
      ],
      "transaction": {
        "from": "0xea78d8595ab0127c283297af373a8f5ce7288bb0",
        "to": "0xc02aaa39b223fe8d0a0e5c4f27ead9083c756cc2",
        "gas": "0xf847",
        "value": "0x0",
        "input": "0x095ea7b3000000000000000000000000c9071dff211985709be04ba7fb0abcba82e609dc00000000000000000000000000000000000000000000000000000000002ab980",
        "nonce": "0xb5",
        "chainId": "0x1"
      },
      "additionalContracts": [],
      "isFixedGasLimit": false
    },
    {
      "hash": "0x927aad62d548ba333b337888ec5f57376ab35bd9ca93a6ae64b808baa24da2a7",
      "transactionType": "CALL",
      "contractName": null,
      "contractAddress": "0xc9071dff211985709be04ba7fb0abcba82e609dc",
      "function": "approve(address,uint256)",
      "arguments": [
        "0xC02aaA39b223FE8D0A0e5C4F27eAD9083C756Cc2",
        "2800000"
      ],
      "transaction": {
        "from": "0xea78d8595ab0127c283297af373a8f5ce7288bb0",
        "to": "0xc9071dff211985709be04ba7fb0abcba82e609dc",
        "gas": "0xb596",
        "value": "0x0",
        "input": "0x095ea7b3000000000000000000000000c02aaa39b223fe8d0a0e5c4f27ead9083c756cc200000000000000000000000000000000000000000000000000000000002ab980",
        "nonce": "0xb6",
        "chainId": "0x1"
      },
      "additionalContracts": [],
      "isFixedGasLimit": false
    },
    {
      "hash": "0x1cb8a5a53512c7f6ef62ce4fed43fba865e1aad9b2cbc134221e79bf9e0c4468",
      "transactionType": "CALL",
      "contractName": "BatchMinter",
      "contractAddress": "0x984a5b8de953d39b3128c2b6570219d14a5f2759",
      "function": "batchMint(address[],uint256[])",
      "arguments": [
        "[0x93a8f0E3b2103F2DeeA8EcefD86701b41b7810eA, 0xE32d43a933Ed31965BacDC7Ba447175f299C7629, 0x21893402F39eD825777cD90dc69E1eaa592E08d2, 0xF1Ac5401A7e3bfa43bB7C7fd35d2E5C5b2ef26e3, 0x9fCfE70EF948B624b56Ff0258a7983A6BD32deE4, 0x4930fF225799eE51238B3dF04F3514087BC0DA02, 0xAb04Bdab9B5Dc0aD04d4809D500C19C822272b84, 0xD6eCA8F0Bb5ca0Aff56cB972D34bACF589eec834, 0x369A058B4a7343ce67BEbe2bfeb5eaB61FA50DE8, 0x12736710E5FB0367239caF88CdaDF8026221b959, 0xe65F48d43e3DDD43d3e3CbD59AF9cA2Bacbb84e1, 0x8b2e67d17CE9aEc4d51bb690c632dcBF4DE6C68a, 0xCA1685e45198c37ea5B29579320DaF34d528EbbE, 0x90b1916F693727129cbEEd3c511c5fB3359D8614, 0x14aC1795916b1242DDb8bD9b09859f7B4af678b4, 0x6FF8Aed4F0d88Bf3Ac968E02C0A2041c6652b9Bb, 0xa127f6D2233DAE96066EE8eCC8a09b0a2C782FDF, 0xB9D2a9C29BC2259A1dab70a8D56A3053b95A4904, 0xAFef03aaBc2727226a5C78f8ef34078f857C5eC0, 0x16Df5093A1393336C2Ef81A48aE37c76bB69Ce37, 0xADa77b932375a2db6e084DbeedEcD6008fC11b01, 0x65377F1f4F067A468D9A99cfe5A2D2078097Fb8E, 0x3213D3a004A7721b694266A93C8033F461139099, 0x2b7e70bC81566B23F9Ab5d7fB85EB723eA793ad6, 0xDFfD4F0747E4CC055973e07CCF34610eE9f507a5, 0xd127Fbe6415e406a14eBB2A2Ed431d5EaCc8ba2f, 0x47a79d2395AF93D4f0b43167b0E22E2AfaDC3F73, 0xa1Cb11B8eCA1Ce978a8F4E68ed205E1179cc0606]",
        "[100000, 100000, 100000, 100000, 100000, 100000, 100000, 100000, 100000, 100000, 100000, 100000, 100000, 100000, 100000, 100000, 100000, 100000, 100000, 100000, 100000, 100000, 100000, 100000, 100000, 100000, 100000, 100000]"
      ],
      "transaction": {
        "from": "0xea78d8595ab0127c283297af373a8f5ce7288bb0",
        "to": "0x984a5b8de953d39b3128c2b6570219d14a5f2759",
        "gas": "0x2c8aab",
        "value": "0x0",
        "input": "0x68573107000000000000000000000000000000000000000000000000000000000000004000000000000000000000000000000000000000000000000000000000000003e0000000000000000000000000000000000000000000000000000000000000001c00000000000000000000000093a8f0e3b2103f2deea8ecefd86701b41b7810ea000000000000000000000000e32d43a933ed31965bacdc7ba447175f299c762900000000000000000000000021893402f39ed825777cd90dc69e1eaa592e08d2000000000000000000000000f1ac5401a7e3bfa43bb7c7fd35d2e5c5b2ef26e30000000000000000000000009fcfe70ef948b624b56ff0258a7983a6bd32dee40000000000000000000000004930ff225799ee51238b3df04f3514087bc0da02000000000000000000000000ab04bdab9b5dc0ad04d4809d500c19c822272b84000000000000000000000000d6eca8f0bb5ca0aff56cb972d34bacf589eec834000000000000000000000000369a058b4a7343ce67bebe2bfeb5eab61fa50de800000000000000000000000012736710e5fb0367239caf88cdadf8026221b959000000000000000000000000e65f48d43e3ddd43d3e3cbd59af9ca2bacbb84e10000000000000000000000008b2e67d17ce9aec4d51bb690c632dcbf4de6c68a000000000000000000000000ca1685e45198c37ea5b29579320daf34d528ebbe00000000000000000000000090b1916f693727129cbeed3c511c5fb3359d861400000000000000000000000014ac1795916b1242ddb8bd9b09859f7b4af678b40000000000000000000000006ff8aed4f0d88bf3ac968e02c0a2041c6652b9bb000000000000000000000000a127f6d2233dae96066ee8ecc8a09b0a2c782fdf000000000000000000000000b9d2a9c29bc2259a1dab70a8d56a3053b95a4904000000000000000000000000afef03aabc2727226a5c78f8ef34078f857c5ec000000000000000000000000016df5093a1393336c2ef81a48ae37c76bb69ce37000000000000000000000000ada77b932375a2db6e084dbeedecd6008fc11b0100000000000000000000000065377f1f4f067a468d9a99cfe5a2d2078097fb8e0000000000000000000000003213d3a004a7721b694266a93c8033f4611390990000000000000000000000002b7e70bc81566b23f9ab5d7fb85eb723ea793ad6000000000000000000000000dffd4f0747e4cc055973e07ccf34610ee9f507a5000000000000000000000000d127fbe6415e406a14ebb2a2ed431d5eacc8ba2f00000000000000000000000047a79d2395af93d4f0b43167b0e22e2afadc3f73000000000000000000000000a1cb11b8eca1ce978a8f4e68ed205e1179cc0606000000000000000000000000000000000000000000000000000000000000001c00000000000000000000000000000000000000000000000000000000000186a000000000000000000000000000000000000000000000000000000000000186a000000000000000000000000000000000000000000000000000000000000186a000000000000000000000000000000000000000000000000000000000000186a000000000000000000000000000000000000000000000000000000000000186a000000000000000000000000000000000000000000000000000000000000186a000000000000000000000000000000000000000000000000000000000000186a000000000000000000000000000000000000000000000000000000000000186a000000000000000000000000000000000000000000000000000000000000186a000000000000000000000000000000000000000000000000000000000000186a000000000000000000000000000000000000000000000000000000000000186a000000000000000000000000000000000000000000000000000000000000186a000000000000000000000000000000000000000000000000000000000000186a000000000000000000000000000000000000000000000000000000000000186a000000000000000000000000000000000000000000000000000000000000186a000000000000000000000000000000000000000000000000000000000000186a000000000000000000000000000000000000000000000000000000000000186a000000000000000000000000000000000000000000000000000000000000186a000000000000000000000000000000000000000000000000000000000000186a000000000000000000000000000000000000000000000000000000000000186a000000000000000000000000000000000000000000000000000000000000186a000000000000000000000000000000000000000000000000000000000000186a000000000000000000000000000000000000000000000000000000000000186a000000000000000000000000000000000000000000000000000000000000186a000000000000000000000000000000000000000000000000000000000000186a000000000000000000000000000000000000000000000000000000000000186a000000000000000000000000000000000000000000000000000000000000186a000000000000000000000000000000000000000000000000000000000000186a0",
        "nonce": "0xb7",
        "chainId": "0x1"
      },
      "additionalContracts": [],
      "isFixedGasLimit": false
    }
  ],
  "receipts": [
    {
      "status": "0x1",
      "cumulativeGasUsed": "0xe39b4d",
      "logs": [],
      "logsBloom": "0x00000000000000000000000000000000000000000000000000000000000000000000000000000000000000000000000000000000000000000000000000000000000000000000000000000000000000000000000000000000000000000000000000000000000000000000000000000000000000000000000000000000000000000000000000000000000000000000000000000000000000000000000000000000000000000000000000000000000000000000000000000000000000000000000000000000000000000000000000000000000000000000000000000000000000000000000000000000000000000000000000000000000000000000000000000000",
      "type": "0x2",
      "transactionHash": "0x6047bb18b6a53211e28fb976f6d52d610fee9bcb9d889f612597343470faa046",
      "transactionIndex": "0x90",
      "blockHash": "0x74d9217d14860d3f4a15ac94cbc27b3a863dedeb7fb1c2dc3ab2656cf557d52b",
      "blockNumber": "0x1738dfd",
      "gasUsed": "0x380b4",
      "effectiveGasPrice": "0x3a9b9b4f",
      "from": "0xea78d8595ab0127c283297af373a8f5ce7288bb0",
      "to": null,
      "contractAddress": "0x984a5b8de953d39b3128c2b6570219d14a5f2759"
    },
    {
      "status": "0x1",
      "cumulativeGasUsed": "0x1169d78",
      "logs": [
        {
          "address": "0xc02aaa39b223fe8d0a0e5c4f27ead9083c756cc2",
          "topics": [
            "0x8c5be1e5ebec7d5bd14f71427d1e84f3dd0314c0f7b2291e5b200ac8c7c3b925",
            "0x000000000000000000000000ea78d8595ab0127c283297af373a8f5ce7288bb0",
            "0x000000000000000000000000c9071dff211985709be04ba7fb0abcba82e609dc"
          ],
          "data": "0x00000000000000000000000000000000000000000000000000000000002ab980",
          "blockHash": "0x74d9217d14860d3f4a15ac94cbc27b3a863dedeb7fb1c2dc3ab2656cf557d52b",
          "blockNumber": "0x1738dfd",
          "blockTimestamp": "0x697d1aa3",
          "transactionHash": "0x927aad62d548ba333b337888ec5f57376ab35bd9ca93a6ae64b808baa24da2a7",
          "transactionIndex": "0xbc",
          "logIndex": "0x20d",
          "removed": false
        }
      ],
      "logsBloom": "0x00000000000000000000000000000000000000000000000000000000000000000000000000000000010000000000000002000000080000000000000000200000000000000000000000000000000000000000000000000000000000000000000000000400000000000000000000000000000000000000000000000000000000000000000000004000000000000000000000000000000000000000000000000000020000000000000000000000004000000000000000000800000000000000000000000000000000000000000000000400000000000000000000000000000000000010200000000000000000000000000000000000000000000000000000000000",
      "type": "0x2",
      "transactionHash": "0x927aad62d548ba333b337888ec5f57376ab35bd9ca93a6ae64b808baa24da2a7",
      "transactionIndex": "0xbc",
      "blockHash": "0x74d9217d14860d3f4a15ac94cbc27b3a863dedeb7fb1c2dc3ab2656cf557d52b",
      "blockNumber": "0x1738dfd",
      "gasUsed": "0xb3c0",
      "effectiveGasPrice": "0x3a9b9b4f",
      "from": "0xea78d8595ab0127c283297af373a8f5ce7288bb0",
      "to": "0xc02aaa39b223fe8d0a0e5c4f27ead9083c756cc2",
      "contractAddress": null
    },
    {
      "status": "0x1",
      "cumulativeGasUsed": "0x17d13ff",
      "logs": [],
      "logsBloom": "0x00000000000000000000000000000000000000000000000000000000000000000000000000000000000000000000000000000000000000000000000000000000000000000000000000000000000000000000000000000000000000000000000000000000000000000000000000000000000000000000000000000000000000000000000000000000000000000000000000000000000000000000000000000000000000000000000000000000000000000000000000000000000000000000000000000000000000000000000000000000000000000000000000000000000000000000000000000000000000000000000000000000000000000000000000000000",
      "type": "0x2",
      "transactionHash": "0x1cb8a5a53512c7f6ef62ce4fed43fba865e1aad9b2cbc134221e79bf9e0c4468",
      "transactionIndex": "0x113",
      "blockHash": "0xf72a612d29c0a61490a653815d2d5ce6c1e7da31ec691ac9ca5d2fb6d37e3a93",
      "blockNumber": "0x1738dfe",
      "gasUsed": "0x7c2a",
      "effectiveGasPrice": "0x38d00b3b",
      "from": "0xea78d8595ab0127c283297af373a8f5ce7288bb0",
      "to": "0xc9071dff211985709be04ba7fb0abcba82e609dc",
      "contractAddress": null
    },
    {
      "status": "0x1",
      "cumulativeGasUsed": "0x1611a7d",
      "logs": [
        {
          "address": "0xc02aaa39b223fe8d0a0e5c4f27ead9083c756cc2",
          "topics": [
            "0xddf252ad1be2c89b69c2b068fc378daa952ba7f163c4a11628f55a4df523b3ef",
            "0x000000000000000000000000ea78d8595ab0127c283297af373a8f5ce7288bb0",
            "0x0000000000000000000000006dbe5afa569c235210dee0fd86d56c6895611901"
          ],
          "data": "0x00000000000000000000000000000000000000000000000000000000000186a0",
          "blockHash": "0x74798659d2cb5af2d8d1065cc46a1b382643224e553389f3cbf59525a4e13a09",
          "blockNumber": "0x1738dff",
          "blockTimestamp": "0x697d1abb",
          "transactionHash": "0xb9edc0fa936723bf343f7472e5c43c8616f72be85f783841050c12e03eae73c4",
          "transactionIndex": "0xd3",
          "logIndex": "0x1cf",
          "removed": false
        },
        {
          "address": "0x6dbe5afa569c235210dee0fd86d56c6895611901",
          "topics": [
            "0xddf252ad1be2c89b69c2b068fc378daa952ba7f163c4a11628f55a4df523b3ef",
            "0x0000000000000000000000000000000000000000000000000000000000000000",
            "0x000000000000000000000000ea78d8595ab0127c283297af373a8f5ce7288bb0"
          ],
          "data": "0x0000000000000000000000000000000000000000000000000000000000018696",
          "blockHash": "0x74798659d2cb5af2d8d1065cc46a1b382643224e553389f3cbf59525a4e13a09",
          "blockNumber": "0x1738dff",
          "blockTimestamp": "0x697d1abb",
          "transactionHash": "0xb9edc0fa936723bf343f7472e5c43c8616f72be85f783841050c12e03eae73c4",
          "transactionIndex": "0xd3",
          "logIndex": "0x1d0",
          "removed": false
        },
        {
          "address": "0x93a8f0e3b2103f2deea8ecefd86701b41b7810ea",
          "topics": [
            "0xddf252ad1be2c89b69c2b068fc378daa952ba7f163c4a11628f55a4df523b3ef",
            "0x0000000000000000000000000000000000000000000000000000000000000000",
            "0x000000000000000000000000ea78d8595ab0127c283297af373a8f5ce7288bb0"
          ],
          "data": "0x0000000000000000000000000000000000000000000000000000000000018696",
          "blockHash": "0x74798659d2cb5af2d8d1065cc46a1b382643224e553389f3cbf59525a4e13a09",
          "blockNumber": "0x1738dff",
          "blockTimestamp": "0x697d1abb",
          "transactionHash": "0xb9edc0fa936723bf343f7472e5c43c8616f72be85f783841050c12e03eae73c4",
          "transactionIndex": "0xd3",
          "logIndex": "0x1d1",
          "removed": false
        },
        {
          "address": "0x93a8f0e3b2103f2deea8ecefd86701b41b7810ea",
          "topics": [
            "0xab8530f87dc9b59234c4623bf917212bb2536d647574c8e7e5da92c2ede0c9f8"
          ],
          "data": "0x00000000000000000000000093a8f0e3b2103f2deea8ecefd86701b41b7810ea000000000000000000000000ea78d8595ab0127c283297af373a8f5ce7288bb00000000000000000000000000000000000000000000000000000000000018696",
          "blockHash": "0x74798659d2cb5af2d8d1065cc46a1b382643224e553389f3cbf59525a4e13a09",
          "blockNumber": "0x1738dff",
          "blockTimestamp": "0x697d1abb",
          "transactionHash": "0xb9edc0fa936723bf343f7472e5c43c8616f72be85f783841050c12e03eae73c4",
          "transactionIndex": "0xd3",
          "logIndex": "0x1d2",
          "removed": false
        },
        {
          "address": "0xc02aaa39b223fe8d0a0e5c4f27ead9083c756cc2",
          "topics": [
            "0xddf252ad1be2c89b69c2b068fc378daa952ba7f163c4a11628f55a4df523b3ef",
            "0x000000000000000000000000ea78d8595ab0127c283297af373a8f5ce7288bb0",
            "0x000000000000000000000000ea0295ada7809765a386c6ec97d5ade7bb4999a8"
          ],
          "data": "0x00000000000000000000000000000000000000000000000000000000000186a0",
          "blockHash": "0x74798659d2cb5af2d8d1065cc46a1b382643224e553389f3cbf59525a4e13a09",
          "blockNumber": "0x1738dff",
          "blockTimestamp": "0x697d1abb",
          "transactionHash": "0xb9edc0fa936723bf343f7472e5c43c8616f72be85f783841050c12e03eae73c4",
          "transactionIndex": "0xd3",
          "logIndex": "0x1d3",
          "removed": false
        },
        {
          "address": "0xea0295ada7809765a386c6ec97d5ade7bb4999a8",
          "topics": [
            "0xddf252ad1be2c89b69c2b068fc378daa952ba7f163c4a11628f55a4df523b3ef",
            "0x0000000000000000000000000000000000000000000000000000000000000000",
            "0x000000000000000000000000ea78d8595ab0127c283297af373a8f5ce7288bb0"
          ],
          "data": "0x0000000000000000000000000000000000000000000000000000000000018696",
          "blockHash": "0x74798659d2cb5af2d8d1065cc46a1b382643224e553389f3cbf59525a4e13a09",
          "blockNumber": "0x1738dff",
          "blockTimestamp": "0x697d1abb",
          "transactionHash": "0xb9edc0fa936723bf343f7472e5c43c8616f72be85f783841050c12e03eae73c4",
          "transactionIndex": "0xd3",
          "logIndex": "0x1d4",
          "removed": false
        },
        {
          "address": "0xe32d43a933ed31965bacdc7ba447175f299c7629",
          "topics": [
            "0xddf252ad1be2c89b69c2b068fc378daa952ba7f163c4a11628f55a4df523b3ef",
            "0x0000000000000000000000000000000000000000000000000000000000000000",
            "0x000000000000000000000000ea78d8595ab0127c283297af373a8f5ce7288bb0"
          ],
          "data": "0x0000000000000000000000000000000000000000000000000000000000018696",
          "blockHash": "0x74798659d2cb5af2d8d1065cc46a1b382643224e553389f3cbf59525a4e13a09",
          "blockNumber": "0x1738dff",
          "blockTimestamp": "0x697d1abb",
          "transactionHash": "0xb9edc0fa936723bf343f7472e5c43c8616f72be85f783841050c12e03eae73c4",
          "transactionIndex": "0xd3",
          "logIndex": "0x1d5",
          "removed": false
        },
        {
          "address": "0xe32d43a933ed31965bacdc7ba447175f299c7629",
          "topics": [
            "0xab8530f87dc9b59234c4623bf917212bb2536d647574c8e7e5da92c2ede0c9f8"
          ],
          "data": "0x000000000000000000000000e32d43a933ed31965bacdc7ba447175f299c7629000000000000000000000000ea78d8595ab0127c283297af373a8f5ce7288bb00000000000000000000000000000000000000000000000000000000000018696",
          "blockHash": "0x74798659d2cb5af2d8d1065cc46a1b382643224e553389f3cbf59525a4e13a09",
          "blockNumber": "0x1738dff",
          "blockTimestamp": "0x697d1abb",
          "transactionHash": "0xb9edc0fa936723bf343f7472e5c43c8616f72be85f783841050c12e03eae73c4",
          "transactionIndex": "0xd3",
          "logIndex": "0x1d6",
          "removed": false
        },
        {
          "address": "0xc02aaa39b223fe8d0a0e5c4f27ead9083c756cc2",
          "topics": [
            "0xddf252ad1be2c89b69c2b068fc378daa952ba7f163c4a11628f55a4df523b3ef",
            "0x000000000000000000000000ea78d8595ab0127c283297af373a8f5ce7288bb0",
            "0x0000000000000000000000004651612edfbf8e2c714c548e3f1baab29237250f"
          ],
          "data": "0x00000000000000000000000000000000000000000000000000000000000186a0",
          "blockHash": "0x74798659d2cb5af2d8d1065cc46a1b382643224e553389f3cbf59525a4e13a09",
          "blockNumber": "0x1738dff",
          "blockTimestamp": "0x697d1abb",
          "transactionHash": "0xb9edc0fa936723bf343f7472e5c43c8616f72be85f783841050c12e03eae73c4",
          "transactionIndex": "0xd3",
          "logIndex": "0x1d7",
          "removed": false
        },
        {
          "address": "0x4651612edfbf8e2c714c548e3f1baab29237250f",
          "topics": [
            "0xddf252ad1be2c89b69c2b068fc378daa952ba7f163c4a11628f55a4df523b3ef",
            "0x0000000000000000000000000000000000000000000000000000000000000000",
            "0x000000000000000000000000ea78d8595ab0127c283297af373a8f5ce7288bb0"
          ],
          "data": "0x0000000000000000000000000000000000000000000000000000000000018696",
          "blockHash": "0x74798659d2cb5af2d8d1065cc46a1b382643224e553389f3cbf59525a4e13a09",
          "blockNumber": "0x1738dff",
          "blockTimestamp": "0x697d1abb",
          "transactionHash": "0xb9edc0fa936723bf343f7472e5c43c8616f72be85f783841050c12e03eae73c4",
          "transactionIndex": "0xd3",
          "logIndex": "0x1d8",
          "removed": false
        },
        {
          "address": "0x21893402f39ed825777cd90dc69e1eaa592e08d2",
          "topics": [
            "0xddf252ad1be2c89b69c2b068fc378daa952ba7f163c4a11628f55a4df523b3ef",
            "0x0000000000000000000000000000000000000000000000000000000000000000",
            "0x000000000000000000000000ea78d8595ab0127c283297af373a8f5ce7288bb0"
          ],
          "data": "0x0000000000000000000000000000000000000000000000000000000000018696",
          "blockHash": "0x74798659d2cb5af2d8d1065cc46a1b382643224e553389f3cbf59525a4e13a09",
          "blockNumber": "0x1738dff",
          "blockTimestamp": "0x697d1abb",
          "transactionHash": "0xb9edc0fa936723bf343f7472e5c43c8616f72be85f783841050c12e03eae73c4",
          "transactionIndex": "0xd3",
          "logIndex": "0x1d9",
          "removed": false
        },
        {
          "address": "0x21893402f39ed825777cd90dc69e1eaa592e08d2",
          "topics": [
            "0xab8530f87dc9b59234c4623bf917212bb2536d647574c8e7e5da92c2ede0c9f8"
          ],
          "data": "0x00000000000000000000000021893402f39ed825777cd90dc69e1eaa592e08d2000000000000000000000000ea78d8595ab0127c283297af373a8f5ce7288bb00000000000000000000000000000000000000000000000000000000000018696",
          "blockHash": "0x74798659d2cb5af2d8d1065cc46a1b382643224e553389f3cbf59525a4e13a09",
          "blockNumber": "0x1738dff",
          "blockTimestamp": "0x697d1abb",
          "transactionHash": "0xb9edc0fa936723bf343f7472e5c43c8616f72be85f783841050c12e03eae73c4",
          "transactionIndex": "0xd3",
          "logIndex": "0x1da",
          "removed": false
        },
        {
          "address": "0xc02aaa39b223fe8d0a0e5c4f27ead9083c756cc2",
          "topics": [
            "0xddf252ad1be2c89b69c2b068fc378daa952ba7f163c4a11628f55a4df523b3ef",
            "0x000000000000000000000000ea78d8595ab0127c283297af373a8f5ce7288bb0",
            "0x000000000000000000000000941234b7705a0f1d3c192e7c28e50135b7e35da5"
          ],
          "data": "0x00000000000000000000000000000000000000000000000000000000000186a0",
          "blockHash": "0x74798659d2cb5af2d8d1065cc46a1b382643224e553389f3cbf59525a4e13a09",
          "blockNumber": "0x1738dff",
          "blockTimestamp": "0x697d1abb",
          "transactionHash": "0xb9edc0fa936723bf343f7472e5c43c8616f72be85f783841050c12e03eae73c4",
          "transactionIndex": "0xd3",
          "logIndex": "0x1db",
          "removed": false
        },
        {
          "address": "0x941234b7705a0f1d3c192e7c28e50135b7e35da5",
          "topics": [
            "0xddf252ad1be2c89b69c2b068fc378daa952ba7f163c4a11628f55a4df523b3ef",
            "0x0000000000000000000000000000000000000000000000000000000000000000",
            "0x000000000000000000000000ea78d8595ab0127c283297af373a8f5ce7288bb0"
          ],
          "data": "0x0000000000000000000000000000000000000000000000000000000000018696",
          "blockHash": "0x74798659d2cb5af2d8d1065cc46a1b382643224e553389f3cbf59525a4e13a09",
          "blockNumber": "0x1738dff",
          "blockTimestamp": "0x697d1abb",
          "transactionHash": "0xb9edc0fa936723bf343f7472e5c43c8616f72be85f783841050c12e03eae73c4",
          "transactionIndex": "0xd3",
          "logIndex": "0x1dc",
          "removed": false
        },
        {
          "address": "0xf1ac5401a7e3bfa43bb7c7fd35d2e5c5b2ef26e3",
          "topics": [
            "0xddf252ad1be2c89b69c2b068fc378daa952ba7f163c4a11628f55a4df523b3ef",
            "0x0000000000000000000000000000000000000000000000000000000000000000",
            "0x000000000000000000000000ea78d8595ab0127c283297af373a8f5ce7288bb0"
          ],
          "data": "0x0000000000000000000000000000000000000000000000000000000000018696",
          "blockHash": "0x74798659d2cb5af2d8d1065cc46a1b382643224e553389f3cbf59525a4e13a09",
          "blockNumber": "0x1738dff",
          "blockTimestamp": "0x697d1abb",
          "transactionHash": "0xb9edc0fa936723bf343f7472e5c43c8616f72be85f783841050c12e03eae73c4",
          "transactionIndex": "0xd3",
          "logIndex": "0x1dd",
          "removed": false
        },
        {
          "address": "0xf1ac5401a7e3bfa43bb7c7fd35d2e5c5b2ef26e3",
          "topics": [
            "0xab8530f87dc9b59234c4623bf917212bb2536d647574c8e7e5da92c2ede0c9f8"
          ],
          "data": "0x000000000000000000000000f1ac5401a7e3bfa43bb7c7fd35d2e5c5b2ef26e3000000000000000000000000ea78d8595ab0127c283297af373a8f5ce7288bb00000000000000000000000000000000000000000000000000000000000018696",
          "blockHash": "0x74798659d2cb5af2d8d1065cc46a1b382643224e553389f3cbf59525a4e13a09",
          "blockNumber": "0x1738dff",
          "blockTimestamp": "0x697d1abb",
          "transactionHash": "0xb9edc0fa936723bf343f7472e5c43c8616f72be85f783841050c12e03eae73c4",
          "transactionIndex": "0xd3",
          "logIndex": "0x1de",
          "removed": false
        },
        {
          "address": "0xc02aaa39b223fe8d0a0e5c4f27ead9083c756cc2",
          "topics": [
            "0xddf252ad1be2c89b69c2b068fc378daa952ba7f163c4a11628f55a4df523b3ef",
            "0x000000000000000000000000ea78d8595ab0127c283297af373a8f5ce7288bb0",
            "0x000000000000000000000000027ba6ef9915d7c30661fc1b0c884bbfbf4f94c8"
          ],
          "data": "0x00000000000000000000000000000000000000000000000000000000000186a0",
          "blockHash": "0x74798659d2cb5af2d8d1065cc46a1b382643224e553389f3cbf59525a4e13a09",
          "blockNumber": "0x1738dff",
          "blockTimestamp": "0x697d1abb",
          "transactionHash": "0xb9edc0fa936723bf343f7472e5c43c8616f72be85f783841050c12e03eae73c4",
          "transactionIndex": "0xd3",
          "logIndex": "0x1df",
          "removed": false
        },
        {
          "address": "0x027ba6ef9915d7c30661fc1b0c884bbfbf4f94c8",
          "topics": [
            "0xddf252ad1be2c89b69c2b068fc378daa952ba7f163c4a11628f55a4df523b3ef",
            "0x0000000000000000000000000000000000000000000000000000000000000000",
            "0x000000000000000000000000ea78d8595ab0127c283297af373a8f5ce7288bb0"
          ],
          "data": "0x0000000000000000000000000000000000000000000000000000000000018696",
          "blockHash": "0x74798659d2cb5af2d8d1065cc46a1b382643224e553389f3cbf59525a4e13a09",
          "blockNumber": "0x1738dff",
          "blockTimestamp": "0x697d1abb",
          "transactionHash": "0xb9edc0fa936723bf343f7472e5c43c8616f72be85f783841050c12e03eae73c4",
          "transactionIndex": "0xd3",
          "logIndex": "0x1e0",
          "removed": false
        },
        {
          "address": "0x9fcfe70ef948b624b56ff0258a7983a6bd32dee4",
          "topics": [
            "0xddf252ad1be2c89b69c2b068fc378daa952ba7f163c4a11628f55a4df523b3ef",
            "0x0000000000000000000000000000000000000000000000000000000000000000",
            "0x000000000000000000000000ea78d8595ab0127c283297af373a8f5ce7288bb0"
          ],
          "data": "0x0000000000000000000000000000000000000000000000000000000000018696",
          "blockHash": "0x74798659d2cb5af2d8d1065cc46a1b382643224e553389f3cbf59525a4e13a09",
          "blockNumber": "0x1738dff",
          "blockTimestamp": "0x697d1abb",
          "transactionHash": "0xb9edc0fa936723bf343f7472e5c43c8616f72be85f783841050c12e03eae73c4",
          "transactionIndex": "0xd3",
          "logIndex": "0x1e1",
          "removed": false
        },
        {
          "address": "0x9fcfe70ef948b624b56ff0258a7983a6bd32dee4",
          "topics": [
            "0xab8530f87dc9b59234c4623bf917212bb2536d647574c8e7e5da92c2ede0c9f8"
          ],
          "data": "0x0000000000000000000000009fcfe70ef948b624b56ff0258a7983a6bd32dee4000000000000000000000000ea78d8595ab0127c283297af373a8f5ce7288bb00000000000000000000000000000000000000000000000000000000000018696",
          "blockHash": "0x74798659d2cb5af2d8d1065cc46a1b382643224e553389f3cbf59525a4e13a09",
          "blockNumber": "0x1738dff",
          "blockTimestamp": "0x697d1abb",
          "transactionHash": "0xb9edc0fa936723bf343f7472e5c43c8616f72be85f783841050c12e03eae73c4",
          "transactionIndex": "0xd3",
          "logIndex": "0x1e2",
          "removed": false
        },
        {
          "address": "0xc02aaa39b223fe8d0a0e5c4f27ead9083c756cc2",
          "topics": [
            "0xddf252ad1be2c89b69c2b068fc378daa952ba7f163c4a11628f55a4df523b3ef",
            "0x000000000000000000000000ea78d8595ab0127c283297af373a8f5ce7288bb0",
            "0x00000000000000000000000019ddd419ca8247fe7562692b8ac9e39858c8fcb7"
          ],
          "data": "0x00000000000000000000000000000000000000000000000000000000000186a0",
          "blockHash": "0x74798659d2cb5af2d8d1065cc46a1b382643224e553389f3cbf59525a4e13a09",
          "blockNumber": "0x1738dff",
          "blockTimestamp": "0x697d1abb",
          "transactionHash": "0xb9edc0fa936723bf343f7472e5c43c8616f72be85f783841050c12e03eae73c4",
          "transactionIndex": "0xd3",
          "logIndex": "0x1e3",
          "removed": false
        },
        {
          "address": "0x19ddd419ca8247fe7562692b8ac9e39858c8fcb7",
          "topics": [
            "0xddf252ad1be2c89b69c2b068fc378daa952ba7f163c4a11628f55a4df523b3ef",
            "0x0000000000000000000000000000000000000000000000000000000000000000",
            "0x000000000000000000000000ea78d8595ab0127c283297af373a8f5ce7288bb0"
          ],
          "data": "0x0000000000000000000000000000000000000000000000000000000000018696",
          "blockHash": "0x74798659d2cb5af2d8d1065cc46a1b382643224e553389f3cbf59525a4e13a09",
          "blockNumber": "0x1738dff",
          "blockTimestamp": "0x697d1abb",
          "transactionHash": "0xb9edc0fa936723bf343f7472e5c43c8616f72be85f783841050c12e03eae73c4",
          "transactionIndex": "0xd3",
          "logIndex": "0x1e4",
          "removed": false
        },
        {
          "address": "0x4930ff225799ee51238b3df04f3514087bc0da02",
          "topics": [
            "0xddf252ad1be2c89b69c2b068fc378daa952ba7f163c4a11628f55a4df523b3ef",
            "0x0000000000000000000000000000000000000000000000000000000000000000",
            "0x000000000000000000000000ea78d8595ab0127c283297af373a8f5ce7288bb0"
          ],
          "data": "0x0000000000000000000000000000000000000000000000000000000000018696",
          "blockHash": "0x74798659d2cb5af2d8d1065cc46a1b382643224e553389f3cbf59525a4e13a09",
          "blockNumber": "0x1738dff",
          "blockTimestamp": "0x697d1abb",
          "transactionHash": "0xb9edc0fa936723bf343f7472e5c43c8616f72be85f783841050c12e03eae73c4",
          "transactionIndex": "0xd3",
          "logIndex": "0x1e5",
          "removed": false
        },
        {
          "address": "0x4930ff225799ee51238b3df04f3514087bc0da02",
          "topics": [
            "0xab8530f87dc9b59234c4623bf917212bb2536d647574c8e7e5da92c2ede0c9f8"
          ],
          "data": "0x0000000000000000000000004930ff225799ee51238b3df04f3514087bc0da02000000000000000000000000ea78d8595ab0127c283297af373a8f5ce7288bb00000000000000000000000000000000000000000000000000000000000018696",
          "blockHash": "0x74798659d2cb5af2d8d1065cc46a1b382643224e553389f3cbf59525a4e13a09",
          "blockNumber": "0x1738dff",
          "blockTimestamp": "0x697d1abb",
          "transactionHash": "0xb9edc0fa936723bf343f7472e5c43c8616f72be85f783841050c12e03eae73c4",
          "transactionIndex": "0xd3",
          "logIndex": "0x1e6",
          "removed": false
        },
        {
          "address": "0xc02aaa39b223fe8d0a0e5c4f27ead9083c756cc2",
          "topics": [
            "0xddf252ad1be2c89b69c2b068fc378daa952ba7f163c4a11628f55a4df523b3ef",
            "0x000000000000000000000000ea78d8595ab0127c283297af373a8f5ce7288bb0",
            "0x000000000000000000000000e930c5ed82b52b2e726a512254e07b4683d6acd5"
          ],
          "data": "0x00000000000000000000000000000000000000000000000000000000000186a0",
          "blockHash": "0x74798659d2cb5af2d8d1065cc46a1b382643224e553389f3cbf59525a4e13a09",
          "blockNumber": "0x1738dff",
          "blockTimestamp": "0x697d1abb",
          "transactionHash": "0xb9edc0fa936723bf343f7472e5c43c8616f72be85f783841050c12e03eae73c4",
          "transactionIndex": "0xd3",
          "logIndex": "0x1e7",
          "removed": false
        },
        {
          "address": "0xe930c5ed82b52b2e726a512254e07b4683d6acd5",
          "topics": [
            "0xddf252ad1be2c89b69c2b068fc378daa952ba7f163c4a11628f55a4df523b3ef",
            "0x0000000000000000000000000000000000000000000000000000000000000000",
            "0x000000000000000000000000ea78d8595ab0127c283297af373a8f5ce7288bb0"
          ],
          "data": "0x0000000000000000000000000000000000000000000000000000000000018696",
          "blockHash": "0x74798659d2cb5af2d8d1065cc46a1b382643224e553389f3cbf59525a4e13a09",
          "blockNumber": "0x1738dff",
          "blockTimestamp": "0x697d1abb",
          "transactionHash": "0xb9edc0fa936723bf343f7472e5c43c8616f72be85f783841050c12e03eae73c4",
          "transactionIndex": "0xd3",
          "logIndex": "0x1e8",
          "removed": false
        },
        {
          "address": "0xab04bdab9b5dc0ad04d4809d500c19c822272b84",
          "topics": [
            "0xddf252ad1be2c89b69c2b068fc378daa952ba7f163c4a11628f55a4df523b3ef",
            "0x0000000000000000000000000000000000000000000000000000000000000000",
            "0x000000000000000000000000ea78d8595ab0127c283297af373a8f5ce7288bb0"
          ],
          "data": "0x0000000000000000000000000000000000000000000000000000000000018696",
          "blockHash": "0x74798659d2cb5af2d8d1065cc46a1b382643224e553389f3cbf59525a4e13a09",
          "blockNumber": "0x1738dff",
          "blockTimestamp": "0x697d1abb",
          "transactionHash": "0xb9edc0fa936723bf343f7472e5c43c8616f72be85f783841050c12e03eae73c4",
          "transactionIndex": "0xd3",
          "logIndex": "0x1e9",
          "removed": false
        },
        {
          "address": "0xab04bdab9b5dc0ad04d4809d500c19c822272b84",
          "topics": [
            "0xab8530f87dc9b59234c4623bf917212bb2536d647574c8e7e5da92c2ede0c9f8"
          ],
          "data": "0x000000000000000000000000ab04bdab9b5dc0ad04d4809d500c19c822272b84000000000000000000000000ea78d8595ab0127c283297af373a8f5ce7288bb00000000000000000000000000000000000000000000000000000000000018696",
          "blockHash": "0x74798659d2cb5af2d8d1065cc46a1b382643224e553389f3cbf59525a4e13a09",
          "blockNumber": "0x1738dff",
          "blockTimestamp": "0x697d1abb",
          "transactionHash": "0xb9edc0fa936723bf343f7472e5c43c8616f72be85f783841050c12e03eae73c4",
          "transactionIndex": "0xd3",
          "logIndex": "0x1ea",
          "removed": false
        },
        {
          "address": "0xc02aaa39b223fe8d0a0e5c4f27ead9083c756cc2",
          "topics": [
            "0xddf252ad1be2c89b69c2b068fc378daa952ba7f163c4a11628f55a4df523b3ef",
            "0x000000000000000000000000ea78d8595ab0127c283297af373a8f5ce7288bb0",
            "0x000000000000000000000000dae5ec90449c913540bc3b9ed01c4934f749ce2a"
          ],
          "data": "0x00000000000000000000000000000000000000000000000000000000000186a0",
          "blockHash": "0x74798659d2cb5af2d8d1065cc46a1b382643224e553389f3cbf59525a4e13a09",
          "blockNumber": "0x1738dff",
          "blockTimestamp": "0x697d1abb",
          "transactionHash": "0xb9edc0fa936723bf343f7472e5c43c8616f72be85f783841050c12e03eae73c4",
          "transactionIndex": "0xd3",
          "logIndex": "0x1eb",
          "removed": false
        },
        {
          "address": "0xdae5ec90449c913540bc3b9ed01c4934f749ce2a",
          "topics": [
            "0xddf252ad1be2c89b69c2b068fc378daa952ba7f163c4a11628f55a4df523b3ef",
            "0x0000000000000000000000000000000000000000000000000000000000000000",
            "0x000000000000000000000000ea78d8595ab0127c283297af373a8f5ce7288bb0"
          ],
          "data": "0x0000000000000000000000000000000000000000000000000000000000018696",
          "blockHash": "0x74798659d2cb5af2d8d1065cc46a1b382643224e553389f3cbf59525a4e13a09",
          "blockNumber": "0x1738dff",
          "blockTimestamp": "0x697d1abb",
          "transactionHash": "0xb9edc0fa936723bf343f7472e5c43c8616f72be85f783841050c12e03eae73c4",
          "transactionIndex": "0xd3",
          "logIndex": "0x1ec",
          "removed": false
        },
        {
          "address": "0xd6eca8f0bb5ca0aff56cb972d34bacf589eec834",
          "topics": [
            "0xddf252ad1be2c89b69c2b068fc378daa952ba7f163c4a11628f55a4df523b3ef",
            "0x0000000000000000000000000000000000000000000000000000000000000000",
            "0x000000000000000000000000ea78d8595ab0127c283297af373a8f5ce7288bb0"
          ],
          "data": "0x0000000000000000000000000000000000000000000000000000000000018696",
          "blockHash": "0x74798659d2cb5af2d8d1065cc46a1b382643224e553389f3cbf59525a4e13a09",
          "blockNumber": "0x1738dff",
          "blockTimestamp": "0x697d1abb",
          "transactionHash": "0xb9edc0fa936723bf343f7472e5c43c8616f72be85f783841050c12e03eae73c4",
          "transactionIndex": "0xd3",
          "logIndex": "0x1ed",
          "removed": false
        },
        {
          "address": "0xd6eca8f0bb5ca0aff56cb972d34bacf589eec834",
          "topics": [
            "0xab8530f87dc9b59234c4623bf917212bb2536d647574c8e7e5da92c2ede0c9f8"
          ],
          "data": "0x000000000000000000000000d6eca8f0bb5ca0aff56cb972d34bacf589eec834000000000000000000000000ea78d8595ab0127c283297af373a8f5ce7288bb00000000000000000000000000000000000000000000000000000000000018696",
          "blockHash": "0x74798659d2cb5af2d8d1065cc46a1b382643224e553389f3cbf59525a4e13a09",
          "blockNumber": "0x1738dff",
          "blockTimestamp": "0x697d1abb",
          "transactionHash": "0xb9edc0fa936723bf343f7472e5c43c8616f72be85f783841050c12e03eae73c4",
          "transactionIndex": "0xd3",
          "logIndex": "0x1ee",
          "removed": false
        },
        {
          "address": "0xc02aaa39b223fe8d0a0e5c4f27ead9083c756cc2",
          "topics": [
            "0xddf252ad1be2c89b69c2b068fc378daa952ba7f163c4a11628f55a4df523b3ef",
            "0x000000000000000000000000ea78d8595ab0127c283297af373a8f5ce7288bb0",
            "0x000000000000000000000000038a3e63121c71fea3655ecefe8be9d054fd9d5e"
          ],
          "data": "0x00000000000000000000000000000000000000000000000000000000000186a0",
          "blockHash": "0x74798659d2cb5af2d8d1065cc46a1b382643224e553389f3cbf59525a4e13a09",
          "blockNumber": "0x1738dff",
          "blockTimestamp": "0x697d1abb",
          "transactionHash": "0xb9edc0fa936723bf343f7472e5c43c8616f72be85f783841050c12e03eae73c4",
          "transactionIndex": "0xd3",
          "logIndex": "0x1ef",
          "removed": false
        },
        {
          "address": "0x038a3e63121c71fea3655ecefe8be9d054fd9d5e",
          "topics": [
            "0xddf252ad1be2c89b69c2b068fc378daa952ba7f163c4a11628f55a4df523b3ef",
            "0x0000000000000000000000000000000000000000000000000000000000000000",
            "0x000000000000000000000000ea78d8595ab0127c283297af373a8f5ce7288bb0"
          ],
          "data": "0x0000000000000000000000000000000000000000000000000000000000018696",
          "blockHash": "0x74798659d2cb5af2d8d1065cc46a1b382643224e553389f3cbf59525a4e13a09",
          "blockNumber": "0x1738dff",
          "blockTimestamp": "0x697d1abb",
          "transactionHash": "0xb9edc0fa936723bf343f7472e5c43c8616f72be85f783841050c12e03eae73c4",
          "transactionIndex": "0xd3",
          "logIndex": "0x1f0",
          "removed": false
        },
        {
          "address": "0x369a058b4a7343ce67bebe2bfeb5eab61fa50de8",
          "topics": [
            "0xddf252ad1be2c89b69c2b068fc378daa952ba7f163c4a11628f55a4df523b3ef",
            "0x0000000000000000000000000000000000000000000000000000000000000000",
            "0x000000000000000000000000ea78d8595ab0127c283297af373a8f5ce7288bb0"
          ],
          "data": "0x0000000000000000000000000000000000000000000000000000000000018696",
          "blockHash": "0x74798659d2cb5af2d8d1065cc46a1b382643224e553389f3cbf59525a4e13a09",
          "blockNumber": "0x1738dff",
          "blockTimestamp": "0x697d1abb",
          "transactionHash": "0xb9edc0fa936723bf343f7472e5c43c8616f72be85f783841050c12e03eae73c4",
          "transactionIndex": "0xd3",
          "logIndex": "0x1f1",
          "removed": false
        },
        {
          "address": "0x369a058b4a7343ce67bebe2bfeb5eab61fa50de8",
          "topics": [
            "0xab8530f87dc9b59234c4623bf917212bb2536d647574c8e7e5da92c2ede0c9f8"
          ],
          "data": "0x000000000000000000000000369a058b4a7343ce67bebe2bfeb5eab61fa50de8000000000000000000000000ea78d8595ab0127c283297af373a8f5ce7288bb00000000000000000000000000000000000000000000000000000000000018696",
          "blockHash": "0x74798659d2cb5af2d8d1065cc46a1b382643224e553389f3cbf59525a4e13a09",
          "blockNumber": "0x1738dff",
          "blockTimestamp": "0x697d1abb",
          "transactionHash": "0xb9edc0fa936723bf343f7472e5c43c8616f72be85f783841050c12e03eae73c4",
          "transactionIndex": "0xd3",
          "logIndex": "0x1f2",
          "removed": false
        },
        {
          "address": "0xc02aaa39b223fe8d0a0e5c4f27ead9083c756cc2",
          "topics": [
            "0xddf252ad1be2c89b69c2b068fc378daa952ba7f163c4a11628f55a4df523b3ef",
            "0x000000000000000000000000ea78d8595ab0127c283297af373a8f5ce7288bb0",
            "0x00000000000000000000000094e804718b4b010b4b61f3aca126d8d59740468e"
          ],
          "data": "0x00000000000000000000000000000000000000000000000000000000000186a0",
          "blockHash": "0x74798659d2cb5af2d8d1065cc46a1b382643224e553389f3cbf59525a4e13a09",
          "blockNumber": "0x1738dff",
          "blockTimestamp": "0x697d1abb",
          "transactionHash": "0xb9edc0fa936723bf343f7472e5c43c8616f72be85f783841050c12e03eae73c4",
          "transactionIndex": "0xd3",
          "logIndex": "0x1f3",
          "removed": false
        },
        {
          "address": "0x94e804718b4b010b4b61f3aca126d8d59740468e",
          "topics": [
            "0xddf252ad1be2c89b69c2b068fc378daa952ba7f163c4a11628f55a4df523b3ef",
            "0x0000000000000000000000000000000000000000000000000000000000000000",
            "0x000000000000000000000000ea78d8595ab0127c283297af373a8f5ce7288bb0"
          ],
          "data": "0x0000000000000000000000000000000000000000000000000000000000018696",
          "blockHash": "0x74798659d2cb5af2d8d1065cc46a1b382643224e553389f3cbf59525a4e13a09",
          "blockNumber": "0x1738dff",
          "blockTimestamp": "0x697d1abb",
          "transactionHash": "0xb9edc0fa936723bf343f7472e5c43c8616f72be85f783841050c12e03eae73c4",
          "transactionIndex": "0xd3",
          "logIndex": "0x1f4",
          "removed": false
        },
        {
          "address": "0x12736710e5fb0367239caf88cdadf8026221b959",
          "topics": [
            "0xddf252ad1be2c89b69c2b068fc378daa952ba7f163c4a11628f55a4df523b3ef",
            "0x0000000000000000000000000000000000000000000000000000000000000000",
            "0x000000000000000000000000ea78d8595ab0127c283297af373a8f5ce7288bb0"
          ],
          "data": "0x0000000000000000000000000000000000000000000000000000000000018696",
          "blockHash": "0x74798659d2cb5af2d8d1065cc46a1b382643224e553389f3cbf59525a4e13a09",
          "blockNumber": "0x1738dff",
          "blockTimestamp": "0x697d1abb",
          "transactionHash": "0xb9edc0fa936723bf343f7472e5c43c8616f72be85f783841050c12e03eae73c4",
          "transactionIndex": "0xd3",
          "logIndex": "0x1f5",
          "removed": false
        },
        {
          "address": "0x12736710e5fb0367239caf88cdadf8026221b959",
          "topics": [
            "0xab8530f87dc9b59234c4623bf917212bb2536d647574c8e7e5da92c2ede0c9f8"
          ],
          "data": "0x00000000000000000000000012736710e5fb0367239caf88cdadf8026221b959000000000000000000000000ea78d8595ab0127c283297af373a8f5ce7288bb00000000000000000000000000000000000000000000000000000000000018696",
          "blockHash": "0x74798659d2cb5af2d8d1065cc46a1b382643224e553389f3cbf59525a4e13a09",
          "blockNumber": "0x1738dff",
          "blockTimestamp": "0x697d1abb",
          "transactionHash": "0xb9edc0fa936723bf343f7472e5c43c8616f72be85f783841050c12e03eae73c4",
          "transactionIndex": "0xd3",
          "logIndex": "0x1f6",
          "removed": false
        },
        {
          "address": "0xc02aaa39b223fe8d0a0e5c4f27ead9083c756cc2",
          "topics": [
            "0xddf252ad1be2c89b69c2b068fc378daa952ba7f163c4a11628f55a4df523b3ef",
            "0x000000000000000000000000ea78d8595ab0127c283297af373a8f5ce7288bb0",
            "0x00000000000000000000000079dc0fcde2446e9f1163fd5aedd9dd34fb4e7868"
          ],
          "data": "0x00000000000000000000000000000000000000000000000000000000000186a0",
          "blockHash": "0x74798659d2cb5af2d8d1065cc46a1b382643224e553389f3cbf59525a4e13a09",
          "blockNumber": "0x1738dff",
          "blockTimestamp": "0x697d1abb",
          "transactionHash": "0xb9edc0fa936723bf343f7472e5c43c8616f72be85f783841050c12e03eae73c4",
          "transactionIndex": "0xd3",
          "logIndex": "0x1f7",
          "removed": false
        },
        {
          "address": "0x79dc0fcde2446e9f1163fd5aedd9dd34fb4e7868",
          "topics": [
            "0xddf252ad1be2c89b69c2b068fc378daa952ba7f163c4a11628f55a4df523b3ef",
            "0x0000000000000000000000000000000000000000000000000000000000000000",
            "0x000000000000000000000000ea78d8595ab0127c283297af373a8f5ce7288bb0"
          ],
          "data": "0x0000000000000000000000000000000000000000000000000000000000018696",
          "blockHash": "0x74798659d2cb5af2d8d1065cc46a1b382643224e553389f3cbf59525a4e13a09",
          "blockNumber": "0x1738dff",
          "blockTimestamp": "0x697d1abb",
          "transactionHash": "0xb9edc0fa936723bf343f7472e5c43c8616f72be85f783841050c12e03eae73c4",
          "transactionIndex": "0xd3",
          "logIndex": "0x1f8",
          "removed": false
        },
        {
          "address": "0xe65f48d43e3ddd43d3e3cbd59af9ca2bacbb84e1",
          "topics": [
            "0xddf252ad1be2c89b69c2b068fc378daa952ba7f163c4a11628f55a4df523b3ef",
            "0x0000000000000000000000000000000000000000000000000000000000000000",
            "0x000000000000000000000000ea78d8595ab0127c283297af373a8f5ce7288bb0"
          ],
          "data": "0x0000000000000000000000000000000000000000000000000000000000018696",
          "blockHash": "0x74798659d2cb5af2d8d1065cc46a1b382643224e553389f3cbf59525a4e13a09",
          "blockNumber": "0x1738dff",
          "blockTimestamp": "0x697d1abb",
          "transactionHash": "0xb9edc0fa936723bf343f7472e5c43c8616f72be85f783841050c12e03eae73c4",
          "transactionIndex": "0xd3",
          "logIndex": "0x1f9",
          "removed": false
        },
        {
          "address": "0xe65f48d43e3ddd43d3e3cbd59af9ca2bacbb84e1",
          "topics": [
            "0xab8530f87dc9b59234c4623bf917212bb2536d647574c8e7e5da92c2ede0c9f8"
          ],
          "data": "0x000000000000000000000000e65f48d43e3ddd43d3e3cbd59af9ca2bacbb84e1000000000000000000000000ea78d8595ab0127c283297af373a8f5ce7288bb00000000000000000000000000000000000000000000000000000000000018696",
          "blockHash": "0x74798659d2cb5af2d8d1065cc46a1b382643224e553389f3cbf59525a4e13a09",
          "blockNumber": "0x1738dff",
          "blockTimestamp": "0x697d1abb",
          "transactionHash": "0xb9edc0fa936723bf343f7472e5c43c8616f72be85f783841050c12e03eae73c4",
          "transactionIndex": "0xd3",
          "logIndex": "0x1fa",
          "removed": false
        },
        {
          "address": "0xc02aaa39b223fe8d0a0e5c4f27ead9083c756cc2",
          "topics": [
            "0xddf252ad1be2c89b69c2b068fc378daa952ba7f163c4a11628f55a4df523b3ef",
            "0x000000000000000000000000ea78d8595ab0127c283297af373a8f5ce7288bb0",
            "0x000000000000000000000000bd1d0290e91e9a48a4c51c9f2b55a45eed0b0645"
          ],
          "data": "0x00000000000000000000000000000000000000000000000000000000000186a0",
          "blockHash": "0x74798659d2cb5af2d8d1065cc46a1b382643224e553389f3cbf59525a4e13a09",
          "blockNumber": "0x1738dff",
          "blockTimestamp": "0x697d1abb",
          "transactionHash": "0xb9edc0fa936723bf343f7472e5c43c8616f72be85f783841050c12e03eae73c4",
          "transactionIndex": "0xd3",
          "logIndex": "0x1fb",
          "removed": false
        },
        {
          "address": "0xbd1d0290e91e9a48a4c51c9f2b55a45eed0b0645",
          "topics": [
            "0xddf252ad1be2c89b69c2b068fc378daa952ba7f163c4a11628f55a4df523b3ef",
            "0x0000000000000000000000000000000000000000000000000000000000000000",
            "0x000000000000000000000000ea78d8595ab0127c283297af373a8f5ce7288bb0"
          ],
          "data": "0x0000000000000000000000000000000000000000000000000000000000018696",
          "blockHash": "0x74798659d2cb5af2d8d1065cc46a1b382643224e553389f3cbf59525a4e13a09",
          "blockNumber": "0x1738dff",
          "blockTimestamp": "0x697d1abb",
          "transactionHash": "0xb9edc0fa936723bf343f7472e5c43c8616f72be85f783841050c12e03eae73c4",
          "transactionIndex": "0xd3",
          "logIndex": "0x1fc",
          "removed": false
        },
        {
          "address": "0x8b2e67d17ce9aec4d51bb690c632dcbf4de6c68a",
          "topics": [
            "0xddf252ad1be2c89b69c2b068fc378daa952ba7f163c4a11628f55a4df523b3ef",
            "0x0000000000000000000000000000000000000000000000000000000000000000",
            "0x000000000000000000000000ea78d8595ab0127c283297af373a8f5ce7288bb0"
          ],
          "data": "0x0000000000000000000000000000000000000000000000000000000000018696",
          "blockHash": "0x74798659d2cb5af2d8d1065cc46a1b382643224e553389f3cbf59525a4e13a09",
          "blockNumber": "0x1738dff",
          "blockTimestamp": "0x697d1abb",
          "transactionHash": "0xb9edc0fa936723bf343f7472e5c43c8616f72be85f783841050c12e03eae73c4",
          "transactionIndex": "0xd3",
          "logIndex": "0x1fd",
          "removed": false
        },
        {
          "address": "0x8b2e67d17ce9aec4d51bb690c632dcbf4de6c68a",
          "topics": [
            "0xab8530f87dc9b59234c4623bf917212bb2536d647574c8e7e5da92c2ede0c9f8"
          ],
          "data": "0x0000000000000000000000008b2e67d17ce9aec4d51bb690c632dcbf4de6c68a000000000000000000000000ea78d8595ab0127c283297af373a8f5ce7288bb00000000000000000000000000000000000000000000000000000000000018696",
          "blockHash": "0x74798659d2cb5af2d8d1065cc46a1b382643224e553389f3cbf59525a4e13a09",
          "blockNumber": "0x1738dff",
          "blockTimestamp": "0x697d1abb",
          "transactionHash": "0xb9edc0fa936723bf343f7472e5c43c8616f72be85f783841050c12e03eae73c4",
          "transactionIndex": "0xd3",
          "logIndex": "0x1fe",
          "removed": false
        },
        {
          "address": "0xc02aaa39b223fe8d0a0e5c4f27ead9083c756cc2",
          "topics": [
            "0xddf252ad1be2c89b69c2b068fc378daa952ba7f163c4a11628f55a4df523b3ef",
            "0x000000000000000000000000ea78d8595ab0127c283297af373a8f5ce7288bb0",
            "0x000000000000000000000000e691aa135ad76bd1c2a91a89e3f893f0abfe7a2d"
          ],
          "data": "0x00000000000000000000000000000000000000000000000000000000000186a0",
          "blockHash": "0x74798659d2cb5af2d8d1065cc46a1b382643224e553389f3cbf59525a4e13a09",
          "blockNumber": "0x1738dff",
          "blockTimestamp": "0x697d1abb",
          "transactionHash": "0xb9edc0fa936723bf343f7472e5c43c8616f72be85f783841050c12e03eae73c4",
          "transactionIndex": "0xd3",
          "logIndex": "0x1ff",
          "removed": false
        },
        {
          "address": "0xe691aa135ad76bd1c2a91a89e3f893f0abfe7a2d",
          "topics": [
            "0xddf252ad1be2c89b69c2b068fc378daa952ba7f163c4a11628f55a4df523b3ef",
            "0x0000000000000000000000000000000000000000000000000000000000000000",
            "0x000000000000000000000000ea78d8595ab0127c283297af373a8f5ce7288bb0"
          ],
          "data": "0x0000000000000000000000000000000000000000000000000000000000018696",
          "blockHash": "0x74798659d2cb5af2d8d1065cc46a1b382643224e553389f3cbf59525a4e13a09",
          "blockNumber": "0x1738dff",
          "blockTimestamp": "0x697d1abb",
          "transactionHash": "0xb9edc0fa936723bf343f7472e5c43c8616f72be85f783841050c12e03eae73c4",
          "transactionIndex": "0xd3",
          "logIndex": "0x200",
          "removed": false
        },
        {
          "address": "0xca1685e45198c37ea5b29579320daf34d528ebbe",
          "topics": [
            "0xddf252ad1be2c89b69c2b068fc378daa952ba7f163c4a11628f55a4df523b3ef",
            "0x0000000000000000000000000000000000000000000000000000000000000000",
            "0x000000000000000000000000ea78d8595ab0127c283297af373a8f5ce7288bb0"
          ],
          "data": "0x0000000000000000000000000000000000000000000000000000000000018696",
          "blockHash": "0x74798659d2cb5af2d8d1065cc46a1b382643224e553389f3cbf59525a4e13a09",
          "blockNumber": "0x1738dff",
          "blockTimestamp": "0x697d1abb",
          "transactionHash": "0xb9edc0fa936723bf343f7472e5c43c8616f72be85f783841050c12e03eae73c4",
          "transactionIndex": "0xd3",
          "logIndex": "0x201",
          "removed": false
        },
        {
          "address": "0xca1685e45198c37ea5b29579320daf34d528ebbe",
          "topics": [
            "0xab8530f87dc9b59234c4623bf917212bb2536d647574c8e7e5da92c2ede0c9f8"
          ],
          "data": "0x000000000000000000000000ca1685e45198c37ea5b29579320daf34d528ebbe000000000000000000000000ea78d8595ab0127c283297af373a8f5ce7288bb00000000000000000000000000000000000000000000000000000000000018696",
          "blockHash": "0x74798659d2cb5af2d8d1065cc46a1b382643224e553389f3cbf59525a4e13a09",
          "blockNumber": "0x1738dff",
          "blockTimestamp": "0x697d1abb",
          "transactionHash": "0xb9edc0fa936723bf343f7472e5c43c8616f72be85f783841050c12e03eae73c4",
          "transactionIndex": "0xd3",
          "logIndex": "0x202",
          "removed": false
        },
        {
          "address": "0xc02aaa39b223fe8d0a0e5c4f27ead9083c756cc2",
          "topics": [
            "0xddf252ad1be2c89b69c2b068fc378daa952ba7f163c4a11628f55a4df523b3ef",
            "0x000000000000000000000000ea78d8595ab0127c283297af373a8f5ce7288bb0",
            "0x00000000000000000000000070c50dd39b524a4163804cdd4cf0fed85bfce907"
          ],
          "data": "0x00000000000000000000000000000000000000000000000000000000000186a0",
          "blockHash": "0x74798659d2cb5af2d8d1065cc46a1b382643224e553389f3cbf59525a4e13a09",
          "blockNumber": "0x1738dff",
          "blockTimestamp": "0x697d1abb",
          "transactionHash": "0xb9edc0fa936723bf343f7472e5c43c8616f72be85f783841050c12e03eae73c4",
          "transactionIndex": "0xd3",
          "logIndex": "0x203",
          "removed": false
        },
        {
          "address": "0x70c50dd39b524a4163804cdd4cf0fed85bfce907",
          "topics": [
            "0xddf252ad1be2c89b69c2b068fc378daa952ba7f163c4a11628f55a4df523b3ef",
            "0x0000000000000000000000000000000000000000000000000000000000000000",
            "0x000000000000000000000000ea78d8595ab0127c283297af373a8f5ce7288bb0"
          ],
          "data": "0x0000000000000000000000000000000000000000000000000000000000018696",
          "blockHash": "0x74798659d2cb5af2d8d1065cc46a1b382643224e553389f3cbf59525a4e13a09",
          "blockNumber": "0x1738dff",
          "blockTimestamp": "0x697d1abb",
          "transactionHash": "0xb9edc0fa936723bf343f7472e5c43c8616f72be85f783841050c12e03eae73c4",
          "transactionIndex": "0xd3",
          "logIndex": "0x204",
          "removed": false
        },
        {
          "address": "0x90b1916f693727129cbeed3c511c5fb3359d8614",
          "topics": [
            "0xddf252ad1be2c89b69c2b068fc378daa952ba7f163c4a11628f55a4df523b3ef",
            "0x0000000000000000000000000000000000000000000000000000000000000000",
            "0x000000000000000000000000ea78d8595ab0127c283297af373a8f5ce7288bb0"
          ],
          "data": "0x0000000000000000000000000000000000000000000000000000000000018696",
          "blockHash": "0x74798659d2cb5af2d8d1065cc46a1b382643224e553389f3cbf59525a4e13a09",
          "blockNumber": "0x1738dff",
          "blockTimestamp": "0x697d1abb",
          "transactionHash": "0xb9edc0fa936723bf343f7472e5c43c8616f72be85f783841050c12e03eae73c4",
          "transactionIndex": "0xd3",
          "logIndex": "0x205",
          "removed": false
        },
        {
          "address": "0x90b1916f693727129cbeed3c511c5fb3359d8614",
          "topics": [
            "0xab8530f87dc9b59234c4623bf917212bb2536d647574c8e7e5da92c2ede0c9f8"
          ],
          "data": "0x00000000000000000000000090b1916f693727129cbeed3c511c5fb3359d8614000000000000000000000000ea78d8595ab0127c283297af373a8f5ce7288bb00000000000000000000000000000000000000000000000000000000000018696",
          "blockHash": "0x74798659d2cb5af2d8d1065cc46a1b382643224e553389f3cbf59525a4e13a09",
          "blockNumber": "0x1738dff",
          "blockTimestamp": "0x697d1abb",
          "transactionHash": "0xb9edc0fa936723bf343f7472e5c43c8616f72be85f783841050c12e03eae73c4",
          "transactionIndex": "0xd3",
          "logIndex": "0x206",
          "removed": false
        },
        {
          "address": "0xc02aaa39b223fe8d0a0e5c4f27ead9083c756cc2",
          "topics": [
            "0xddf252ad1be2c89b69c2b068fc378daa952ba7f163c4a11628f55a4df523b3ef",
            "0x000000000000000000000000ea78d8595ab0127c283297af373a8f5ce7288bb0",
            "0x0000000000000000000000008ac789e162b76d8024a59becfcc729df6b9322eb"
          ],
          "data": "0x00000000000000000000000000000000000000000000000000000000000186a0",
          "blockHash": "0x74798659d2cb5af2d8d1065cc46a1b382643224e553389f3cbf59525a4e13a09",
          "blockNumber": "0x1738dff",
          "blockTimestamp": "0x697d1abb",
          "transactionHash": "0xb9edc0fa936723bf343f7472e5c43c8616f72be85f783841050c12e03eae73c4",
          "transactionIndex": "0xd3",
          "logIndex": "0x207",
          "removed": false
        },
        {
          "address": "0x8ac789e162b76d8024a59becfcc729df6b9322eb",
          "topics": [
            "0xddf252ad1be2c89b69c2b068fc378daa952ba7f163c4a11628f55a4df523b3ef",
            "0x0000000000000000000000000000000000000000000000000000000000000000",
            "0x000000000000000000000000ea78d8595ab0127c283297af373a8f5ce7288bb0"
          ],
          "data": "0x0000000000000000000000000000000000000000000000000000000000018696",
          "blockHash": "0x74798659d2cb5af2d8d1065cc46a1b382643224e553389f3cbf59525a4e13a09",
          "blockNumber": "0x1738dff",
          "blockTimestamp": "0x697d1abb",
          "transactionHash": "0xb9edc0fa936723bf343f7472e5c43c8616f72be85f783841050c12e03eae73c4",
          "transactionIndex": "0xd3",
          "logIndex": "0x208",
          "removed": false
        },
        {
          "address": "0x14ac1795916b1242ddb8bd9b09859f7b4af678b4",
          "topics": [
            "0xddf252ad1be2c89b69c2b068fc378daa952ba7f163c4a11628f55a4df523b3ef",
            "0x0000000000000000000000000000000000000000000000000000000000000000",
            "0x000000000000000000000000ea78d8595ab0127c283297af373a8f5ce7288bb0"
          ],
          "data": "0x0000000000000000000000000000000000000000000000000000000000018696",
          "blockHash": "0x74798659d2cb5af2d8d1065cc46a1b382643224e553389f3cbf59525a4e13a09",
          "blockNumber": "0x1738dff",
          "blockTimestamp": "0x697d1abb",
          "transactionHash": "0xb9edc0fa936723bf343f7472e5c43c8616f72be85f783841050c12e03eae73c4",
          "transactionIndex": "0xd3",
          "logIndex": "0x209",
          "removed": false
        },
        {
          "address": "0x14ac1795916b1242ddb8bd9b09859f7b4af678b4",
          "topics": [
            "0xab8530f87dc9b59234c4623bf917212bb2536d647574c8e7e5da92c2ede0c9f8"
          ],
          "data": "0x00000000000000000000000014ac1795916b1242ddb8bd9b09859f7b4af678b4000000000000000000000000ea78d8595ab0127c283297af373a8f5ce7288bb00000000000000000000000000000000000000000000000000000000000018696",
          "blockHash": "0x74798659d2cb5af2d8d1065cc46a1b382643224e553389f3cbf59525a4e13a09",
          "blockNumber": "0x1738dff",
          "blockTimestamp": "0x697d1abb",
          "transactionHash": "0xb9edc0fa936723bf343f7472e5c43c8616f72be85f783841050c12e03eae73c4",
          "transactionIndex": "0xd3",
          "logIndex": "0x20a",
          "removed": false
        },
        {
          "address": "0xc02aaa39b223fe8d0a0e5c4f27ead9083c756cc2",
          "topics": [
            "0xddf252ad1be2c89b69c2b068fc378daa952ba7f163c4a11628f55a4df523b3ef",
            "0x000000000000000000000000ea78d8595ab0127c283297af373a8f5ce7288bb0",
            "0x0000000000000000000000003884d3795027b05bef2c10023cdd12708dc9c229"
          ],
          "data": "0x00000000000000000000000000000000000000000000000000000000000186a0",
          "blockHash": "0x74798659d2cb5af2d8d1065cc46a1b382643224e553389f3cbf59525a4e13a09",
          "blockNumber": "0x1738dff",
          "blockTimestamp": "0x697d1abb",
          "transactionHash": "0xb9edc0fa936723bf343f7472e5c43c8616f72be85f783841050c12e03eae73c4",
          "transactionIndex": "0xd3",
          "logIndex": "0x20b",
          "removed": false
        },
        {
          "address": "0x3884d3795027b05bef2c10023cdd12708dc9c229",
          "topics": [
            "0xddf252ad1be2c89b69c2b068fc378daa952ba7f163c4a11628f55a4df523b3ef",
            "0x0000000000000000000000000000000000000000000000000000000000000000",
            "0x000000000000000000000000ea78d8595ab0127c283297af373a8f5ce7288bb0"
          ],
          "data": "0x0000000000000000000000000000000000000000000000000000000000018696",
          "blockHash": "0x74798659d2cb5af2d8d1065cc46a1b382643224e553389f3cbf59525a4e13a09",
          "blockNumber": "0x1738dff",
          "blockTimestamp": "0x697d1abb",
          "transactionHash": "0xb9edc0fa936723bf343f7472e5c43c8616f72be85f783841050c12e03eae73c4",
          "transactionIndex": "0xd3",
          "logIndex": "0x20c",
          "removed": false
        },
        {
          "address": "0x6ff8aed4f0d88bf3ac968e02c0a2041c6652b9bb",
          "topics": [
            "0xddf252ad1be2c89b69c2b068fc378daa952ba7f163c4a11628f55a4df523b3ef",
            "0x0000000000000000000000000000000000000000000000000000000000000000",
            "0x000000000000000000000000ea78d8595ab0127c283297af373a8f5ce7288bb0"
          ],
          "data": "0x0000000000000000000000000000000000000000000000000000000000018696",
          "blockHash": "0x74798659d2cb5af2d8d1065cc46a1b382643224e553389f3cbf59525a4e13a09",
          "blockNumber": "0x1738dff",
          "blockTimestamp": "0x697d1abb",
          "transactionHash": "0xb9edc0fa936723bf343f7472e5c43c8616f72be85f783841050c12e03eae73c4",
          "transactionIndex": "0xd3",
          "logIndex": "0x20d",
          "removed": false
        },
        {
          "address": "0x6ff8aed4f0d88bf3ac968e02c0a2041c6652b9bb",
          "topics": [
            "0xab8530f87dc9b59234c4623bf917212bb2536d647574c8e7e5da92c2ede0c9f8"
          ],
          "data": "0x0000000000000000000000006ff8aed4f0d88bf3ac968e02c0a2041c6652b9bb000000000000000000000000ea78d8595ab0127c283297af373a8f5ce7288bb00000000000000000000000000000000000000000000000000000000000018696",
          "blockHash": "0x74798659d2cb5af2d8d1065cc46a1b382643224e553389f3cbf59525a4e13a09",
          "blockNumber": "0x1738dff",
          "blockTimestamp": "0x697d1abb",
          "transactionHash": "0xb9edc0fa936723bf343f7472e5c43c8616f72be85f783841050c12e03eae73c4",
          "transactionIndex": "0xd3",
          "logIndex": "0x20e",
          "removed": false
        },
        {
          "address": "0xc02aaa39b223fe8d0a0e5c4f27ead9083c756cc2",
          "topics": [
            "0xddf252ad1be2c89b69c2b068fc378daa952ba7f163c4a11628f55a4df523b3ef",
            "0x000000000000000000000000ea78d8595ab0127c283297af373a8f5ce7288bb0",
            "0x00000000000000000000000083fa75ad7093b8c8e77c7a03d4593941792b0b4b"
          ],
          "data": "0x00000000000000000000000000000000000000000000000000000000000186a0",
          "blockHash": "0x74798659d2cb5af2d8d1065cc46a1b382643224e553389f3cbf59525a4e13a09",
          "blockNumber": "0x1738dff",
          "blockTimestamp": "0x697d1abb",
          "transactionHash": "0xb9edc0fa936723bf343f7472e5c43c8616f72be85f783841050c12e03eae73c4",
          "transactionIndex": "0xd3",
          "logIndex": "0x20f",
          "removed": false
        },
        {
          "address": "0x83fa75ad7093b8c8e77c7a03d4593941792b0b4b",
          "topics": [
            "0xddf252ad1be2c89b69c2b068fc378daa952ba7f163c4a11628f55a4df523b3ef",
            "0x0000000000000000000000000000000000000000000000000000000000000000",
            "0x000000000000000000000000ea78d8595ab0127c283297af373a8f5ce7288bb0"
          ],
          "data": "0x0000000000000000000000000000000000000000000000000000000000018696",
          "blockHash": "0x74798659d2cb5af2d8d1065cc46a1b382643224e553389f3cbf59525a4e13a09",
          "blockNumber": "0x1738dff",
          "blockTimestamp": "0x697d1abb",
          "transactionHash": "0xb9edc0fa936723bf343f7472e5c43c8616f72be85f783841050c12e03eae73c4",
          "transactionIndex": "0xd3",
          "logIndex": "0x210",
          "removed": false
        },
        {
          "address": "0xa127f6d2233dae96066ee8ecc8a09b0a2c782fdf",
          "topics": [
            "0xddf252ad1be2c89b69c2b068fc378daa952ba7f163c4a11628f55a4df523b3ef",
            "0x0000000000000000000000000000000000000000000000000000000000000000",
            "0x000000000000000000000000ea78d8595ab0127c283297af373a8f5ce7288bb0"
          ],
          "data": "0x0000000000000000000000000000000000000000000000000000000000018696",
          "blockHash": "0x74798659d2cb5af2d8d1065cc46a1b382643224e553389f3cbf59525a4e13a09",
          "blockNumber": "0x1738dff",
          "blockTimestamp": "0x697d1abb",
          "transactionHash": "0xb9edc0fa936723bf343f7472e5c43c8616f72be85f783841050c12e03eae73c4",
          "transactionIndex": "0xd3",
          "logIndex": "0x211",
          "removed": false
        },
        {
          "address": "0xa127f6d2233dae96066ee8ecc8a09b0a2c782fdf",
          "topics": [
            "0xab8530f87dc9b59234c4623bf917212bb2536d647574c8e7e5da92c2ede0c9f8"
          ],
          "data": "0x000000000000000000000000a127f6d2233dae96066ee8ecc8a09b0a2c782fdf000000000000000000000000ea78d8595ab0127c283297af373a8f5ce7288bb00000000000000000000000000000000000000000000000000000000000018696",
          "blockHash": "0x74798659d2cb5af2d8d1065cc46a1b382643224e553389f3cbf59525a4e13a09",
          "blockNumber": "0x1738dff",
          "blockTimestamp": "0x697d1abb",
          "transactionHash": "0xb9edc0fa936723bf343f7472e5c43c8616f72be85f783841050c12e03eae73c4",
          "transactionIndex": "0xd3",
          "logIndex": "0x212",
          "removed": false
        },
        {
          "address": "0xc02aaa39b223fe8d0a0e5c4f27ead9083c756cc2",
          "topics": [
            "0xddf252ad1be2c89b69c2b068fc378daa952ba7f163c4a11628f55a4df523b3ef",
            "0x000000000000000000000000ea78d8595ab0127c283297af373a8f5ce7288bb0",
            "0x000000000000000000000000f9d884401e9785ccdfde17067f60f4c91fa75322"
          ],
          "data": "0x00000000000000000000000000000000000000000000000000000000000186a0",
          "blockHash": "0x74798659d2cb5af2d8d1065cc46a1b382643224e553389f3cbf59525a4e13a09",
          "blockNumber": "0x1738dff",
          "blockTimestamp": "0x697d1abb",
          "transactionHash": "0xb9edc0fa936723bf343f7472e5c43c8616f72be85f783841050c12e03eae73c4",
          "transactionIndex": "0xd3",
          "logIndex": "0x213",
          "removed": false
        },
        {
          "address": "0xf9d884401e9785ccdfde17067f60f4c91fa75322",
          "topics": [
            "0xddf252ad1be2c89b69c2b068fc378daa952ba7f163c4a11628f55a4df523b3ef",
            "0x0000000000000000000000000000000000000000000000000000000000000000",
            "0x000000000000000000000000ea78d8595ab0127c283297af373a8f5ce7288bb0"
          ],
          "data": "0x0000000000000000000000000000000000000000000000000000000000018696",
          "blockHash": "0x74798659d2cb5af2d8d1065cc46a1b382643224e553389f3cbf59525a4e13a09",
          "blockNumber": "0x1738dff",
          "blockTimestamp": "0x697d1abb",
          "transactionHash": "0xb9edc0fa936723bf343f7472e5c43c8616f72be85f783841050c12e03eae73c4",
          "transactionIndex": "0xd3",
          "logIndex": "0x214",
          "removed": false
        },
        {
          "address": "0xb9d2a9c29bc2259a1dab70a8d56a3053b95a4904",
          "topics": [
            "0xddf252ad1be2c89b69c2b068fc378daa952ba7f163c4a11628f55a4df523b3ef",
            "0x0000000000000000000000000000000000000000000000000000000000000000",
            "0x000000000000000000000000ea78d8595ab0127c283297af373a8f5ce7288bb0"
          ],
          "data": "0x0000000000000000000000000000000000000000000000000000000000018696",
          "blockHash": "0x74798659d2cb5af2d8d1065cc46a1b382643224e553389f3cbf59525a4e13a09",
          "blockNumber": "0x1738dff",
          "blockTimestamp": "0x697d1abb",
          "transactionHash": "0xb9edc0fa936723bf343f7472e5c43c8616f72be85f783841050c12e03eae73c4",
          "transactionIndex": "0xd3",
          "logIndex": "0x215",
          "removed": false
        },
        {
          "address": "0xb9d2a9c29bc2259a1dab70a8d56a3053b95a4904",
          "topics": [
            "0xab8530f87dc9b59234c4623bf917212bb2536d647574c8e7e5da92c2ede0c9f8"
          ],
          "data": "0x000000000000000000000000b9d2a9c29bc2259a1dab70a8d56a3053b95a4904000000000000000000000000ea78d8595ab0127c283297af373a8f5ce7288bb00000000000000000000000000000000000000000000000000000000000018696",
          "blockHash": "0x74798659d2cb5af2d8d1065cc46a1b382643224e553389f3cbf59525a4e13a09",
          "blockNumber": "0x1738dff",
          "blockTimestamp": "0x697d1abb",
          "transactionHash": "0xb9edc0fa936723bf343f7472e5c43c8616f72be85f783841050c12e03eae73c4",
          "transactionIndex": "0xd3",
          "logIndex": "0x216",
          "removed": false
        },
        {
          "address": "0xc02aaa39b223fe8d0a0e5c4f27ead9083c756cc2",
          "topics": [
            "0xddf252ad1be2c89b69c2b068fc378daa952ba7f163c4a11628f55a4df523b3ef",
            "0x000000000000000000000000ea78d8595ab0127c283297af373a8f5ce7288bb0",
            "0x000000000000000000000000af8e4d94c731060dc3250e04df76e19e441d60a7"
          ],
          "data": "0x00000000000000000000000000000000000000000000000000000000000186a0",
          "blockHash": "0x74798659d2cb5af2d8d1065cc46a1b382643224e553389f3cbf59525a4e13a09",
          "blockNumber": "0x1738dff",
          "blockTimestamp": "0x697d1abb",
          "transactionHash": "0xb9edc0fa936723bf343f7472e5c43c8616f72be85f783841050c12e03eae73c4",
          "transactionIndex": "0xd3",
          "logIndex": "0x217",
          "removed": false
        },
        {
          "address": "0xaf8e4d94c731060dc3250e04df76e19e441d60a7",
          "topics": [
            "0xddf252ad1be2c89b69c2b068fc378daa952ba7f163c4a11628f55a4df523b3ef",
            "0x0000000000000000000000000000000000000000000000000000000000000000",
            "0x000000000000000000000000ea78d8595ab0127c283297af373a8f5ce7288bb0"
          ],
          "data": "0x0000000000000000000000000000000000000000000000000000000000018696",
          "blockHash": "0x74798659d2cb5af2d8d1065cc46a1b382643224e553389f3cbf59525a4e13a09",
          "blockNumber": "0x1738dff",
          "blockTimestamp": "0x697d1abb",
          "transactionHash": "0xb9edc0fa936723bf343f7472e5c43c8616f72be85f783841050c12e03eae73c4",
          "transactionIndex": "0xd3",
          "logIndex": "0x218",
          "removed": false
        },
        {
          "address": "0xafef03aabc2727226a5c78f8ef34078f857c5ec0",
          "topics": [
            "0xddf252ad1be2c89b69c2b068fc378daa952ba7f163c4a11628f55a4df523b3ef",
            "0x0000000000000000000000000000000000000000000000000000000000000000",
            "0x000000000000000000000000ea78d8595ab0127c283297af373a8f5ce7288bb0"
          ],
          "data": "0x0000000000000000000000000000000000000000000000000000000000018696",
          "blockHash": "0x74798659d2cb5af2d8d1065cc46a1b382643224e553389f3cbf59525a4e13a09",
          "blockNumber": "0x1738dff",
          "blockTimestamp": "0x697d1abb",
          "transactionHash": "0xb9edc0fa936723bf343f7472e5c43c8616f72be85f783841050c12e03eae73c4",
          "transactionIndex": "0xd3",
          "logIndex": "0x219",
          "removed": false
        },
        {
          "address": "0xafef03aabc2727226a5c78f8ef34078f857c5ec0",
          "topics": [
            "0xab8530f87dc9b59234c4623bf917212bb2536d647574c8e7e5da92c2ede0c9f8"
          ],
          "data": "0x000000000000000000000000afef03aabc2727226a5c78f8ef34078f857c5ec0000000000000000000000000ea78d8595ab0127c283297af373a8f5ce7288bb00000000000000000000000000000000000000000000000000000000000018696",
          "blockHash": "0x74798659d2cb5af2d8d1065cc46a1b382643224e553389f3cbf59525a4e13a09",
          "blockNumber": "0x1738dff",
          "blockTimestamp": "0x697d1abb",
          "transactionHash": "0xb9edc0fa936723bf343f7472e5c43c8616f72be85f783841050c12e03eae73c4",
          "transactionIndex": "0xd3",
          "logIndex": "0x21a",
          "removed": false
        },
        {
          "address": "0xc02aaa39b223fe8d0a0e5c4f27ead9083c756cc2",
          "topics": [
            "0xddf252ad1be2c89b69c2b068fc378daa952ba7f163c4a11628f55a4df523b3ef",
            "0x000000000000000000000000ea78d8595ab0127c283297af373a8f5ce7288bb0",
            "0x000000000000000000000000e29426dfdac10a010a644814444a8f0f739a526e"
          ],
          "data": "0x00000000000000000000000000000000000000000000000000000000000186a0",
          "blockHash": "0x74798659d2cb5af2d8d1065cc46a1b382643224e553389f3cbf59525a4e13a09",
          "blockNumber": "0x1738dff",
          "blockTimestamp": "0x697d1abb",
          "transactionHash": "0xb9edc0fa936723bf343f7472e5c43c8616f72be85f783841050c12e03eae73c4",
          "transactionIndex": "0xd3",
          "logIndex": "0x21b",
          "removed": false
        },
        {
          "address": "0xe29426dfdac10a010a644814444a8f0f739a526e",
          "topics": [
            "0xddf252ad1be2c89b69c2b068fc378daa952ba7f163c4a11628f55a4df523b3ef",
            "0x0000000000000000000000000000000000000000000000000000000000000000",
            "0x000000000000000000000000ea78d8595ab0127c283297af373a8f5ce7288bb0"
          ],
          "data": "0x0000000000000000000000000000000000000000000000000000000000018696",
          "blockHash": "0x74798659d2cb5af2d8d1065cc46a1b382643224e553389f3cbf59525a4e13a09",
          "blockNumber": "0x1738dff",
          "blockTimestamp": "0x697d1abb",
          "transactionHash": "0xb9edc0fa936723bf343f7472e5c43c8616f72be85f783841050c12e03eae73c4",
          "transactionIndex": "0xd3",
          "logIndex": "0x21c",
          "removed": false
        },
        {
          "address": "0x16df5093a1393336c2ef81a48ae37c76bb69ce37",
          "topics": [
            "0xddf252ad1be2c89b69c2b068fc378daa952ba7f163c4a11628f55a4df523b3ef",
            "0x0000000000000000000000000000000000000000000000000000000000000000",
            "0x000000000000000000000000ea78d8595ab0127c283297af373a8f5ce7288bb0"
          ],
          "data": "0x0000000000000000000000000000000000000000000000000000000000018696",
          "blockHash": "0x74798659d2cb5af2d8d1065cc46a1b382643224e553389f3cbf59525a4e13a09",
          "blockNumber": "0x1738dff",
          "blockTimestamp": "0x697d1abb",
          "transactionHash": "0xb9edc0fa936723bf343f7472e5c43c8616f72be85f783841050c12e03eae73c4",
          "transactionIndex": "0xd3",
          "logIndex": "0x21d",
          "removed": false
        },
        {
          "address": "0x16df5093a1393336c2ef81a48ae37c76bb69ce37",
          "topics": [
            "0xab8530f87dc9b59234c4623bf917212bb2536d647574c8e7e5da92c2ede0c9f8"
          ],
          "data": "0x00000000000000000000000016df5093a1393336c2ef81a48ae37c76bb69ce37000000000000000000000000ea78d8595ab0127c283297af373a8f5ce7288bb00000000000000000000000000000000000000000000000000000000000018696",
          "blockHash": "0x74798659d2cb5af2d8d1065cc46a1b382643224e553389f3cbf59525a4e13a09",
          "blockNumber": "0x1738dff",
          "blockTimestamp": "0x697d1abb",
          "transactionHash": "0xb9edc0fa936723bf343f7472e5c43c8616f72be85f783841050c12e03eae73c4",
          "transactionIndex": "0xd3",
          "logIndex": "0x21e",
          "removed": false
        },
        {
          "address": "0xc02aaa39b223fe8d0a0e5c4f27ead9083c756cc2",
          "topics": [
            "0xddf252ad1be2c89b69c2b068fc378daa952ba7f163c4a11628f55a4df523b3ef",
            "0x000000000000000000000000ea78d8595ab0127c283297af373a8f5ce7288bb0",
            "0x0000000000000000000000009e52fbd6d11580d7c6bd62c30a31826b5f608c3f"
          ],
          "data": "0x00000000000000000000000000000000000000000000000000000000000186a0",
          "blockHash": "0x74798659d2cb5af2d8d1065cc46a1b382643224e553389f3cbf59525a4e13a09",
          "blockNumber": "0x1738dff",
          "blockTimestamp": "0x697d1abb",
          "transactionHash": "0xb9edc0fa936723bf343f7472e5c43c8616f72be85f783841050c12e03eae73c4",
          "transactionIndex": "0xd3",
          "logIndex": "0x21f",
          "removed": false
        },
        {
          "address": "0x9e52fbd6d11580d7c6bd62c30a31826b5f608c3f",
          "topics": [
            "0xddf252ad1be2c89b69c2b068fc378daa952ba7f163c4a11628f55a4df523b3ef",
            "0x0000000000000000000000000000000000000000000000000000000000000000",
            "0x000000000000000000000000ea78d8595ab0127c283297af373a8f5ce7288bb0"
          ],
          "data": "0x0000000000000000000000000000000000000000000000000000000000018696",
          "blockHash": "0x74798659d2cb5af2d8d1065cc46a1b382643224e553389f3cbf59525a4e13a09",
          "blockNumber": "0x1738dff",
          "blockTimestamp": "0x697d1abb",
          "transactionHash": "0xb9edc0fa936723bf343f7472e5c43c8616f72be85f783841050c12e03eae73c4",
          "transactionIndex": "0xd3",
          "logIndex": "0x220",
          "removed": false
        },
        {
          "address": "0xada77b932375a2db6e084dbeedecd6008fc11b01",
          "topics": [
            "0xddf252ad1be2c89b69c2b068fc378daa952ba7f163c4a11628f55a4df523b3ef",
            "0x0000000000000000000000000000000000000000000000000000000000000000",
            "0x000000000000000000000000ea78d8595ab0127c283297af373a8f5ce7288bb0"
          ],
          "data": "0x0000000000000000000000000000000000000000000000000000000000018696",
          "blockHash": "0x74798659d2cb5af2d8d1065cc46a1b382643224e553389f3cbf59525a4e13a09",
          "blockNumber": "0x1738dff",
          "blockTimestamp": "0x697d1abb",
          "transactionHash": "0xb9edc0fa936723bf343f7472e5c43c8616f72be85f783841050c12e03eae73c4",
          "transactionIndex": "0xd3",
          "logIndex": "0x221",
          "removed": false
        },
        {
          "address": "0xada77b932375a2db6e084dbeedecd6008fc11b01",
          "topics": [
            "0xab8530f87dc9b59234c4623bf917212bb2536d647574c8e7e5da92c2ede0c9f8"
          ],
          "data": "0x000000000000000000000000ada77b932375a2db6e084dbeedecd6008fc11b01000000000000000000000000ea78d8595ab0127c283297af373a8f5ce7288bb00000000000000000000000000000000000000000000000000000000000018696",
          "blockHash": "0x74798659d2cb5af2d8d1065cc46a1b382643224e553389f3cbf59525a4e13a09",
          "blockNumber": "0x1738dff",
          "blockTimestamp": "0x697d1abb",
          "transactionHash": "0xb9edc0fa936723bf343f7472e5c43c8616f72be85f783841050c12e03eae73c4",
          "transactionIndex": "0xd3",
          "logIndex": "0x222",
          "removed": false
        },
        {
          "address": "0xc02aaa39b223fe8d0a0e5c4f27ead9083c756cc2",
          "topics": [
            "0xddf252ad1be2c89b69c2b068fc378daa952ba7f163c4a11628f55a4df523b3ef",
            "0x000000000000000000000000ea78d8595ab0127c283297af373a8f5ce7288bb0",
            "0x000000000000000000000000193ecaa15995b926e7436e52d6f55a536678bab6"
          ],
          "data": "0x00000000000000000000000000000000000000000000000000000000000186a0",
          "blockHash": "0x74798659d2cb5af2d8d1065cc46a1b382643224e553389f3cbf59525a4e13a09",
          "blockNumber": "0x1738dff",
          "blockTimestamp": "0x697d1abb",
          "transactionHash": "0xb9edc0fa936723bf343f7472e5c43c8616f72be85f783841050c12e03eae73c4",
          "transactionIndex": "0xd3",
          "logIndex": "0x223",
          "removed": false
        },
        {
          "address": "0x193ecaa15995b926e7436e52d6f55a536678bab6",
          "topics": [
            "0xddf252ad1be2c89b69c2b068fc378daa952ba7f163c4a11628f55a4df523b3ef",
            "0x0000000000000000000000000000000000000000000000000000000000000000",
            "0x000000000000000000000000ea78d8595ab0127c283297af373a8f5ce7288bb0"
          ],
          "data": "0x0000000000000000000000000000000000000000000000000000000000018696",
          "blockHash": "0x74798659d2cb5af2d8d1065cc46a1b382643224e553389f3cbf59525a4e13a09",
          "blockNumber": "0x1738dff",
          "blockTimestamp": "0x697d1abb",
          "transactionHash": "0xb9edc0fa936723bf343f7472e5c43c8616f72be85f783841050c12e03eae73c4",
          "transactionIndex": "0xd3",
          "logIndex": "0x224",
          "removed": false
        },
        {
          "address": "0x65377f1f4f067a468d9a99cfe5a2d2078097fb8e",
          "topics": [
            "0xddf252ad1be2c89b69c2b068fc378daa952ba7f163c4a11628f55a4df523b3ef",
            "0x0000000000000000000000000000000000000000000000000000000000000000",
            "0x000000000000000000000000ea78d8595ab0127c283297af373a8f5ce7288bb0"
          ],
          "data": "0x0000000000000000000000000000000000000000000000000000000000018696",
          "blockHash": "0x74798659d2cb5af2d8d1065cc46a1b382643224e553389f3cbf59525a4e13a09",
          "blockNumber": "0x1738dff",
          "blockTimestamp": "0x697d1abb",
          "transactionHash": "0xb9edc0fa936723bf343f7472e5c43c8616f72be85f783841050c12e03eae73c4",
          "transactionIndex": "0xd3",
          "logIndex": "0x225",
          "removed": false
        },
        {
          "address": "0x65377f1f4f067a468d9a99cfe5a2d2078097fb8e",
          "topics": [
            "0xab8530f87dc9b59234c4623bf917212bb2536d647574c8e7e5da92c2ede0c9f8"
          ],
          "data": "0x00000000000000000000000065377f1f4f067a468d9a99cfe5a2d2078097fb8e000000000000000000000000ea78d8595ab0127c283297af373a8f5ce7288bb00000000000000000000000000000000000000000000000000000000000018696",
          "blockHash": "0x74798659d2cb5af2d8d1065cc46a1b382643224e553389f3cbf59525a4e13a09",
          "blockNumber": "0x1738dff",
          "blockTimestamp": "0x697d1abb",
          "transactionHash": "0xb9edc0fa936723bf343f7472e5c43c8616f72be85f783841050c12e03eae73c4",
          "transactionIndex": "0xd3",
          "logIndex": "0x226",
          "removed": false
        },
        {
          "address": "0xc02aaa39b223fe8d0a0e5c4f27ead9083c756cc2",
          "topics": [
            "0xddf252ad1be2c89b69c2b068fc378daa952ba7f163c4a11628f55a4df523b3ef",
            "0x000000000000000000000000ea78d8595ab0127c283297af373a8f5ce7288bb0",
            "0x0000000000000000000000004e6975ac3deee071e326d3562492e274ca83a34f"
          ],
          "data": "0x00000000000000000000000000000000000000000000000000000000000186a0",
          "blockHash": "0x74798659d2cb5af2d8d1065cc46a1b382643224e553389f3cbf59525a4e13a09",
          "blockNumber": "0x1738dff",
          "blockTimestamp": "0x697d1abb",
          "transactionHash": "0xb9edc0fa936723bf343f7472e5c43c8616f72be85f783841050c12e03eae73c4",
          "transactionIndex": "0xd3",
          "logIndex": "0x227",
          "removed": false
        },
        {
          "address": "0x4e6975ac3deee071e326d3562492e274ca83a34f",
          "topics": [
            "0xddf252ad1be2c89b69c2b068fc378daa952ba7f163c4a11628f55a4df523b3ef",
            "0x0000000000000000000000000000000000000000000000000000000000000000",
            "0x000000000000000000000000ea78d8595ab0127c283297af373a8f5ce7288bb0"
          ],
          "data": "0x0000000000000000000000000000000000000000000000000000000000018696",
          "blockHash": "0x74798659d2cb5af2d8d1065cc46a1b382643224e553389f3cbf59525a4e13a09",
          "blockNumber": "0x1738dff",
          "blockTimestamp": "0x697d1abb",
          "transactionHash": "0xb9edc0fa936723bf343f7472e5c43c8616f72be85f783841050c12e03eae73c4",
          "transactionIndex": "0xd3",
          "logIndex": "0x228",
          "removed": false
        },
        {
          "address": "0x3213d3a004a7721b694266a93c8033f461139099",
          "topics": [
            "0xddf252ad1be2c89b69c2b068fc378daa952ba7f163c4a11628f55a4df523b3ef",
            "0x0000000000000000000000000000000000000000000000000000000000000000",
            "0x000000000000000000000000ea78d8595ab0127c283297af373a8f5ce7288bb0"
          ],
          "data": "0x0000000000000000000000000000000000000000000000000000000000018696",
          "blockHash": "0x74798659d2cb5af2d8d1065cc46a1b382643224e553389f3cbf59525a4e13a09",
          "blockNumber": "0x1738dff",
          "blockTimestamp": "0x697d1abb",
          "transactionHash": "0xb9edc0fa936723bf343f7472e5c43c8616f72be85f783841050c12e03eae73c4",
          "transactionIndex": "0xd3",
          "logIndex": "0x229",
          "removed": false
        },
        {
          "address": "0x3213d3a004a7721b694266a93c8033f461139099",
          "topics": [
            "0xab8530f87dc9b59234c4623bf917212bb2536d647574c8e7e5da92c2ede0c9f8"
          ],
          "data": "0x0000000000000000000000003213d3a004a7721b694266a93c8033f461139099000000000000000000000000ea78d8595ab0127c283297af373a8f5ce7288bb00000000000000000000000000000000000000000000000000000000000018696",
          "blockHash": "0x74798659d2cb5af2d8d1065cc46a1b382643224e553389f3cbf59525a4e13a09",
          "blockNumber": "0x1738dff",
          "blockTimestamp": "0x697d1abb",
          "transactionHash": "0xb9edc0fa936723bf343f7472e5c43c8616f72be85f783841050c12e03eae73c4",
          "transactionIndex": "0xd3",
          "logIndex": "0x22a",
          "removed": false
        },
        {
          "address": "0xc02aaa39b223fe8d0a0e5c4f27ead9083c756cc2",
          "topics": [
            "0xddf252ad1be2c89b69c2b068fc378daa952ba7f163c4a11628f55a4df523b3ef",
            "0x000000000000000000000000ea78d8595ab0127c283297af373a8f5ce7288bb0",
            "0x000000000000000000000000b0a4dcbd0dab210d61852e758020c45f50b1e13d"
          ],
          "data": "0x00000000000000000000000000000000000000000000000000000000000186a0",
          "blockHash": "0x74798659d2cb5af2d8d1065cc46a1b382643224e553389f3cbf59525a4e13a09",
          "blockNumber": "0x1738dff",
          "blockTimestamp": "0x697d1abb",
          "transactionHash": "0xb9edc0fa936723bf343f7472e5c43c8616f72be85f783841050c12e03eae73c4",
          "transactionIndex": "0xd3",
          "logIndex": "0x22b",
          "removed": false
        },
        {
          "address": "0xb0a4dcbd0dab210d61852e758020c45f50b1e13d",
          "topics": [
            "0xddf252ad1be2c89b69c2b068fc378daa952ba7f163c4a11628f55a4df523b3ef",
            "0x0000000000000000000000000000000000000000000000000000000000000000",
            "0x000000000000000000000000ea78d8595ab0127c283297af373a8f5ce7288bb0"
          ],
          "data": "0x0000000000000000000000000000000000000000000000000000000000018696",
          "blockHash": "0x74798659d2cb5af2d8d1065cc46a1b382643224e553389f3cbf59525a4e13a09",
          "blockNumber": "0x1738dff",
          "blockTimestamp": "0x697d1abb",
          "transactionHash": "0xb9edc0fa936723bf343f7472e5c43c8616f72be85f783841050c12e03eae73c4",
          "transactionIndex": "0xd3",
          "logIndex": "0x22c",
          "removed": false
        },
        {
          "address": "0x2b7e70bc81566b23f9ab5d7fb85eb723ea793ad6",
          "topics": [
            "0xddf252ad1be2c89b69c2b068fc378daa952ba7f163c4a11628f55a4df523b3ef",
            "0x0000000000000000000000000000000000000000000000000000000000000000",
            "0x000000000000000000000000ea78d8595ab0127c283297af373a8f5ce7288bb0"
          ],
          "data": "0x0000000000000000000000000000000000000000000000000000000000018696",
          "blockHash": "0x74798659d2cb5af2d8d1065cc46a1b382643224e553389f3cbf59525a4e13a09",
          "blockNumber": "0x1738dff",
          "blockTimestamp": "0x697d1abb",
          "transactionHash": "0xb9edc0fa936723bf343f7472e5c43c8616f72be85f783841050c12e03eae73c4",
          "transactionIndex": "0xd3",
          "logIndex": "0x22d",
          "removed": false
        },
        {
          "address": "0x2b7e70bc81566b23f9ab5d7fb85eb723ea793ad6",
          "topics": [
            "0xab8530f87dc9b59234c4623bf917212bb2536d647574c8e7e5da92c2ede0c9f8"
          ],
          "data": "0x0000000000000000000000002b7e70bc81566b23f9ab5d7fb85eb723ea793ad6000000000000000000000000ea78d8595ab0127c283297af373a8f5ce7288bb00000000000000000000000000000000000000000000000000000000000018696",
          "blockHash": "0x74798659d2cb5af2d8d1065cc46a1b382643224e553389f3cbf59525a4e13a09",
          "blockNumber": "0x1738dff",
          "blockTimestamp": "0x697d1abb",
          "transactionHash": "0xb9edc0fa936723bf343f7472e5c43c8616f72be85f783841050c12e03eae73c4",
          "transactionIndex": "0xd3",
          "logIndex": "0x22e",
          "removed": false
        },
        {
          "address": "0xc02aaa39b223fe8d0a0e5c4f27ead9083c756cc2",
          "topics": [
            "0xddf252ad1be2c89b69c2b068fc378daa952ba7f163c4a11628f55a4df523b3ef",
            "0x000000000000000000000000ea78d8595ab0127c283297af373a8f5ce7288bb0",
            "0x0000000000000000000000008eeb4c3365e400042bf583b7f19d478435e60069"
          ],
          "data": "0x00000000000000000000000000000000000000000000000000000000000186a0",
          "blockHash": "0x74798659d2cb5af2d8d1065cc46a1b382643224e553389f3cbf59525a4e13a09",
          "blockNumber": "0x1738dff",
          "blockTimestamp": "0x697d1abb",
          "transactionHash": "0xb9edc0fa936723bf343f7472e5c43c8616f72be85f783841050c12e03eae73c4",
          "transactionIndex": "0xd3",
          "logIndex": "0x22f",
          "removed": false
        },
        {
          "address": "0x8eeb4c3365e400042bf583b7f19d478435e60069",
          "topics": [
            "0xddf252ad1be2c89b69c2b068fc378daa952ba7f163c4a11628f55a4df523b3ef",
            "0x0000000000000000000000000000000000000000000000000000000000000000",
            "0x000000000000000000000000ea78d8595ab0127c283297af373a8f5ce7288bb0"
          ],
          "data": "0x0000000000000000000000000000000000000000000000000000000000018696",
          "blockHash": "0x74798659d2cb5af2d8d1065cc46a1b382643224e553389f3cbf59525a4e13a09",
          "blockNumber": "0x1738dff",
          "blockTimestamp": "0x697d1abb",
          "transactionHash": "0xb9edc0fa936723bf343f7472e5c43c8616f72be85f783841050c12e03eae73c4",
          "transactionIndex": "0xd3",
          "logIndex": "0x230",
          "removed": false
        },
        {
          "address": "0xdffd4f0747e4cc055973e07ccf34610ee9f507a5",
          "topics": [
            "0xddf252ad1be2c89b69c2b068fc378daa952ba7f163c4a11628f55a4df523b3ef",
            "0x0000000000000000000000000000000000000000000000000000000000000000",
            "0x000000000000000000000000ea78d8595ab0127c283297af373a8f5ce7288bb0"
          ],
          "data": "0x0000000000000000000000000000000000000000000000000000000000018696",
          "blockHash": "0x74798659d2cb5af2d8d1065cc46a1b382643224e553389f3cbf59525a4e13a09",
          "blockNumber": "0x1738dff",
          "blockTimestamp": "0x697d1abb",
          "transactionHash": "0xb9edc0fa936723bf343f7472e5c43c8616f72be85f783841050c12e03eae73c4",
          "transactionIndex": "0xd3",
          "logIndex": "0x231",
          "removed": false
        },
        {
          "address": "0xdffd4f0747e4cc055973e07ccf34610ee9f507a5",
          "topics": [
            "0xab8530f87dc9b59234c4623bf917212bb2536d647574c8e7e5da92c2ede0c9f8"
          ],
          "data": "0x000000000000000000000000dffd4f0747e4cc055973e07ccf34610ee9f507a5000000000000000000000000ea78d8595ab0127c283297af373a8f5ce7288bb00000000000000000000000000000000000000000000000000000000000018696",
          "blockHash": "0x74798659d2cb5af2d8d1065cc46a1b382643224e553389f3cbf59525a4e13a09",
          "blockNumber": "0x1738dff",
          "blockTimestamp": "0x697d1abb",
          "transactionHash": "0xb9edc0fa936723bf343f7472e5c43c8616f72be85f783841050c12e03eae73c4",
          "transactionIndex": "0xd3",
          "logIndex": "0x232",
          "removed": false
        },
        {
          "address": "0xc02aaa39b223fe8d0a0e5c4f27ead9083c756cc2",
          "topics": [
            "0xddf252ad1be2c89b69c2b068fc378daa952ba7f163c4a11628f55a4df523b3ef",
            "0x000000000000000000000000ea78d8595ab0127c283297af373a8f5ce7288bb0",
            "0x0000000000000000000000002b04ea84691e95f851b48ece9ba8998ceed26d86"
          ],
          "data": "0x00000000000000000000000000000000000000000000000000000000000186a0",
          "blockHash": "0x74798659d2cb5af2d8d1065cc46a1b382643224e553389f3cbf59525a4e13a09",
          "blockNumber": "0x1738dff",
          "blockTimestamp": "0x697d1abb",
          "transactionHash": "0xb9edc0fa936723bf343f7472e5c43c8616f72be85f783841050c12e03eae73c4",
          "transactionIndex": "0xd3",
          "logIndex": "0x233",
          "removed": false
        },
        {
          "address": "0x2b04ea84691e95f851b48ece9ba8998ceed26d86",
          "topics": [
            "0xddf252ad1be2c89b69c2b068fc378daa952ba7f163c4a11628f55a4df523b3ef",
            "0x0000000000000000000000000000000000000000000000000000000000000000",
            "0x000000000000000000000000ea78d8595ab0127c283297af373a8f5ce7288bb0"
          ],
          "data": "0x0000000000000000000000000000000000000000000000000000000000018696",
          "blockHash": "0x74798659d2cb5af2d8d1065cc46a1b382643224e553389f3cbf59525a4e13a09",
          "blockNumber": "0x1738dff",
          "blockTimestamp": "0x697d1abb",
          "transactionHash": "0xb9edc0fa936723bf343f7472e5c43c8616f72be85f783841050c12e03eae73c4",
          "transactionIndex": "0xd3",
          "logIndex": "0x234",
          "removed": false
        },
        {
          "address": "0xd127fbe6415e406a14ebb2a2ed431d5eacc8ba2f",
          "topics": [
            "0xddf252ad1be2c89b69c2b068fc378daa952ba7f163c4a11628f55a4df523b3ef",
            "0x0000000000000000000000000000000000000000000000000000000000000000",
            "0x000000000000000000000000ea78d8595ab0127c283297af373a8f5ce7288bb0"
          ],
          "data": "0x0000000000000000000000000000000000000000000000000000000000018696",
          "blockHash": "0x74798659d2cb5af2d8d1065cc46a1b382643224e553389f3cbf59525a4e13a09",
          "blockNumber": "0x1738dff",
          "blockTimestamp": "0x697d1abb",
          "transactionHash": "0xb9edc0fa936723bf343f7472e5c43c8616f72be85f783841050c12e03eae73c4",
          "transactionIndex": "0xd3",
          "logIndex": "0x235",
          "removed": false
        },
        {
          "address": "0xd127fbe6415e406a14ebb2a2ed431d5eacc8ba2f",
          "topics": [
            "0xab8530f87dc9b59234c4623bf917212bb2536d647574c8e7e5da92c2ede0c9f8"
          ],
          "data": "0x000000000000000000000000d127fbe6415e406a14ebb2a2ed431d5eacc8ba2f000000000000000000000000ea78d8595ab0127c283297af373a8f5ce7288bb00000000000000000000000000000000000000000000000000000000000018696",
          "blockHash": "0x74798659d2cb5af2d8d1065cc46a1b382643224e553389f3cbf59525a4e13a09",
          "blockNumber": "0x1738dff",
          "blockTimestamp": "0x697d1abb",
          "transactionHash": "0xb9edc0fa936723bf343f7472e5c43c8616f72be85f783841050c12e03eae73c4",
          "transactionIndex": "0xd3",
          "logIndex": "0x236",
          "removed": false
        },
        {
          "address": "0xc02aaa39b223fe8d0a0e5c4f27ead9083c756cc2",
          "topics": [
            "0xddf252ad1be2c89b69c2b068fc378daa952ba7f163c4a11628f55a4df523b3ef",
            "0x000000000000000000000000ea78d8595ab0127c283297af373a8f5ce7288bb0",
            "0x000000000000000000000000c856bb71216556460cb60c47e85718ac0db52b5c"
          ],
          "data": "0x00000000000000000000000000000000000000000000000000000000000186a0",
          "blockHash": "0x74798659d2cb5af2d8d1065cc46a1b382643224e553389f3cbf59525a4e13a09",
          "blockNumber": "0x1738dff",
          "blockTimestamp": "0x697d1abb",
          "transactionHash": "0xb9edc0fa936723bf343f7472e5c43c8616f72be85f783841050c12e03eae73c4",
          "transactionIndex": "0xd3",
          "logIndex": "0x237",
          "removed": false
        },
        {
          "address": "0xc856bb71216556460cb60c47e85718ac0db52b5c",
          "topics": [
            "0xddf252ad1be2c89b69c2b068fc378daa952ba7f163c4a11628f55a4df523b3ef",
            "0x0000000000000000000000000000000000000000000000000000000000000000",
            "0x000000000000000000000000ea78d8595ab0127c283297af373a8f5ce7288bb0"
          ],
          "data": "0x0000000000000000000000000000000000000000000000000000000000018696",
          "blockHash": "0x74798659d2cb5af2d8d1065cc46a1b382643224e553389f3cbf59525a4e13a09",
          "blockNumber": "0x1738dff",
          "blockTimestamp": "0x697d1abb",
          "transactionHash": "0xb9edc0fa936723bf343f7472e5c43c8616f72be85f783841050c12e03eae73c4",
          "transactionIndex": "0xd3",
          "logIndex": "0x238",
          "removed": false
        },
        {
          "address": "0x47a79d2395af93d4f0b43167b0e22e2afadc3f73",
          "topics": [
            "0xddf252ad1be2c89b69c2b068fc378daa952ba7f163c4a11628f55a4df523b3ef",
            "0x0000000000000000000000000000000000000000000000000000000000000000",
            "0x000000000000000000000000ea78d8595ab0127c283297af373a8f5ce7288bb0"
          ],
          "data": "0x0000000000000000000000000000000000000000000000000000000000018696",
          "blockHash": "0x74798659d2cb5af2d8d1065cc46a1b382643224e553389f3cbf59525a4e13a09",
          "blockNumber": "0x1738dff",
          "blockTimestamp": "0x697d1abb",
          "transactionHash": "0xb9edc0fa936723bf343f7472e5c43c8616f72be85f783841050c12e03eae73c4",
          "transactionIndex": "0xd3",
          "logIndex": "0x239",
          "removed": false
        },
        {
          "address": "0x47a79d2395af93d4f0b43167b0e22e2afadc3f73",
          "topics": [
            "0xab8530f87dc9b59234c4623bf917212bb2536d647574c8e7e5da92c2ede0c9f8"
          ],
          "data": "0x00000000000000000000000047a79d2395af93d4f0b43167b0e22e2afadc3f73000000000000000000000000ea78d8595ab0127c283297af373a8f5ce7288bb00000000000000000000000000000000000000000000000000000000000018696",
          "blockHash": "0x74798659d2cb5af2d8d1065cc46a1b382643224e553389f3cbf59525a4e13a09",
          "blockNumber": "0x1738dff",
          "blockTimestamp": "0x697d1abb",
          "transactionHash": "0xb9edc0fa936723bf343f7472e5c43c8616f72be85f783841050c12e03eae73c4",
          "transactionIndex": "0xd3",
          "logIndex": "0x23a",
          "removed": false
        },
        {
          "address": "0xc02aaa39b223fe8d0a0e5c4f27ead9083c756cc2",
          "topics": [
            "0xddf252ad1be2c89b69c2b068fc378daa952ba7f163c4a11628f55a4df523b3ef",
            "0x000000000000000000000000ea78d8595ab0127c283297af373a8f5ce7288bb0",
            "0x000000000000000000000000a6afe1fe782c56091756ce286fc3668a5f5abc84"
          ],
          "data": "0x00000000000000000000000000000000000000000000000000000000000186a0",
          "blockHash": "0x74798659d2cb5af2d8d1065cc46a1b382643224e553389f3cbf59525a4e13a09",
          "blockNumber": "0x1738dff",
          "blockTimestamp": "0x697d1abb",
          "transactionHash": "0xb9edc0fa936723bf343f7472e5c43c8616f72be85f783841050c12e03eae73c4",
          "transactionIndex": "0xd3",
          "logIndex": "0x23b",
          "removed": false
        },
        {
          "address": "0xa6afe1fe782c56091756ce286fc3668a5f5abc84",
          "topics": [
            "0xddf252ad1be2c89b69c2b068fc378daa952ba7f163c4a11628f55a4df523b3ef",
            "0x0000000000000000000000000000000000000000000000000000000000000000",
            "0x000000000000000000000000ea78d8595ab0127c283297af373a8f5ce7288bb0"
          ],
          "data": "0x0000000000000000000000000000000000000000000000000000000000018696",
          "blockHash": "0x74798659d2cb5af2d8d1065cc46a1b382643224e553389f3cbf59525a4e13a09",
          "blockNumber": "0x1738dff",
          "blockTimestamp": "0x697d1abb",
          "transactionHash": "0xb9edc0fa936723bf343f7472e5c43c8616f72be85f783841050c12e03eae73c4",
          "transactionIndex": "0xd3",
          "logIndex": "0x23c",
          "removed": false
        },
        {
          "address": "0xa1cb11b8eca1ce978a8f4e68ed205e1179cc0606",
          "topics": [
            "0xddf252ad1be2c89b69c2b068fc378daa952ba7f163c4a11628f55a4df523b3ef",
            "0x0000000000000000000000000000000000000000000000000000000000000000",
            "0x000000000000000000000000ea78d8595ab0127c283297af373a8f5ce7288bb0"
          ],
          "data": "0x0000000000000000000000000000000000000000000000000000000000018696",
          "blockHash": "0x74798659d2cb5af2d8d1065cc46a1b382643224e553389f3cbf59525a4e13a09",
          "blockNumber": "0x1738dff",
          "blockTimestamp": "0x697d1abb",
          "transactionHash": "0xb9edc0fa936723bf343f7472e5c43c8616f72be85f783841050c12e03eae73c4",
          "transactionIndex": "0xd3",
          "logIndex": "0x23d",
          "removed": false
        },
        {
          "address": "0xa1cb11b8eca1ce978a8f4e68ed205e1179cc0606",
          "topics": [
            "0xab8530f87dc9b59234c4623bf917212bb2536d647574c8e7e5da92c2ede0c9f8"
          ],
          "data": "0x000000000000000000000000a1cb11b8eca1ce978a8f4e68ed205e1179cc0606000000000000000000000000ea78d8595ab0127c283297af373a8f5ce7288bb00000000000000000000000000000000000000000000000000000000000018696",
          "blockHash": "0x74798659d2cb5af2d8d1065cc46a1b382643224e553389f3cbf59525a4e13a09",
          "blockNumber": "0x1738dff",
          "blockTimestamp": "0x697d1abb",
          "transactionHash": "0xb9edc0fa936723bf343f7472e5c43c8616f72be85f783841050c12e03eae73c4",
          "transactionIndex": "0xd3",
          "logIndex": "0x23e",
          "removed": false
        },
        {
          "address": "0x984a5b8de953d39b3128c2b6570219d14a5f2759",
          "topics": [
            "0x611f26bf2585849cbf69943da0d36aa65af0e05243c378f900b524f05e6c84b2",
            "0x000000000000000000000000ea78d8595ab0127c283297af373a8f5ce7288bb0"
          ],
          "data": "0x000000000000000000000000000000000000000000000000000000000000001c00000000000000000000000000000000000000000000000000000000002ab980",
          "blockHash": "0x74798659d2cb5af2d8d1065cc46a1b382643224e553389f3cbf59525a4e13a09",
          "blockNumber": "0x1738dff",
          "blockTimestamp": "0x697d1abb",
          "transactionHash": "0xb9edc0fa936723bf343f7472e5c43c8616f72be85f783841050c12e03eae73c4",
          "transactionIndex": "0xd3",
          "logIndex": "0x23f",
          "removed": false
        }
      ],
      "logsBloom": "0x902840080802480420401000000120800060022000000000000801020001030000018900202400000b0021009020062842c0002018200020004400020200000000040404004008000080000e020001404000808120148040100000000051300009420400820085040800080010081a08250800020200008084420090088004400092001800845000001200020020001128062200244420c00000001040112800010c000009080240002000200449408410000000200080020001003800000040040806c20000004000810802001800002c02048016624100000400220040222008002002422022102401000000221100124020805c4802000010000008018040",
      "type": "0x2",
      "transactionHash": "0xb9edc0fa936723bf343f7472e5c43c8616f72be85f783841050c12e03eae73c4",
      "transactionIndex": "0xd3",
      "blockHash": "0x74798659d2cb5af2d8d1065cc46a1b382643224e553389f3cbf59525a4e13a09",
      "blockNumber": "0x1738dff",
      "gasUsed": "0x1e74b3",
      "effectiveGasPrice": "0x38ff100e",
      "from": "0xea78d8595ab0127c283297af373a8f5ce7288bb0",
      "to": "0x984a5b8de953d39b3128c2b6570219d14a5f2759",
      "contractAddress": null
    }
  ],
  "libraries": [],
  "pending": [],
  "returns": {},
  "timestamp": 1769806527519,
  "chain": 1,
  "commit": null
}